{
  "_format": "hh-sol-artifact-1",
  "contractName": "ERC6551Account",
  "sourceName": "contracts/thirdparty/ERC6551Account.sol",
  "abi": [
    {
      "inputs": [
        {
          "internalType": "address",
          "name": "to",
          "type": "address"
        },
        {
          "internalType": "uint256",
          "name": "value",
          "type": "uint256"
        },
        {
          "internalType": "bytes",
          "name": "data",
          "type": "bytes"
        },
        {
          "internalType": "uint256",
          "name": "operation",
          "type": "uint256"
        }
      ],
      "name": "execute",
      "outputs": [
        {
          "internalType": "bytes",
          "name": "result",
          "type": "bytes"
        }
      ],
      "stateMutability": "payable",
      "type": "function"
    },
    {
      "inputs": [
        {
          "internalType": "bytes32",
          "name": "hash",
          "type": "bytes32"
        },
        {
          "internalType": "bytes",
          "name": "signature",
          "type": "bytes"
        }
      ],
      "name": "isValidSignature",
      "outputs": [
        {
          "internalType": "bytes4",
          "name": "magicValue",
          "type": "bytes4"
        }
      ],
      "stateMutability": "view",
      "type": "function"
    },
    {
      "inputs": [
        {
          "internalType": "address",
          "name": "signer",
          "type": "address"
        },
        {
          "internalType": "bytes",
          "name": "",
          "type": "bytes"
        }
      ],
      "name": "isValidSigner",
      "outputs": [
        {
          "internalType": "bytes4",
          "name": "",
          "type": "bytes4"
        }
      ],
      "stateMutability": "view",
      "type": "function"
    },
    {
      "inputs": [],
      "name": "owner",
      "outputs": [
        {
          "internalType": "address",
          "name": "",
          "type": "address"
        }
      ],
      "stateMutability": "view",
      "type": "function"
    },
    {
      "inputs": [],
      "name": "state",
      "outputs": [
        {
          "internalType": "uint256",
          "name": "",
          "type": "uint256"
        }
      ],
      "stateMutability": "view",
      "type": "function"
    },
    {
      "inputs": [
        {
          "internalType": "bytes4",
          "name": "interfaceId",
          "type": "bytes4"
        }
      ],
      "name": "supportsInterface",
      "outputs": [
        {
          "internalType": "bool",
          "name": "",
          "type": "bool"
        }
      ],
      "stateMutability": "pure",
      "type": "function"
    },
    {
      "inputs": [],
      "name": "token",
      "outputs": [
        {
          "internalType": "uint256",
          "name": "",
          "type": "uint256"
        },
        {
          "internalType": "address",
          "name": "",
          "type": "address"
        },
        {
          "internalType": "uint256",
          "name": "",
          "type": "uint256"
        }
      ],
      "stateMutability": "view",
      "type": "function"
    },
    {
      "stateMutability": "payable",
      "type": "receive"
    }
  ],
  "bytecode": "0x608060405234801561001057600080fd5b5061134b806100206000396000f3fe6080604052600436106100745760003560e01c806374420f4c1161004e57806374420f4c146101375780638da5cb5b14610167578063c19d93fb14610192578063fc0c546a146101bd5761007b565b806301ffc9a7146100805780631626ba7e146100bd578063523e3260146100fa5761007b565b3661007b57005b600080fd5b34801561008c57600080fd5b506100a760048036038101906100a29190610998565b6101ea565b6040516100b491906109e0565b60405180910390f35b3480156100c957600080fd5b506100e460048036038101906100df9190610b77565b610324565b6040516100f19190610be2565b60405180910390f35b34801561010657600080fd5b50610121600480360381019061011c9190610cbb565b61035d565b60405161012e9190610be2565b60405180910390f35b610151600480360381019061014c9190610d51565b61038b565b60405161015e9190610e58565b60405180910390f35b34801561017357600080fd5b5061017c6104b9565b6040516101899190610e89565b60405180910390f35b34801561019e57600080fd5b506101a7610563565b6040516101b49190610eb3565b60405180910390f35b3480156101c957600080fd5b506101d2610569565b6040516101e193929190610ece565b60405180910390f35b60007f01ffc9a7000000000000000000000000000000000000000000000000000000007bffffffffffffffffffffffffffffffffffffffffffffffffffffffff1916827bffffffffffffffffffffffffffffffffffffffffffffffffffffffff191614806102b557507f6faff5f1000000000000000000000000000000000000000000000000000000007bffffffffffffffffffffffffffffffffffffffffffffffffffffffff1916827bffffffffffffffffffffffffffffffffffffffffffffffffffffffff1916145b8061031d57507f74420f4c000000000000000000000000000000000000000000000000000000007bffffffffffffffffffffffffffffffffffffffffffffffffffffffff1916827bffffffffffffffffffffffffffffffffffffffffffffffffffffffff1916145b9050919050565b6000806103396103326104b9565b85856105e9565b9050801561035157631626ba7e60e01b915050610357565b60009150505b92915050565b600061036884610679565b1561037c5763523e326060e01b9050610384565b600060e01b90505b9392505050565b606061039633610679565b6103d5576040517f08c379a00000000000000000000000000000000000000000000000000000000081526004016103cc90610f62565b60405180910390fd5b60008214610418576040517f08c379a000000000000000000000000000000000000000000000000000000000815260040161040f90610ff4565b60405180910390fd5b600080815461042690611043565b9190508190555060008673ffffffffffffffffffffffffffffffffffffffff168686866040516104579291906110bb565b60006040518083038185875af1925050503d8060008114610494576040519150601f19603f3d011682016040523d82523d6000602084013e610499565b606091505b508093508192505050806104af57815160208301fd5b5095945050505050565b6000806000806104c7610569565b9250925092504683146104e05760009350505050610560565b8173ffffffffffffffffffffffffffffffffffffffff16636352211e826040518263ffffffff1660e01b81526004016105199190610eb3565b602060405180830381865afa158015610536573d6000803e3d6000fd5b505050506040513d601f19601f8201168201806040525081019061055a91906110e9565b93505050505b90565b60005481565b600080600080606067ffffffffffffffff81111561058a57610589610a4c565b5b6040519080825280601f01601f1916602001820160405280156105bc5781602001600182028036833780820191505090505b5090506060604d60208301303c808060200190518101906105dd9190611169565b93509350935050909192565b60008060006105f885856106b8565b509150915060006003811115610611576106106111bc565b5b816003811115610624576106236111bc565b5b14801561065c57508573ffffffffffffffffffffffffffffffffffffffff168273ffffffffffffffffffffffffffffffffffffffff16145b8061066e575061066d868686610714565b5b925050509392505050565b60006106836104b9565b73ffffffffffffffffffffffffffffffffffffffff168273ffffffffffffffffffffffffffffffffffffffff16149050919050565b600080600060418451036106fd5760008060006020870151925060408701519150606087015160001a90506106ef88828585610838565b95509550955050505061070d565b60006002855160001b9250925092505b9250925092565b60008060008573ffffffffffffffffffffffffffffffffffffffff1685856040516024016107439291906111fa565b604051602081830303815290604052631626ba7e60e01b6020820180517bffffffffffffffffffffffffffffffffffffffffffffffffffffffff8381831617835250505050604051610795919061125b565b600060405180830381855afa9150503d80600081146107d0576040519150601f19603f3d011682016040523d82523d6000602084013e6107d5565b606091505b50915091508180156107e957506020815110155b801561082d5750631626ba7e60e01b7bffffffffffffffffffffffffffffffffffffffffffffffffffffffff19168180602001905181019061082b9190611287565b145b925050509392505050565b60008060007f7fffffffffffffffffffffffffffffff5d576e7357a4501ddfe92f46681b20a08460001c1115610878576000600385925092509250610922565b60006001888888886040516000815260200160405260405161089d94939291906112d0565b6020604051602081039080840390855afa1580156108bf573d6000803e3d6000fd5b505050602060405103519050600073ffffffffffffffffffffffffffffffffffffffff168173ffffffffffffffffffffffffffffffffffffffff160361091357600060016000801b93509350935050610922565b8060008060001b935093509350505b9450945094915050565b6000604051905090565b600080fd5b600080fd5b60007fffffffff0000000000000000000000000000000000000000000000000000000082169050919050565b61097581610940565b811461098057600080fd5b50565b6000813590506109928161096c565b92915050565b6000602082840312156109ae576109ad610936565b5b60006109bc84828501610983565b91505092915050565b60008115159050919050565b6109da816109c5565b82525050565b60006020820190506109f560008301846109d1565b92915050565b6000819050919050565b610a0e816109fb565b8114610a1957600080fd5b50565b600081359050610a2b81610a05565b92915050565b600080fd5b600080fd5b6000601f19601f8301169050919050565b7f4e487b7100000000000000000000000000000000000000000000000000000000600052604160045260246000fd5b610a8482610a3b565b810181811067ffffffffffffffff82111715610aa357610aa2610a4c565b5b80604052505050565b6000610ab661092c565b9050610ac28282610a7b565b919050565b600067ffffffffffffffff821115610ae257610ae1610a4c565b5b610aeb82610a3b565b9050602081019050919050565b82818337600083830152505050565b6000610b1a610b1584610ac7565b610aac565b905082815260208101848484011115610b3657610b35610a36565b5b610b41848285610af8565b509392505050565b600082601f830112610b5e57610b5d610a31565b5b8135610b6e848260208601610b07565b91505092915050565b60008060408385031215610b8e57610b8d610936565b5b6000610b9c85828601610a1c565b925050602083013567ffffffffffffffff811115610bbd57610bbc61093b565b5b610bc985828601610b49565b9150509250929050565b610bdc81610940565b82525050565b6000602082019050610bf76000830184610bd3565b92915050565b600073ffffffffffffffffffffffffffffffffffffffff82169050919050565b6000610c2882610bfd565b9050919050565b610c3881610c1d565b8114610c4357600080fd5b50565b600081359050610c5581610c2f565b92915050565b600080fd5b600080fd5b60008083601f840112610c7b57610c7a610a31565b5b8235905067ffffffffffffffff811115610c9857610c97610c5b565b5b602083019150836001820283011115610cb457610cb3610c60565b5b9250929050565b600080600060408486031215610cd457610cd3610936565b5b6000610ce286828701610c46565b935050602084013567ffffffffffffffff811115610d0357610d0261093b565b5b610d0f86828701610c65565b92509250509250925092565b6000819050919050565b610d2e81610d1b565b8114610d3957600080fd5b50565b600081359050610d4b81610d25565b92915050565b600080600080600060808688031215610d6d57610d6c610936565b5b6000610d7b88828901610c46565b9550506020610d8c88828901610d3c565b945050604086013567ffffffffffffffff811115610dad57610dac61093b565b5b610db988828901610c65565b93509350506060610dcc88828901610d3c565b9150509295509295909350565b600081519050919050565b600082825260208201905092915050565b60005b83811015610e13578082015181840152602081019050610df8565b60008484015250505050565b6000610e2a82610dd9565b610e348185610de4565b9350610e44818560208601610df5565b610e4d81610a3b565b840191505092915050565b60006020820190508181036000830152610e728184610e1f565b905092915050565b610e8381610c1d565b82525050565b6000602082019050610e9e6000830184610e7a565b92915050565b610ead81610d1b565b82525050565b6000602082019050610ec86000830184610ea4565b92915050565b6000606082019050610ee36000830186610ea4565b610ef06020830185610e7a565b610efd6040830184610ea4565b949350505050565b600082825260208201905092915050565b7f496e76616c6964207369676e6572000000000000000000000000000000000000600082015250565b6000610f4c600e83610f05565b9150610f5782610f16565b602082019050919050565b60006020820190508181036000830152610f7b81610f3f565b9050919050565b7f4f6e6c792063616c6c206f7065726174696f6e732061726520737570706f727460008201527f6564000000000000000000000000000000000000000000000000000000000000602082015250565b6000610fde602283610f05565b9150610fe982610f82565b604082019050919050565b6000602082019050818103600083015261100d81610fd1565b9050919050565b7f4e487b7100000000000000000000000000000000000000000000000000000000600052601160045260246000fd5b600061104e82610d1b565b91507fffffffffffffffffffffffffffffffffffffffffffffffffffffffffffffffff82036110805761107f611014565b5b600182019050919050565b600081905092915050565b60006110a2838561108b565b93506110af838584610af8565b82840190509392505050565b60006110c8828486611096565b91508190509392505050565b6000815190506110e381610c2f565b92915050565b6000602082840312156110ff576110fe610936565b5b600061110d848285016110d4565b91505092915050565b60008151905061112581610d25565b92915050565b600061113682610bfd565b9050919050565b6111468161112b565b811461115157600080fd5b50565b6000815190506111638161113d565b92915050565b60008060006060848603121561118257611181610936565b5b600061119086828701611116565b93505060206111a186828701611154565b92505060406111b286828701611116565b9150509250925092565b7f4e487b7100000000000000000000000000000000000000000000000000000000600052602160045260246000fd5b6111f4816109fb565b82525050565b600060408201905061120f60008301856111eb565b81810360208301526112218184610e1f565b90509392505050565b600061123582610dd9565b61123f818561108b565b935061124f818560208601610df5565b80840191505092915050565b6000611267828461122a565b915081905092915050565b60008151905061128181610a05565b92915050565b60006020828403121561129d5761129c610936565b5b60006112ab84828501611272565b91505092915050565b600060ff82169050919050565b6112ca816112b4565b82525050565b60006080820190506112e560008301876111eb565b6112f260208301866112c1565b6112ff60408301856111eb565b61130c60608301846111eb565b9594505050505056fea2646970667358221220b831c7a4c6659ef6a656c51814136c368e50a66bb4393a743f61ba738684862a64736f6c63430008140033",
  "linkReferences": {},
  "deployedLinkReferences": {}
}