{
  "_format": "hh-sol-artifact-1",
  "contractName": "Random",
  "sourceName": "contracts/utils/Random.sol",
  "abi": [
    {
      "inputs": [],
      "stateMutability": "nonpayable",
      "type": "constructor"
    },
    {
      "anonymous": false,
      "inputs": [
        {
          "indexed": true,
          "internalType": "address",
          "name": "from",
          "type": "address"
        },
        {
          "indexed": true,
          "internalType": "address",
          "name": "to",
          "type": "address"
        }
      ],
      "name": "OwnershipTransferRequested",
      "type": "event"
    },
    {
      "anonymous": false,
      "inputs": [
        {
          "indexed": true,
          "internalType": "address",
          "name": "from",
          "type": "address"
        },
        {
          "indexed": true,
          "internalType": "address",
          "name": "to",
          "type": "address"
        }
      ],
      "name": "OwnershipTransferred",
      "type": "event"
    },
    {
      "anonymous": false,
      "inputs": [
        {
          "indexed": false,
          "internalType": "uint256",
          "name": "requestId",
          "type": "uint256"
        },
        {
          "indexed": false,
          "internalType": "uint256[]",
          "name": "randomWords",
          "type": "uint256[]"
        },
        {
          "indexed": false,
          "internalType": "uint256",
          "name": "payment",
          "type": "uint256"
        }
      ],
      "name": "RequestFulfilled",
      "type": "event"
    },
    {
      "anonymous": false,
      "inputs": [
        {
          "indexed": false,
          "internalType": "uint256",
          "name": "requestId",
          "type": "uint256"
        },
        {
          "indexed": false,
          "internalType": "uint32",
          "name": "numWords",
          "type": "uint32"
        }
      ],
      "name": "RequestSent",
      "type": "event"
    },
    {
      "inputs": [],
      "name": "acceptOwnership",
      "outputs": [],
      "stateMutability": "nonpayable",
      "type": "function"
    },
    {
      "inputs": [
        {
          "internalType": "uint256",
          "name": "_requestId",
          "type": "uint256"
        }
      ],
      "name": "getRandomNum",
      "outputs": [
        {
          "internalType": "uint256",
          "name": "",
          "type": "uint256"
        }
      ],
      "stateMutability": "view",
      "type": "function"
    },
    {
      "inputs": [
        {
          "internalType": "uint256",
          "name": "_requestId",
          "type": "uint256"
        }
      ],
      "name": "getRequestStatus",
      "outputs": [
        {
          "internalType": "uint256",
          "name": "paid",
          "type": "uint256"
        },
        {
          "internalType": "bool",
          "name": "fulfilled",
          "type": "bool"
        },
        {
          "internalType": "uint256[]",
          "name": "randomWords",
          "type": "uint256[]"
        }
      ],
      "stateMutability": "view",
      "type": "function"
    },
    {
      "inputs": [],
      "name": "lastRequestId",
      "outputs": [
        {
          "internalType": "uint256",
          "name": "",
          "type": "uint256"
        }
      ],
      "stateMutability": "view",
      "type": "function"
    },
    {
      "inputs": [],
      "name": "owner",
      "outputs": [
        {
          "internalType": "address",
          "name": "",
          "type": "address"
        }
      ],
      "stateMutability": "view",
      "type": "function"
    },
    {
      "inputs": [
        {
          "internalType": "uint256",
          "name": "_requestId",
          "type": "uint256"
        },
        {
          "internalType": "uint256[]",
          "name": "_randomWords",
          "type": "uint256[]"
        }
      ],
      "name": "rawFulfillRandomWords",
      "outputs": [],
      "stateMutability": "nonpayable",
      "type": "function"
    },
    {
      "inputs": [
        {
          "internalType": "uint256",
          "name": "",
          "type": "uint256"
        }
      ],
      "name": "requestIds",
      "outputs": [
        {
          "internalType": "uint256",
          "name": "",
          "type": "uint256"
        }
      ],
      "stateMutability": "view",
      "type": "function"
    },
    {
      "inputs": [],
      "name": "requestRandomWords",
      "outputs": [
        {
          "internalType": "uint256",
          "name": "requestId",
          "type": "uint256"
        }
      ],
      "stateMutability": "nonpayable",
      "type": "function"
    },
    {
      "inputs": [
        {
          "internalType": "uint256",
          "name": "",
          "type": "uint256"
        }
      ],
      "name": "s_requests",
      "outputs": [
        {
          "internalType": "uint256",
          "name": "paid",
          "type": "uint256"
        },
        {
          "internalType": "bool",
          "name": "fulfilled",
          "type": "bool"
        }
      ],
      "stateMutability": "view",
      "type": "function"
    },
    {
      "inputs": [
        {
          "internalType": "address",
          "name": "to",
          "type": "address"
        }
      ],
      "name": "transferOwnership",
      "outputs": [],
      "stateMutability": "nonpayable",
      "type": "function"
    },
    {
      "inputs": [],
      "name": "withdrawLink",
      "outputs": [],
      "stateMutability": "nonpayable",
      "type": "function"
    }
  ],
  "bytecode": "0x60c0604052620186a0600560006101000a81548163ffffffff021916908363ffffffff1602179055506003600560046101000a81548161ffff021916908361ffff1602179055506001600560066101000a81548163ffffffff021916908363ffffffff16021790555073326c977e6efc84e512bb9c30f76e30c160ed06fb6005600a6101000a81548173ffffffffffffffffffffffffffffffffffffffff021916908373ffffffffffffffffffffffffffffffffffffffff16021790555073708701a1dff4f478de54383e49a627ed4852c816600660006101000a81548173ffffffffffffffffffffffffffffffffffffffff021916908373ffffffffffffffffffffffffffffffffffffffff1602179055503480156200011f57600080fd5b50338060006005600a9054906101000a900473ffffffffffffffffffffffffffffffffffffffff16600660009054906101000a900473ffffffffffffffffffffffffffffffffffffffff168173ffffffffffffffffffffffffffffffffffffffff1660808173ffffffffffffffffffffffffffffffffffffffff16815250508073ffffffffffffffffffffffffffffffffffffffff1660a08173ffffffffffffffffffffffffffffffffffffffff16815250505050600073ffffffffffffffffffffffffffffffffffffffff168273ffffffffffffffffffffffffffffffffffffffff160362000246576040517f08c379a00000000000000000000000000000000000000000000000000000000081526004016200023d9062000466565b60405180910390fd5b816000806101000a81548173ffffffffffffffffffffffffffffffffffffffff021916908373ffffffffffffffffffffffffffffffffffffffff160217905550600073ffffffffffffffffffffffffffffffffffffffff168173ffffffffffffffffffffffffffffffffffffffff1614620002cd57620002cc81620002d660201b60201c565b5b505050620004fa565b3373ffffffffffffffffffffffffffffffffffffffff168173ffffffffffffffffffffffffffffffffffffffff160362000347576040517f08c379a00000000000000000000000000000000000000000000000000000000081526004016200033e90620004d8565b60405180910390fd5b80600160006101000a81548173ffffffffffffffffffffffffffffffffffffffff021916908373ffffffffffffffffffffffffffffffffffffffff1602179055508073ffffffffffffffffffffffffffffffffffffffff1660008054906101000a900473ffffffffffffffffffffffffffffffffffffffff1673ffffffffffffffffffffffffffffffffffffffff167fed8889f560326eb138920d842192f0eb3dd22b4f139c87a2c57538e05bae127860405160405180910390a350565b600082825260208201905092915050565b7f43616e6e6f7420736574206f776e657220746f207a65726f0000000000000000600082015250565b60006200044e60188362000405565b91506200045b8262000416565b602082019050919050565b6000602082019050818103600083015262000481816200043f565b9050919050565b7f43616e6e6f74207472616e7366657220746f2073656c66000000000000000000600082015250565b6000620004c060178362000405565b9150620004cd8262000488565b602082019050919050565b60006020820190508181036000830152620004f381620004b1565b9050919050565b60805160a0516118d36200053c60003960008181610219015281816107d501528181610ba701528181610bc80152610ce801526000610b6b01526118d36000f3fe608060405234801561001057600080fd5b50600436106100a95760003560e01c8063a168fa8911610071578063a168fa891461012c578063d1f22eef1461015d578063d8a4676f1461018d578063e0c86289146101bf578063f2fde38b146101dd578063fc2a88c3146101f9576100a9565b80631fe543e3146100ae57806379ba5097146100ca5780638796ba8c146100d45780638da5cb5b146101045780638dc654a214610122575b600080fd5b6100c860048036038101906100c391906110b7565b610217565b005b6100d26102b3565b005b6100ee60048036038101906100e99190611113565b610448565b6040516100fb919061114f565b60405180910390f35b61010c61046c565b60405161011991906111ab565b60405180910390f35b61012a610495565b005b61014660048036038101906101419190611113565b6105fd565b6040516101549291906111e1565b60405180910390f35b61017760048036038101906101729190611113565b61062e565b604051610184919061114f565b60405180910390f35b6101a760048036038101906101a29190611113565b61066b565b6040516101b6939291906112c8565b60405180910390f35b6101c7610785565b6040516101d4919061114f565b60405180910390f35b6101f760048036038101906101f29190611332565b6109b5565b005b6102016109c9565b60405161020e919061114f565b60405180910390f35b7f000000000000000000000000000000000000000000000000000000000000000073ffffffffffffffffffffffffffffffffffffffff163373ffffffffffffffffffffffffffffffffffffffff16146102a5576040517f08c379a000000000000000000000000000000000000000000000000000000000815260040161029c906113bc565b60405180910390fd5b6102af82826109cf565b5050565b600160009054906101000a900473ffffffffffffffffffffffffffffffffffffffff1673ffffffffffffffffffffffffffffffffffffffff163373ffffffffffffffffffffffffffffffffffffffff1614610343576040517f08c379a000000000000000000000000000000000000000000000000000000000815260040161033a90611428565b60405180910390fd5b60008060009054906101000a900473ffffffffffffffffffffffffffffffffffffffff169050336000806101000a81548173ffffffffffffffffffffffffffffffffffffffff021916908373ffffffffffffffffffffffffffffffffffffffff1602179055506000600160006101000a81548173ffffffffffffffffffffffffffffffffffffffff021916908373ffffffffffffffffffffffffffffffffffffffff1602179055503373ffffffffffffffffffffffffffffffffffffffff168173ffffffffffffffffffffffffffffffffffffffff167f8be0079c531659141344cd1fd0a4f28419497f9722a3daafe3b4186f6b6457e060405160405180910390a350565b6003818154811061045857600080fd5b906000526020600020016000915090505481565b60008060009054906101000a900473ffffffffffffffffffffffffffffffffffffffff16905090565b61049d610ad7565b60006005600a9054906101000a900473ffffffffffffffffffffffffffffffffffffffff1690508073ffffffffffffffffffffffffffffffffffffffff1663a9059cbb338373ffffffffffffffffffffffffffffffffffffffff166370a08231306040518263ffffffff1660e01b815260040161051a91906111ab565b602060405180830381865afa158015610537573d6000803e3d6000fd5b505050506040513d601f19601f8201168201806040525081019061055b919061145d565b6040518363ffffffff1660e01b815260040161057892919061148a565b6020604051808303816000875af1158015610597573d6000803e3d6000fd5b505050506040513d601f19601f820116820180604052508101906105bb91906114df565b6105fa576040517f08c379a00000000000000000000000000000000000000000000000000000000081526004016105f190611558565b60405180910390fd5b50565b60026020528060005260406000206000915090508060000154908060010160009054906101000a900460ff16905082565b60006002600083815260200190815260200160002060020160008154811061065957610658611578565b5b90600052602060002001549050919050565b600080606060006002600086815260200190815260200160002060000154116106c9576040517f08c379a00000000000000000000000000000000000000000000000000000000081526004016106c0906115f3565b60405180910390fd5b600060026000868152602001908152602001600020604051806060016040529081600082015481526020016001820160009054906101000a900460ff161515151581526020016002820180548060200260200160405190810160405280929190818152602001828054801561075d57602002820191906000526020600020905b815481526020019060010190808311610749575b5050505050815250509050806000015181602001518260400151935093509350509193909250565b60006107c6600560009054906101000a900463ffffffff16600560049054906101000a900461ffff16600560069054906101000a900463ffffffff16610b67565b905060405180606001604052807f000000000000000000000000000000000000000000000000000000000000000073ffffffffffffffffffffffffffffffffffffffff16634306d354600560009054906101000a900463ffffffff166040518263ffffffff1660e01b815260040161083e9190611632565b602060405180830381865afa15801561085b573d6000803e3d6000fd5b505050506040513d601f19601f8201168201806040525081019061087f919061145d565b8152602001600015158152602001600067ffffffffffffffff8111156108a8576108a7610f74565b5b6040519080825280602002602001820160405280156108d65781602001602082028036833780820191505090505b50815250600260008381526020019081526020016000206000820151816000015560208201518160010160006101000a81548160ff0219169083151502179055506040820151816002019080519060200190610933929190610eaa565b509050506003819080600181540180825580915050600190039060005260206000200160009091909190915055806004819055507fcc58b13ad3eab50626c6a6300b1d139cd6ebb1688a7cced9461c2f7e762665ee81600560069054906101000a900463ffffffff166040516109aa92919061164d565b60405180910390a190565b6109bd610ad7565b6109c681610d7e565b50565b60045481565b6000600260008481526020019081526020016000206000015411610a28576040517f08c379a0000000000000000000000000000000000000000000000000000000008152600401610a1f906115f3565b60405180910390fd5b60016002600084815260200190815260200160002060010160006101000a81548160ff02191690831515021790555080600260008481526020019081526020016000206002019080519060200190610a81929190610eaa565b507f147eb1ff0c82f87f2b03e2c43f5a36488ff63ec6b730195fde4605f612f8db5182826002600086815260200190815260200160002060000154604051610acb93929190611676565b60405180910390a15050565b60008054906101000a900473ffffffffffffffffffffffffffffffffffffffff1673ffffffffffffffffffffffffffffffffffffffff163373ffffffffffffffffffffffffffffffffffffffff1614610b65576040517f08c379a0000000000000000000000000000000000000000000000000000000008152600401610b5c90611700565b60405180910390fd5b565b60007f000000000000000000000000000000000000000000000000000000000000000073ffffffffffffffffffffffffffffffffffffffff16634000aea07f00000000000000000000000000000000000000000000000000000000000000007f000000000000000000000000000000000000000000000000000000000000000073ffffffffffffffffffffffffffffffffffffffff16634306d354886040518263ffffffff1660e01b8152600401610c1f9190611632565b602060405180830381865afa158015610c3c573d6000803e3d6000fd5b505050506040513d601f19601f82011682018060405250810190610c60919061145d565b878787604051602001610c759392919061173d565b6040516020818303038152906040526040518463ffffffff1660e01b8152600401610ca2939291906117f3565b6020604051808303816000875af1158015610cc1573d6000803e3d6000fd5b505050506040513d601f19601f82011682018060405250810190610ce591906114df565b507f000000000000000000000000000000000000000000000000000000000000000073ffffffffffffffffffffffffffffffffffffffff1663fc2a88c36040518163ffffffff1660e01b8152600401602060405180830381865afa158015610d51573d6000803e3d6000fd5b505050506040513d601f19601f82011682018060405250810190610d75919061145d565b90509392505050565b3373ffffffffffffffffffffffffffffffffffffffff168173ffffffffffffffffffffffffffffffffffffffff1603610dec576040517f08c379a0000000000000000000000000000000000000000000000000000000008152600401610de39061187d565b60405180910390fd5b80600160006101000a81548173ffffffffffffffffffffffffffffffffffffffff021916908373ffffffffffffffffffffffffffffffffffffffff1602179055508073ffffffffffffffffffffffffffffffffffffffff1660008054906101000a900473ffffffffffffffffffffffffffffffffffffffff1673ffffffffffffffffffffffffffffffffffffffff167fed8889f560326eb138920d842192f0eb3dd22b4f139c87a2c57538e05bae127860405160405180910390a350565b828054828255906000526020600020908101928215610ee6579160200282015b82811115610ee5578251825591602001919060010190610eca565b5b509050610ef39190610ef7565b5090565b5b80821115610f10576000816000905550600101610ef8565b5090565b6000604051905090565b600080fd5b600080fd5b6000819050919050565b610f3b81610f28565b8114610f4657600080fd5b50565b600081359050610f5881610f32565b92915050565b600080fd5b6000601f19601f8301169050919050565b7f4e487b7100000000000000000000000000000000000000000000000000000000600052604160045260246000fd5b610fac82610f63565b810181811067ffffffffffffffff82111715610fcb57610fca610f74565b5b80604052505050565b6000610fde610f14565b9050610fea8282610fa3565b919050565b600067ffffffffffffffff82111561100a57611009610f74565b5b602082029050602081019050919050565b600080fd5b600061103361102e84610fef565b610fd4565b905080838252602082019050602084028301858111156110565761105561101b565b5b835b8181101561107f578061106b8882610f49565b845260208401935050602081019050611058565b5050509392505050565b600082601f83011261109e5761109d610f5e565b5b81356110ae848260208601611020565b91505092915050565b600080604083850312156110ce576110cd610f1e565b5b60006110dc85828601610f49565b925050602083013567ffffffffffffffff8111156110fd576110fc610f23565b5b61110985828601611089565b9150509250929050565b60006020828403121561112957611128610f1e565b5b600061113784828501610f49565b91505092915050565b61114981610f28565b82525050565b60006020820190506111646000830184611140565b92915050565b600073ffffffffffffffffffffffffffffffffffffffff82169050919050565b60006111958261116a565b9050919050565b6111a58161118a565b82525050565b60006020820190506111c0600083018461119c565b92915050565b60008115159050919050565b6111db816111c6565b82525050565b60006040820190506111f66000830185611140565b61120360208301846111d2565b9392505050565b600081519050919050565b600082825260208201905092915050565b6000819050602082019050919050565b61123f81610f28565b82525050565b60006112518383611236565b60208301905092915050565b6000602082019050919050565b60006112758261120a565b61127f8185611215565b935061128a83611226565b8060005b838110156112bb5781516112a28882611245565b97506112ad8361125d565b92505060018101905061128e565b5085935050505092915050565b60006060820190506112dd6000830186611140565b6112ea60208301856111d2565b81810360408301526112fc818461126a565b9050949350505050565b61130f8161118a565b811461131a57600080fd5b50565b60008135905061132c81611306565b92915050565b60006020828403121561134857611347610f1e565b5b60006113568482850161131d565b91505092915050565b600082825260208201905092915050565b7f6f6e6c792056524620563220777261707065722063616e2066756c66696c6c00600082015250565b60006113a6601f8361135f565b91506113b182611370565b602082019050919050565b600060208201905081810360008301526113d581611399565b9050919050565b7f4d7573742062652070726f706f736564206f776e657200000000000000000000600082015250565b600061141260168361135f565b915061141d826113dc565b602082019050919050565b6000602082019050818103600083015261144181611405565b9050919050565b60008151905061145781610f32565b92915050565b60006020828403121561147357611472610f1e565b5b600061148184828501611448565b91505092915050565b600060408201905061149f600083018561119c565b6114ac6020830184611140565b9392505050565b6114bc816111c6565b81146114c757600080fd5b50565b6000815190506114d9816114b3565b92915050565b6000602082840312156114f5576114f4610f1e565b5b6000611503848285016114ca565b91505092915050565b7f556e61626c6520746f207472616e736665720000000000000000000000000000600082015250565b600061154260128361135f565b915061154d8261150c565b602082019050919050565b6000602082019050818103600083015261157181611535565b9050919050565b7f4e487b7100000000000000000000000000000000000000000000000000000000600052603260045260246000fd5b7f72657175657374206e6f7420666f756e64000000000000000000000000000000600082015250565b60006115dd60118361135f565b91506115e8826115a7565b602082019050919050565b6000602082019050818103600083015261160c816115d0565b9050919050565b600063ffffffff82169050919050565b61162c81611613565b82525050565b60006020820190506116476000830184611623565b92915050565b60006040820190506116626000830185611140565b61166f6020830184611623565b9392505050565b600060608201905061168b6000830186611140565b818103602083015261169d818561126a565b90506116ac6040830184611140565b949350505050565b7f4f6e6c792063616c6c61626c65206279206f776e657200000000000000000000600082015250565b60006116ea60168361135f565b91506116f5826116b4565b602082019050919050565b60006020820190508181036000830152611719816116dd565b9050919050565b600061ffff82169050919050565b61173781611720565b82525050565b60006060820190506117526000830186611623565b61175f602083018561172e565b61176c6040830184611623565b949350505050565b600081519050919050565b600082825260208201905092915050565b60005b838110156117ae578082015181840152602081019050611793565b60008484015250505050565b60006117c582611774565b6117cf818561177f565b93506117df818560208601611790565b6117e881610f63565b840191505092915050565b6000606082019050611808600083018661119c565b6118156020830185611140565b818103604083015261182781846117ba565b9050949350505050565b7f43616e6e6f74207472616e7366657220746f2073656c66000000000000000000600082015250565b600061186760178361135f565b915061187282611831565b602082019050919050565b600060208201905081810360008301526118968161185a565b905091905056fea264697066735822122042b0b3f0d004e1a6676d7c12a29314cc6862cb9a0caf6dda1ee90b13715374de64736f6c63430008140033",
  "linkReferences": {},
  "deployedLinkReferences": {}
}