{
  "_format": "hh-sol-artifact-1",
  "contractName": "SonarMeta",
  "sourceName": "contracts/SonarMeta.sol",
  "abi": [
    {
      "inputs": [
        {
          "internalType": "address",
          "name": "_ipNFTAddr",
          "type": "address"
        },
        {
          "internalType": "address",
          "name": "_erc6551AccountImplAddr",
          "type": "address"
        },
        {
          "internalType": "address",
          "name": "_ipAccountRegistryAddr",
          "type": "address"
        },
        {
          "internalType": "address",
          "name": "_erc4907ImplAddr",
          "type": "address"
        }
      ],
      "stateMutability": "nonpayable",
      "type": "constructor"
    },
    {
      "inputs": [
        {
          "internalType": "address",
          "name": "owner",
          "type": "address"
        }
      ],
      "name": "OwnableInvalidOwner",
      "type": "error"
    },
    {
      "inputs": [
        {
          "internalType": "address",
          "name": "account",
          "type": "address"
        }
      ],
      "name": "OwnableUnauthorizedAccount",
      "type": "error"
    },
    {
      "anonymous": false,
      "inputs": [
        {
          "indexed": true,
          "internalType": "address",
          "name": "previousOwner",
          "type": "address"
        },
        {
          "indexed": true,
          "internalType": "address",
          "name": "newOwner",
          "type": "address"
        }
      ],
      "name": "OwnershipTransferred",
      "type": "event"
    },
    {
      "inputs": [
        {
          "internalType": "uint256",
          "name": "unionId",
          "type": "uint256"
        },
        {
          "internalType": "address",
          "name": "memberAddr",
          "type": "address"
        },
        {
          "internalType": "uint256",
          "name": "weight",
          "type": "uint256"
        }
      ],
      "name": "addMemberToUnion",
      "outputs": [],
      "stateMutability": "nonpayable",
      "type": "function"
    },
    {
      "inputs": [
        {
          "internalType": "address",
          "name": "_tokenContract",
          "type": "address"
        },
        {
          "internalType": "address",
          "name": "_ipOwnerAddr",
          "type": "address"
        },
        {
          "internalType": "uint256",
          "name": "_chainId",
          "type": "uint256"
        },
        {
          "internalType": "uint256",
          "name": "_tokenId",
          "type": "uint256"
        }
      ],
      "name": "createIPFromExistNFT",
      "outputs": [
        {
          "internalType": "address",
          "name": "",
          "type": "address"
        }
      ],
      "stateMutability": "nonpayable",
      "type": "function"
    },
    {
      "inputs": [
        {
          "internalType": "string",
          "name": "_uri",
          "type": "string"
        },
        {
          "internalType": "address",
          "name": "_ipOwnerAddr",
          "type": "address"
        },
        {
          "internalType": "uint256",
          "name": "_chainId",
          "type": "uint256"
        }
      ],
      "name": "createNewIP",
      "outputs": [
        {
          "internalType": "address",
          "name": "",
          "type": "address"
        },
        {
          "internalType": "uint256",
          "name": "",
          "type": "uint256"
        }
      ],
      "stateMutability": "nonpayable",
      "type": "function"
    },
    {
      "inputs": [],
      "name": "createNewUnion",
      "outputs": [
        {
          "internalType": "address",
          "name": "",
          "type": "address"
        },
        {
          "internalType": "uint256",
          "name": "",
          "type": "uint256"
        }
      ],
      "stateMutability": "nonpayable",
      "type": "function"
    },
    {
      "inputs": [
        {
          "internalType": "uint256",
          "name": "_amount",
          "type": "uint256"
        },
        {
          "internalType": "address",
          "name": "_accountAddr",
          "type": "address"
        },
        {
          "internalType": "uint256",
          "name": "_tokenId",
          "type": "uint256"
        }
      ],
      "name": "dividendToUnion",
      "outputs": [],
      "stateMutability": "payable",
      "type": "function"
    },
    {
      "inputs": [
        {
          "internalType": "uint256",
          "name": "",
          "type": "uint256"
        }
      ],
      "name": "erc6551Acccounts",
      "outputs": [
        {
          "internalType": "address",
          "name": "",
          "type": "address"
        }
      ],
      "stateMutability": "view",
      "type": "function"
    },
    {
      "inputs": [
        {
          "internalType": "uint256",
          "name": "maxNum",
          "type": "uint256"
        }
      ],
      "name": "getRandom",
      "outputs": [
        {
          "internalType": "uint256",
          "name": "",
          "type": "uint256"
        }
      ],
      "stateMutability": "nonpayable",
      "type": "function"
    },
    {
      "inputs": [
        {
          "internalType": "address",
          "name": "_accountAddr",
          "type": "address"
        },
        {
          "internalType": "uint256",
          "name": "_unionId",
          "type": "uint256"
        },
        {
          "internalType": "uint256",
          "name": "_tokenType",
          "type": "uint256"
        },
        {
          "internalType": "uint256",
          "name": "_expires",
          "type": "uint256"
        }
      ],
      "name": "grantToUnion",
      "outputs": [],
      "stateMutability": "nonpayable",
      "type": "function"
    },
    {
      "inputs": [],
      "name": "owner",
      "outputs": [
        {
          "internalType": "address",
          "name": "",
          "type": "address"
        }
      ],
      "stateMutability": "view",
      "type": "function"
    },
    {
      "inputs": [
        {
          "internalType": "string",
          "name": "_newIPURI",
          "type": "string"
        },
        {
          "internalType": "address",
          "name": "_ip6551AccountAddr",
          "type": "address"
        },
        {
          "internalType": "uint256",
          "name": "_chainId",
          "type": "uint256"
        }
      ],
      "name": "recreate",
      "outputs": [
        {
          "internalType": "address",
          "name": "",
          "type": "address"
        },
        {
          "internalType": "uint256",
          "name": "",
          "type": "uint256"
        }
      ],
      "stateMutability": "nonpayable",
      "type": "function"
    },
    {
      "inputs": [],
      "name": "renounceOwnership",
      "outputs": [],
      "stateMutability": "nonpayable",
      "type": "function"
    },
    {
      "inputs": [
        {
          "internalType": "address",
          "name": "newOwner",
          "type": "address"
        }
      ],
      "name": "transferOwnership",
      "outputs": [],
      "stateMutability": "nonpayable",
      "type": "function"
    },
    {
      "inputs": [
        {
          "internalType": "uint256",
          "name": "",
          "type": "uint256"
        }
      ],
      "name": "unionAddrs",
      "outputs": [
        {
          "internalType": "address",
          "name": "",
          "type": "address"
        }
      ],
      "stateMutability": "view",
      "type": "function"
    },
    {
      "inputs": [
        {
          "internalType": "uint256",
          "name": "",
          "type": "uint256"
        }
      ],
      "name": "unionOwners",
      "outputs": [
        {
          "internalType": "address",
          "name": "",
          "type": "address"
        }
      ],
      "stateMutability": "view",
      "type": "function"
    }
  ],
  "bytecode": "0x61010060405273b54ea2aa87d28a3651de7af26e33d4ab2e2547ba600d60006101000a81548173ffffffffffffffffffffffffffffffffffffffff021916908373ffffffffffffffffffffffffffffffffffffffff1602179055503480156200006757600080fd5b50604051620044f7380380620044f783398181016040528101906200008d919062000557565b33600073ffffffffffffffffffffffffffffffffffffffff168173ffffffffffffffffffffffffffffffffffffffff1603620001035760006040517f1e4fbdf7000000000000000000000000000000000000000000000000000000008152600401620000fa9190620005da565b60405180910390fd5b62000114816200036d60201b60201c565b50620001256200043160201b60201c565b62000135620004c460201b60201c565b600160006101000a81548173ffffffffffffffffffffffffffffffffffffffff021916908373ffffffffffffffffffffffffffffffffffffffff16021790555083600260006101000a81548173ffffffffffffffffffffffffffffffffffffffff021916908373ffffffffffffffffffffffffffffffffffffffff16021790555081600360006101000a81548173ffffffffffffffffffffffffffffffffffffffff021916908373ffffffffffffffffffffffffffffffffffffffff16021790555082600b60006101000a81548173ffffffffffffffffffffffffffffffffffffffff021916908373ffffffffffffffffffffffffffffffffffffffff16021790555080600460006101000a81548173ffffffffffffffffffffffffffffffffffffffff021916908373ffffffffffffffffffffffffffffffffffffffff160217905550600d60009054906101000a900473ffffffffffffffffffffffffffffffffffffffff16600660006101000a81548173ffffffffffffffffffffffffffffffffffffffff021916908373ffffffffffffffffffffffffffffffffffffffff16021790555083600a60006101000a81548173ffffffffffffffffffffffffffffffffffffffff021916908373ffffffffffffffffffffffffffffffffffffffff16021790555060326080818152505062278d00600662000338919062000630565b60a0818152505062278d00600c62000351919062000630565b60c0818152505062278d0060e0818152505050505050620006fe565b60008060009054906101000a900473ffffffffffffffffffffffffffffffffffffffff169050816000806101000a81548173ffffffffffffffffffffffffffffffffffffffff021916908373ffffffffffffffffffffffffffffffffffffffff1602179055508173ffffffffffffffffffffffffffffffffffffffff168173ffffffffffffffffffffffffffffffffffffffff167f8be0079c531659141344cd1fd0a4f28419497f9722a3daafe3b4186f6b6457e060405160405180910390a35050565b60007f8e94fed44239eb2314ab7a406345e6c5a8f0ccedf3b600de3d004e672c33abf454905060017f8e94fed44239eb2314ab7a406345e6c5a8f0ccedf3b600de3d004e672c33abf45560008114620004c1576040517f08c379a0000000000000000000000000000000000000000000000000000000008152600401620004b890620006dc565b60405180910390fd5b50565b60008060009054906101000a900473ffffffffffffffffffffffffffffffffffffffff16905090565b600080fd5b600073ffffffffffffffffffffffffffffffffffffffff82169050919050565b60006200051f82620004f2565b9050919050565b620005318162000512565b81146200053d57600080fd5b50565b600081519050620005518162000526565b92915050565b60008060008060808587031215620005745762000573620004ed565b5b6000620005848782880162000540565b9450506020620005978782880162000540565b9350506040620005aa8782880162000540565b9250506060620005bd8782880162000540565b91505092959194509250565b620005d48162000512565b82525050565b6000602082019050620005f16000830184620005c9565b92915050565b6000819050919050565b7f4e487b7100000000000000000000000000000000000000000000000000000000600052601160045260246000fd5b60006200063d82620005f7565b91506200064a83620005f7565b92508282026200065a81620005f7565b9150828204841483151762000674576200067362000601565b5b5092915050565b600082825260208201905092915050565b7f3142000000000000000000000000000000000000000000000000000000000000600082015250565b6000620006c46002836200067b565b9150620006d1826200068c565b602082019050919050565b60006020820190508181036000830152620006f781620006b5565b9050919050565b60805160a05160c05160e051613dcb6200072c60003960005050600050506000505060005050613dcb6000f3fe608060405260043610620000f25760003560e01c8063a043021e116200008b578063ec4f92e31162000061578063ec4f92e31462000339578063f2fde38b146200037e578063f46c359b14620003ac578063ffdad1e514620003da57620000f2565b8063a043021e146200026d578063cd4b691414620002b1578063dacb3cd914620002f557620000f2565b8063715018a611620000cd578063715018a614620001b1578063835c12db14620001cb578063861ea07b14620001f95780638da5cb5b146200023d57620000f2565b80632480551014620000f7578063396dbfde146200013b5780635ba51c7c1462000180575b600080fd5b3480156200010457600080fd5b506200012360048036038101906200011d919062001950565b620003fa565b604051620001329190620019d3565b60405180910390f35b3480156200014857600080fd5b5062000167600480360381019062000161919062001b52565b62000663565b6040516200017792919062001bde565b60405180910390f35b3480156200018d57600080fd5b5062000198620006fc565b604051620001a892919062001bde565b60405180910390f35b348015620001be57600080fd5b50620001c96200087e565b005b348015620001d857600080fd5b50620001f76004803603810190620001f1919062001c0b565b62000896565b005b3480156200020657600080fd5b506200022560048036038101906200021f919062001c7d565b62000bd2565b604051620002349190620019d3565b60405180910390f35b3480156200024a57600080fd5b506200025562000c05565b604051620002649190620019d3565b60405180910390f35b3480156200027a57600080fd5b5062000299600480360381019062000293919062001c7d565b62000c2e565b604051620002a89190620019d3565b60405180910390f35b348015620002be57600080fd5b50620002dd6004803603810190620002d7919062001c7d565b62000c61565b604051620002ec919062001caf565b60405180910390f35b3480156200030257600080fd5b506200032160048036038101906200031b919062001c7d565b62000db2565b604051620003309190620019d3565b60405180910390f35b3480156200034657600080fd5b506200036560048036038101906200035f919062001b52565b62000de5565b6040516200037592919062001bde565b60405180910390f35b3480156200038b57600080fd5b50620003aa6004803603810190620003a4919062001ccc565b620010f4565b005b348015620003b957600080fd5b50620003d86004803603810190620003d2919062001cfe565b62001181565b005b620003f86004803603810190620003f2919062001cfe565b620012da565b005b6000807f8e94fed44239eb2314ab7a406345e6c5a8f0ccedf3b600de3d004e672c33abf4549050600181146200042f57600080fd5b60027f8e94fed44239eb2314ab7a406345e6c5a8f0ccedf3b600de3d004e672c33abf455600160009054906101000a900473ffffffffffffffffffffffffffffffffffffffff1673ffffffffffffffffffffffffffffffffffffffff1663f5f84ed4336040518263ffffffff1660e01b8152600401620004b09190620019d3565b60006040518083038186803b158015620004c957600080fd5b505afa158015620004de573d6000803e3d6000fd5b50505050600073ffffffffffffffffffffffffffffffffffffffff168573ffffffffffffffffffffffffffffffffffffffff160362000554576040517f08c379a00000000000000000000000000000000000000000000000000000000081526004016200054b9062001de1565b60405180910390fd5b6000600360009054906101000a900473ffffffffffffffffffffffffffffffffffffffff1673ffffffffffffffffffffffffffffffffffffffff1663da7323b3600b60009054906101000a900473ffffffffffffffffffffffffffffffffffffffff16878a88620005c8620186a062000c61565b6040518663ffffffff1660e01b8152600401620005ea95949392919062001e3e565b6020604051808303816000875af11580156200060a573d6000803e3d6000fd5b505050506040513d601f19601f8201168201806040525081019062000630919062001ec7565b90508092505060017f8e94fed44239eb2314ab7a406345e6c5a8f0ccedf3b600de3d004e672c33abf45550949350505050565b60008060007f8e94fed44239eb2314ab7a406345e6c5a8f0ccedf3b600de3d004e672c33abf4549050600181146200069a57600080fd5b60027f8e94fed44239eb2314ab7a406345e6c5a8f0ccedf3b600de3d004e672c33abf455620006cb86868662000de5565b9250925060017f8e94fed44239eb2314ab7a406345e6c5a8f0ccedf3b600de3d004e672c33abf45550935093915050565b60008060007f8e94fed44239eb2314ab7a406345e6c5a8f0ccedf3b600de3d004e672c33abf4549050600181146200073357600080fd5b60027f8e94fed44239eb2314ab7a406345e6c5a8f0ccedf3b600de3d004e672c33abf45560006200076560096200170e565b9050600060405162000777906200188e565b604051809103906000f08015801562000794573d6000803e3d6000fd5b509050600081905080600e600085815260200190815260200160002060006101000a81548173ffffffffffffffffffffffffffffffffffffffff021916908373ffffffffffffffffffffffffffffffffffffffff16021790555033600f600085815260200190815260200160002060006101000a81548173ffffffffffffffffffffffffffffffffffffffff021916908373ffffffffffffffffffffffffffffffffffffffff1602179055506200084c60096200171c565b80839550955050505060017f8e94fed44239eb2314ab7a406345e6c5a8f0ccedf3b600de3d004e672c33abf455509091565b6200088862001732565b620008946000620017c2565b565b60007f8e94fed44239eb2314ab7a406345e6c5a8f0ccedf3b600de3d004e672c33abf454905060018114620008ca57600080fd5b60027f8e94fed44239eb2314ab7a406345e6c5a8f0ccedf3b600de3d004e672c33abf4556000600e600086815260200190815260200160002060009054906101000a900473ffffffffffffffffffffffffffffffffffffffff1690508073ffffffffffffffffffffffffffffffffffffffff1663d6837cfa6040518163ffffffff1660e01b8152600401602060405180830381865afa15801562000972573d6000803e3d6000fd5b505050506040513d601f19601f8201168201806040525081019062000998919062001f36565b620009da576040517f08c379a0000000000000000000000000000000000000000000000000000000008152600401620009d19062001fde565b60405180910390fd5b6000620009e860086200170e565b9050600460009054906101000a900473ffffffffffffffffffffffffffffffffffffffff1673ffffffffffffffffffffffffffffffffffffffff166340c10f1988836040518363ffffffff1660e01b815260040162000a4992919062001bde565b600060405180830381600087803b15801562000a6457600080fd5b505af115801562000a79573d6000803e3d6000fd5b5050505060006040518060800160405280838152602001600e60008a815260200190815260200160002060009054906101000a900473ffffffffffffffffffffffffffffffffffffffff1673ffffffffffffffffffffffffffffffffffffffff16815260200186815260200187815250905080601160008a73ffffffffffffffffffffffffffffffffffffffff1673ffffffffffffffffffffffffffffffffffffffff16815260200190815260200160002060008481526020019081526020016000206000820151816000015560208201518160010160006101000a81548173ffffffffffffffffffffffffffffffffffffffff021916908373ffffffffffffffffffffffffffffffffffffffff160217905550604082015181600201556060820151816003015590505050505060017f8e94fed44239eb2314ab7a406345e6c5a8f0ccedf3b600de3d004e672c33abf4555050505050565b600f6020528060005260406000206000915054906101000a900473ffffffffffffffffffffffffffffffffffffffff1681565b60008060009054906101000a900473ffffffffffffffffffffffffffffffffffffffff16905090565b60106020528060005260406000206000915054906101000a900473ffffffffffffffffffffffffffffffffffffffff1681565b600080600660009054906101000a900473ffffffffffffffffffffffffffffffffffffffff1673ffffffffffffffffffffffffffffffffffffffff1663e0c862896040518163ffffffff1660e01b81526004016020604051808303816000875af115801562000cd4573d6000803e3d6000fd5b505050506040513d601f19601f8201168201806040525081019062000cfa919062002017565b905082600660009054906101000a900473ffffffffffffffffffffffffffffffffffffffff1673ffffffffffffffffffffffffffffffffffffffff1663d1f22eef836040518263ffffffff1660e01b815260040162000d5a919062001caf565b602060405180830381865afa15801562000d78573d6000803e3d6000fd5b505050506040513d601f19601f8201168201806040525081019062000d9e919062002017565b62000daa919062002078565b915050919050565b600e6020528060005260406000206000915054906101000a900473ffffffffffffffffffffffffffffffffffffffff1681565b60008060007f8e94fed44239eb2314ab7a406345e6c5a8f0ccedf3b600de3d004e672c33abf45490506001811462000e1c57600080fd5b60027f8e94fed44239eb2314ab7a406345e6c5a8f0ccedf3b600de3d004e672c33abf455600073ffffffffffffffffffffffffffffffffffffffff168573ffffffffffffffffffffffffffffffffffffffff160362000eb2576040517f08c379a000000000000000000000000000000000000000000000000000000000815260040162000ea99062001de1565b60405180910390fd5b6000600260009054906101000a900473ffffffffffffffffffffffffffffffffffffffff1673ffffffffffffffffffffffffffffffffffffffff1663d0def52187896040518363ffffffff1660e01b815260040162000f1392919062002128565b6020604051808303816000875af115801562000f33573d6000803e3d6000fd5b505050506040513d601f19601f8201168201806040525081019062000f59919062002017565b90506000600360009054906101000a900473ffffffffffffffffffffffffffffffffffffffff1673ffffffffffffffffffffffffffffffffffffffff1663da7323b3600b60009054906101000a900473ffffffffffffffffffffffffffffffffffffffff1688600a60009054906101000a900473ffffffffffffffffffffffffffffffffffffffff16866127106040518663ffffffff1660e01b815260040162001008959493929190620021a9565b6020604051808303816000875af115801562001028573d6000803e3d6000fd5b505050506040513d601f19601f820116820180604052508101906200104e919062001ec7565b905060006200105e60076200170e565b9050816010600083815260200190815260200160002060006101000a81548173ffffffffffffffffffffffffffffffffffffffff021916908373ffffffffffffffffffffffffffffffffffffffff160217905550620010be60076200171c565b81839550955050505060017f8e94fed44239eb2314ab7a406345e6c5a8f0ccedf3b600de3d004e672c33abf45550935093915050565b620010fe62001732565b600073ffffffffffffffffffffffffffffffffffffffff168173ffffffffffffffffffffffffffffffffffffffff1603620011735760006040517f1e4fbdf70000000000000000000000000000000000000000000000000000000081526004016200116a9190620019d3565b60405180910390fd5b6200117e81620017c2565b50565b3373ffffffffffffffffffffffffffffffffffffffff16600f600085815260200190815260200160002060009054906101000a900473ffffffffffffffffffffffffffffffffffffffff1673ffffffffffffffffffffffffffffffffffffffff161462001225576040517f08c379a00000000000000000000000000000000000000000000000000000000081526004016200121c9062002291565b60405180910390fd5b6000600e600085815260200190815260200160002060009054906101000a900473ffffffffffffffffffffffffffffffffffffffff16905060008190508073ffffffffffffffffffffffffffffffffffffffff166398041ea385856040518363ffffffff1660e01b81526004016200129f92919062001bde565b600060405180830381600087803b158015620012ba57600080fd5b505af1158015620012cf573d6000803e3d6000fd5b505050505050505050565b60007f8e94fed44239eb2314ab7a406345e6c5a8f0ccedf3b600de3d004e672c33abf4549050600181146200130e57600080fd5b60027f8e94fed44239eb2314ab7a406345e6c5a8f0ccedf3b600de3d004e672c33abf4556000601160008573ffffffffffffffffffffffffffffffffffffffff1673ffffffffffffffffffffffffffffffffffffffff168152602001908152602001600020600084815260200190815260200160002060010160009054906101000a900473ffffffffffffffffffffffffffffffffffffffff1690506000601160008673ffffffffffffffffffffffffffffffffffffffff1673ffffffffffffffffffffffffffffffffffffffff16815260200190815260200160002060008581526020019081526020016000206002015490506000601160008773ffffffffffffffffffffffffffffffffffffffff1673ffffffffffffffffffffffffffffffffffffffff1681526020019081526020016000206000868152602001908152602001600020600301549050600073ffffffffffffffffffffffffffffffffffffffff168373ffffffffffffffffffffffffffffffffffffffff1603620014cc576040517f08c379a0000000000000000000000000000000000000000000000000000000008152600401620014c39062002329565b60405180910390fd5b4282101562001512576040517f08c379a00000000000000000000000000000000000000000000000000000000081526004016200150990620023c1565b60405180910390fd5b6001811462001558576040517f08c379a00000000000000000000000000000000000000000000000000000000081526004016200154f9062002459565b60405180910390fd5b6060806000600560009054906101000a900473ffffffffffffffffffffffffffffffffffffffff1673ffffffffffffffffffffffffffffffffffffffff166360104e116040518163ffffffff1660e01b8152600401600060405180830381865afa158015620015cb573d6000803e3d6000fd5b505050506040513d6000823e3d601f19601f82011682018060405250810190620015f691906200262c565b80935081945082955050505060005b8351811015620016dd57600082848381518110620016285762001627620026c6565b5b60200260200101518d6200163d919062002724565b6200164991906200276f565b90506000858381518110620016635762001662620026c6565b5b60200260200101519050818d6200167b9190620027a7565b9c508073ffffffffffffffffffffffffffffffffffffffff166108fc839081150290604051600060405180830381858888f19350505050158015620016c4573d6000803e3d6000fd5b5050508080620016d490620027e2565b91505062001605565b5050505050505060017f8e94fed44239eb2314ab7a406345e6c5a8f0ccedf3b600de3d004e672c33abf45550505050565b600081600001549050919050565b6001816000016000828254019250508190555050565b6200173c62001886565b73ffffffffffffffffffffffffffffffffffffffff166200175c62000c05565b73ffffffffffffffffffffffffffffffffffffffff1614620017c0576200178262001886565b6040517f118cdaa7000000000000000000000000000000000000000000000000000000008152600401620017b79190620019d3565b60405180910390fd5b565b60008060009054906101000a900473ffffffffffffffffffffffffffffffffffffffff169050816000806101000a81548173ffffffffffffffffffffffffffffffffffffffff021916908373ffffffffffffffffffffffffffffffffffffffff1602179055508173ffffffffffffffffffffffffffffffffffffffff168173ffffffffffffffffffffffffffffffffffffffff167f8be0079c531659141344cd1fd0a4f28419497f9722a3daafe3b4186f6b6457e060405160405180910390a35050565b600033905090565b611566806200283083390190565b6000604051905090565b600080fd5b600080fd5b600073ffffffffffffffffffffffffffffffffffffffff82169050919050565b6000620018dd82620018b0565b9050919050565b620018ef81620018d0565b8114620018fb57600080fd5b50565b6000813590506200190f81620018e4565b92915050565b6000819050919050565b6200192a8162001915565b81146200193657600080fd5b50565b6000813590506200194a816200191f565b92915050565b600080600080608085870312156200196d576200196c620018a6565b5b60006200197d87828801620018fe565b94505060206200199087828801620018fe565b9350506040620019a38782880162001939565b9250506060620019b68782880162001939565b91505092959194509250565b620019cd81620018d0565b82525050565b6000602082019050620019ea6000830184620019c2565b92915050565b600080fd5b600080fd5b6000601f19601f8301169050919050565b7f4e487b7100000000000000000000000000000000000000000000000000000000600052604160045260246000fd5b62001a4582620019fa565b810181811067ffffffffffffffff8211171562001a675762001a6662001a0b565b5b80604052505050565b600062001a7c6200189c565b905062001a8a828262001a3a565b919050565b600067ffffffffffffffff82111562001aad5762001aac62001a0b565b5b62001ab882620019fa565b9050602081019050919050565b82818337600083830152505050565b600062001aeb62001ae58462001a8f565b62001a70565b90508281526020810184848401111562001b0a5762001b09620019f5565b5b62001b1784828562001ac5565b509392505050565b600082601f83011262001b375762001b36620019f0565b5b813562001b4984826020860162001ad4565b91505092915050565b60008060006060848603121562001b6e5762001b6d620018a6565b5b600084013567ffffffffffffffff81111562001b8f5762001b8e620018ab565b5b62001b9d8682870162001b1f565b935050602062001bb086828701620018fe565b925050604062001bc38682870162001939565b9150509250925092565b62001bd88162001915565b82525050565b600060408201905062001bf56000830185620019c2565b62001c04602083018462001bcd565b9392505050565b6000806000806080858703121562001c285762001c27620018a6565b5b600062001c3887828801620018fe565b945050602062001c4b8782880162001939565b935050604062001c5e8782880162001939565b925050606062001c718782880162001939565b91505092959194509250565b60006020828403121562001c965762001c95620018a6565b5b600062001ca68482850162001939565b91505092915050565b600060208201905062001cc6600083018462001bcd565b92915050565b60006020828403121562001ce55762001ce4620018a6565b5b600062001cf584828501620018fe565b91505092915050565b60008060006060848603121562001d1a5762001d19620018a6565b5b600062001d2a8682870162001939565b935050602062001d3d86828701620018fe565b925050604062001d508682870162001939565b9150509250925092565b600082825260208201905092915050565b7f4d696e74206572726f723a2064657374696e6174696f6e20616464726573732060008201527f63616e2774206265207a65726f2e000000000000000000000000000000000000602082015250565b600062001dc9602e8362001d5a565b915062001dd68262001d6b565b604082019050919050565b6000602082019050818103600083015262001dfc8162001dba565b9050919050565b600082825260208201905092915050565b50565b600062001e2660008362001e03565b915062001e338262001e14565b600082019050919050565b600060c08201905062001e556000830188620019c2565b62001e64602083018762001bcd565b62001e736040830186620019c2565b62001e82606083018562001bcd565b62001e91608083018462001bcd565b81810360a083015262001ea48162001e17565b90509695505050505050565b60008151905062001ec181620018e4565b92915050565b60006020828403121562001ee05762001edf620018a6565b5b600062001ef08482850162001eb0565b91505092915050565b60008115159050919050565b62001f108162001ef9565b811462001f1c57600080fd5b50565b60008151905062001f308162001f05565b92915050565b60006020828403121562001f4f5762001f4e620018a6565b5b600062001f5f8482850162001f1f565b91505092915050565b7f4772616e74204572726f723a204d656d626572206e756d206861736e2774207260008201527f6561636820746865206d696e2e00000000000000000000000000000000000000602082015250565b600062001fc6602d8362001d5a565b915062001fd38262001f68565b604082019050919050565b6000602082019050818103600083015262001ff98162001fb7565b9050919050565b60008151905062002011816200191f565b92915050565b60006020828403121562002030576200202f620018a6565b5b6000620020408482850162002000565b91505092915050565b7f4e487b7100000000000000000000000000000000000000000000000000000000600052601260045260246000fd5b6000620020858262001915565b9150620020928362001915565b925082620020a557620020a462002049565b5b828206905092915050565b600081519050919050565b60005b83811015620020db578082015181840152602081019050620020be565b60008484015250505050565b6000620020f482620020b0565b62002100818562001d5a565b935062002112818560208601620020bb565b6200211d81620019fa565b840191505092915050565b60006040820190506200213f6000830185620019c2565b8181036020830152620021538184620020e7565b90509392505050565b6000819050919050565b6000819050919050565b6000620021916200218b62002185846200215c565b62002166565b62001915565b9050919050565b620021a38162002170565b82525050565b600060c082019050620021c06000830188620019c2565b620021cf602083018762001bcd565b620021de6040830186620019c2565b620021ed606083018562001bcd565b620021fc608083018462002198565b81810360a08301526200220f8162001e17565b90509695505050505050565b7f4572726f723a204f6e6c7920756e696f6e2063726561746f722063616e20616460008201527f64206d656d62657220746f20756e696f6e2e0000000000000000000000000000602082015250565b60006200227960328362001d5a565b915062002286826200221b565b604082019050919050565b60006020820190508181036000830152620022ac816200226a565b9050919050565b7f4469766964656e64204572726f723a205468697320746f6b656e206861736e2760008201527f7420626520626f72726f776564207965742e0000000000000000000000000000602082015250565b60006200231160328362001d5a565b91506200231e82620022b3565b604082019050919050565b60006020820190508181036000830152620023448162002302565b9050919050565b7f4469766964656e64204572726f723a204974277320616c72656164792065786360008201527f65656420746865206469766964656e6420706572696f642e0000000000000000602082015250565b6000620023a960388362001d5a565b9150620023b6826200234b565b604082019050919050565b60006020820190508181036000830152620023dc816200239a565b9050919050565b7f4469766964656e64204572726f723a20546f6b656e2074797065206572726f7260008201527f2e00000000000000000000000000000000000000000000000000000000000000602082015250565b60006200244160218362001d5a565b91506200244e82620023e3565b604082019050919050565b60006020820190508181036000830152620024748162002432565b9050919050565b600067ffffffffffffffff82111562002499576200249862001a0b565b5b602082029050602081019050919050565b600080fd5b6000620024c6620024c0846200247b565b62001a70565b90508083825260208201905060208402830185811115620024ec57620024eb620024aa565b5b835b8181101562002519578062002504888262001eb0565b845260208401935050602081019050620024ee565b5050509392505050565b600082601f8301126200253b576200253a620019f0565b5b81516200254d848260208601620024af565b91505092915050565b600067ffffffffffffffff82111562002574576200257362001a0b565b5b602082029050602081019050919050565b60006200259c620025968462002556565b62001a70565b90508083825260208201905060208402830185811115620025c257620025c1620024aa565b5b835b81811015620025ef5780620025da888262002000565b845260208401935050602081019050620025c4565b5050509392505050565b600082601f830112620026115762002610620019f0565b5b81516200262384826020860162002585565b91505092915050565b600080600060608486031215620026485762002647620018a6565b5b600084015167ffffffffffffffff811115620026695762002668620018ab565b5b620026778682870162002523565b935050602084015167ffffffffffffffff8111156200269b576200269a620018ab565b5b620026a986828701620025f9565b9250506040620026bc8682870162002000565b9150509250925092565b7f4e487b7100000000000000000000000000000000000000000000000000000000600052603260045260246000fd5b7f4e487b7100000000000000000000000000000000000000000000000000000000600052601160045260246000fd5b6000620027318262001915565b91506200273e8362001915565b92508282026200274e8162001915565b91508282048414831517620027685762002767620026f5565b5b5092915050565b60006200277c8262001915565b9150620027898362001915565b9250826200279c576200279b62002049565b5b828204905092915050565b6000620027b48262001915565b9150620027c18362001915565b9250828203905081811115620027dc57620027db620026f5565b5b92915050565b6000620027ef8262001915565b91507fffffffffffffffffffffffffffffffffffffffffffffffffffffffffffffffff8203620028245762002823620026f5565b5b60018201905091905056fe60806040523480156200001157600080fd5b5033600073ffffffffffffffffffffffffffffffffffffffff168173ffffffffffffffffffffffffffffffffffffffff1603620000885760006040517f1e4fbdf70000000000000000000000000000000000000000000000000000000081526004016200007f9190620001db565b60405180910390fd5b6200009981620000d260201b60201c565b5060018081905550600160028190555062278d0060038190555060035460048190555060326005819055506000600681905550620001f8565b60008060009054906101000a900473ffffffffffffffffffffffffffffffffffffffff169050816000806101000a81548173ffffffffffffffffffffffffffffffffffffffff021916908373ffffffffffffffffffffffffffffffffffffffff1602179055508173ffffffffffffffffffffffffffffffffffffffff168173ffffffffffffffffffffffffffffffffffffffff167f8be0079c531659141344cd1fd0a4f28419497f9722a3daafe3b4186f6b6457e060405160405180910390a35050565b600073ffffffffffffffffffffffffffffffffffffffff82169050919050565b6000620001c38262000196565b9050919050565b620001d581620001b6565b82525050565b6000602082019050620001f26000830184620001ca565b92915050565b61135e80620002086000396000f3fe608060405234801561001057600080fd5b50600436106100f55760003560e01c80639183563511610097578063d6837cfa11610066578063d6837cfa14610256578063d784039014610274578063f2fde38b14610292578063fd2c80ae146102ae576100f5565b806391835635146101ce57806396c82e57146101ec57806398041ea31461020a578063c225fc3814610226576100f5565b806360104e11116100d357806360104e1114610168578063715018a61461018857806377ee311c146101925780638da5cb5b146101b0576100f5565b806311ffb1d4146100fa5780632b114a7c146101165780635daf08ca14610134575b600080fd5b610114600480360381019061010f9190610d4e565b6102cc565b005b61011e610508565b60405161012b9190610d94565b60405180910390f35b61014e60048036038101906101499190610ddb565b61050e565b60405161015f959493929190610e32565b60405180910390f35b610170610571565b60405161017f93929190611001565b60405180910390f35b6101906106f9565b005b61019a61070d565b6040516101a79190610d94565b60405180910390f35b6101b8610713565b6040516101c59190611046565b60405180910390f35b6101d661073c565b6040516101e39190610d94565b60405180910390f35b6101f4610742565b6040516102019190610d94565b60405180910390f35b610224600480360381019061021f9190611061565b610748565b005b610240600480360381019061023b9190610d4e565b610adf565b60405161024d9190610d94565b60405180910390f35b61025e610af7565b60405161026b91906110a1565b60405180910390f35b61027c610b06565b6040516102899190610d94565b60405180910390f35b6102ac60048036038101906102a79190610d4e565b610b0c565b005b6102b6610b92565b6040516102c39190610d94565b60405180910390f35b6000600760008373ffffffffffffffffffffffffffffffffffffffff1673ffffffffffffffffffffffffffffffffffffffff168152602001908152602001600020540361034e576040517f08c379a00000000000000000000000000000000000000000000000000000000081526004016103459061113f565b60405180910390fd5b6001151560086000600760008573ffffffffffffffffffffffffffffffffffffffff1673ffffffffffffffffffffffffffffffffffffffff16815260200190815260200160002054815260200190815260200160002060040160009054906101000a900460ff161515146103f7576040517f08c379a00000000000000000000000000000000000000000000000000000000081526004016103ee906111d1565b60405180910390fd5b6000600760008373ffffffffffffffffffffffffffffffffffffffff1673ffffffffffffffffffffffffffffffffffffffff16815260200190815260200160002054905060006008600083815260200190815260200160002060040160006101000a81548160ff021916908315150217905550600060086000838152602001908152602001600020600201819055506008600082815260200190815260200160002060020154600560008282546104ae9190611220565b92505081905550600660008154809291906104c890611254565b91905055507f7f30101efeb9f48c5bf25a6134d53fd138e0bf50b988895f1eeb8c48ffcb3850816040516104fc9190610d94565b60405180910390a15050565b60025481565b60086020528060005260406000206000915090508060000154908060010160009054906101000a900473ffffffffffffffffffffffffffffffffffffffff16908060020154908060030154908060040160009054906101000a900460ff16905085565b6060806000606080600080600190505b6001548110156106e5576000600860008381526020019081526020016000206040518060a0016040529081600082015481526020016001820160009054906101000a900473ffffffffffffffffffffffffffffffffffffffff1673ffffffffffffffffffffffffffffffffffffffff1673ffffffffffffffffffffffffffffffffffffffff16815260200160028201548152602001600382015481526020016004820160009054906101000a900460ff16151515158152505090506001151581608001511515036106d15780602001518584815181106106645761066361127d565b5b602002602001019073ffffffffffffffffffffffffffffffffffffffff16908173ffffffffffffffffffffffffffffffffffffffff168152505080604001518484815181106106b6576106b561127d565b5b60200260200101818152505082806106cd906112ac565b9350505b5080806106dd906112ac565b915050610581565b508282600554955095509550505050909192565b610701610b98565b61070b6000610c1f565b565b60065481565b60008060009054906101000a900473ffffffffffffffffffffffffffffffffffffffff16905090565b60015481565b60055481565b6000600760008473ffffffffffffffffffffffffffffffffffffffff1673ffffffffffffffffffffffffffffffffffffffff16815260200190815260200160002054036108f95760006040518060a0016040528060015481526020018473ffffffffffffffffffffffffffffffffffffffff1681526020018381526020014281526020016001151581525090508060086000600160008154809291906107ed906112ac565b9190505581526020019081526020016000206000820151816000015560208201518160010160006101000a81548173ffffffffffffffffffffffffffffffffffffffff021916908373ffffffffffffffffffffffffffffffffffffffff160217905550604082015181600201556060820151816003015560808201518160040160006101000a81548160ff021916908315150217905550905050816005600082825461089991906112f4565b92505081905550600660008154809291906108b3906112ac565b91905055507f09e580067364e0adc299225f38be0aaa3a9c033588d7ab7c207cf21a1348e71381600001516040516108eb9190610d94565b60405180910390a150610adb565b6000151560086000600760008673ffffffffffffffffffffffffffffffffffffffff1673ffffffffffffffffffffffffffffffffffffffff16815260200190815260200160002054815260200190815260200160002060040160009054906101000a900460ff16151503610a63576000600760008473ffffffffffffffffffffffffffffffffffffffff1673ffffffffffffffffffffffffffffffffffffffff16815260200190815260200160002054905060016008600083815260200190815260200160002060040160006101000a81548160ff0219169083151502179055508160086000838152602001908152602001600020600201819055508160056000828254610a0791906112f4565b9250508190555060066000815480929190610a21906112ac565b91905055507f09e580067364e0adc299225f38be0aaa3a9c033588d7ab7c207cf21a1348e71381604051610a559190610d94565b60405180910390a150610ada565b7f0427bff834b168a7a441a499996c82bf572e949afd16478fa174a3dfeb86fbe4600760008473ffffffffffffffffffffffffffffffffffffffff1673ffffffffffffffffffffffffffffffffffffffff16815260200190815260200160002054604051610ad19190610d94565b60405180910390a15b5b5050565b60076020528060005260406000206000915090505481565b60006002546006541015905090565b60045481565b610b14610b98565b600073ffffffffffffffffffffffffffffffffffffffff168173ffffffffffffffffffffffffffffffffffffffff1603610b865760006040517f1e4fbdf7000000000000000000000000000000000000000000000000000000008152600401610b7d9190611046565b60405180910390fd5b610b8f81610c1f565b50565b60035481565b610ba0610ce3565b73ffffffffffffffffffffffffffffffffffffffff16610bbe610713565b73ffffffffffffffffffffffffffffffffffffffff1614610c1d57610be1610ce3565b6040517f118cdaa7000000000000000000000000000000000000000000000000000000008152600401610c149190611046565b60405180910390fd5b565b60008060009054906101000a900473ffffffffffffffffffffffffffffffffffffffff169050816000806101000a81548173ffffffffffffffffffffffffffffffffffffffff021916908373ffffffffffffffffffffffffffffffffffffffff1602179055508173ffffffffffffffffffffffffffffffffffffffff168173ffffffffffffffffffffffffffffffffffffffff167f8be0079c531659141344cd1fd0a4f28419497f9722a3daafe3b4186f6b6457e060405160405180910390a35050565b600033905090565b600080fd5b600073ffffffffffffffffffffffffffffffffffffffff82169050919050565b6000610d1b82610cf0565b9050919050565b610d2b81610d10565b8114610d3657600080fd5b50565b600081359050610d4881610d22565b92915050565b600060208284031215610d6457610d63610ceb565b5b6000610d7284828501610d39565b91505092915050565b6000819050919050565b610d8e81610d7b565b82525050565b6000602082019050610da96000830184610d85565b92915050565b610db881610d7b565b8114610dc357600080fd5b50565b600081359050610dd581610daf565b92915050565b600060208284031215610df157610df0610ceb565b5b6000610dff84828501610dc6565b91505092915050565b610e1181610d10565b82525050565b60008115159050919050565b610e2c81610e17565b82525050565b600060a082019050610e476000830188610d85565b610e546020830187610e08565b610e616040830186610d85565b610e6e6060830185610d85565b610e7b6080830184610e23565b9695505050505050565b600081519050919050565b600082825260208201905092915050565b6000819050602082019050919050565b610eba81610d10565b82525050565b6000610ecc8383610eb1565b60208301905092915050565b6000602082019050919050565b6000610ef082610e85565b610efa8185610e90565b9350610f0583610ea1565b8060005b83811015610f36578151610f1d8882610ec0565b9750610f2883610ed8565b925050600181019050610f09565b5085935050505092915050565b600081519050919050565b600082825260208201905092915050565b6000819050602082019050919050565b610f7881610d7b565b82525050565b6000610f8a8383610f6f565b60208301905092915050565b6000602082019050919050565b6000610fae82610f43565b610fb88185610f4e565b9350610fc383610f5f565b8060005b83811015610ff4578151610fdb8882610f7e565b9750610fe683610f96565b925050600181019050610fc7565b5085935050505092915050565b6000606082019050818103600083015261101b8186610ee5565b9050818103602083015261102f8185610fa3565b905061103e6040830184610d85565b949350505050565b600060208201905061105b6000830184610e08565b92915050565b6000806040838503121561107857611077610ceb565b5b600061108685828601610d39565b925050602061109785828601610dc6565b9150509250929050565b60006020820190506110b66000830184610e23565b92915050565b600082825260208201905092915050565b7f44656c6574654d656d626572204661696c65643a20546869732061646472657360008201527f73206973206e6f742061206d656d6265722e0000000000000000000000000000602082015250565b60006111296032836110bc565b9150611134826110cd565b604082019050919050565b600060208201905081810360008301526111588161111c565b9050919050565b7f44656c6574654d656d626572204661696c65643a20546869732061646472657360008201527f73206973206e6f74206163746976652e00000000000000000000000000000000602082015250565b60006111bb6030836110bc565b91506111c68261115f565b604082019050919050565b600060208201905081810360008301526111ea816111ae565b9050919050565b7f4e487b7100000000000000000000000000000000000000000000000000000000600052601160045260246000fd5b600061122b82610d7b565b915061123683610d7b565b925082820390508181111561124e5761124d6111f1565b5b92915050565b600061125f82610d7b565b915060008203611272576112716111f1565b5b600182039050919050565b7f4e487b7100000000000000000000000000000000000000000000000000000000600052603260045260246000fd5b60006112b782610d7b565b91507fffffffffffffffffffffffffffffffffffffffffffffffffffffffffffffffff82036112e9576112e86111f1565b5b600182019050919050565b60006112ff82610d7b565b915061130a83610d7b565b9250828201905080821115611322576113216111f1565b5b9291505056fea26469706673582212208e7de6c3637fe93fdf466119c72d7d8ab5747abd00399fc55d4c92c5f502130b64736f6c63430008140033a264697066735822122052c50f47561a5ee3adeb4b2a0c328573c8c1dc2082c0bc09dc6c1fc52073ccc064736f6c63430008140033",
  "linkReferences": {},
  "deployedLinkReferences": {}
}