{
  "_format": "hh-sol-artifact-1",
  "contractName": "SonarMeta",
  "sourceName": "contracts/SonarMeta.sol",
  "abi": [
    {
      "inputs": [
        {
          "internalType": "address",
          "name": "_ipNFTAddr",
          "type": "address"
        },
        {
          "internalType": "address",
          "name": "_erc6551AccountImplAddr",
          "type": "address"
        },
        {
          "internalType": "address",
          "name": "_ipAccountRegistryAddr",
          "type": "address"
        },
        {
          "internalType": "address",
          "name": "_erc4907ImplAddr",
          "type": "address"
        },
        {
          "internalType": "address",
          "name": "_unionImpAddr",
          "type": "address"
        }
      ],
      "stateMutability": "nonpayable",
      "type": "constructor"
    },
    {
      "inputs": [
        {
          "internalType": "address",
          "name": "owner",
          "type": "address"
        }
      ],
      "name": "OwnableInvalidOwner",
      "type": "error"
    },
    {
      "inputs": [
        {
          "internalType": "address",
          "name": "account",
          "type": "address"
        }
      ],
      "name": "OwnableUnauthorizedAccount",
      "type": "error"
    },
    {
      "anonymous": false,
      "inputs": [
        {
          "indexed": true,
          "internalType": "address",
          "name": "previousOwner",
          "type": "address"
        },
        {
          "indexed": true,
          "internalType": "address",
          "name": "newOwner",
          "type": "address"
        }
      ],
      "name": "OwnershipTransferred",
      "type": "event"
    },
    {
      "inputs": [
        {
          "internalType": "address",
          "name": "_tokenContract",
          "type": "address"
        },
        {
          "internalType": "address",
          "name": "_ipOwnerAddr",
          "type": "address"
        },
        {
          "internalType": "uint256",
          "name": "_chainId",
          "type": "uint256"
        },
        {
          "internalType": "uint256",
          "name": "_tokenId",
          "type": "uint256"
        }
      ],
      "name": "createIPFromExistNFT",
      "outputs": [
        {
          "internalType": "address",
          "name": "",
          "type": "address"
        }
      ],
      "stateMutability": "nonpayable",
      "type": "function"
    },
    {
      "inputs": [
        {
          "internalType": "string",
          "name": "_uri",
          "type": "string"
        },
        {
          "internalType": "address",
          "name": "_ipOwnerAddr",
          "type": "address"
        },
        {
          "internalType": "uint256",
          "name": "_chainId",
          "type": "uint256"
        }
      ],
      "name": "createNewIP",
      "outputs": [
        {
          "internalType": "address",
          "name": "",
          "type": "address"
        }
      ],
      "stateMutability": "nonpayable",
      "type": "function"
    },
    {
      "inputs": [
        {
          "internalType": "uint256",
          "name": "_amount",
          "type": "uint256"
        },
        {
          "internalType": "address",
          "name": "_accountAddr",
          "type": "address"
        },
        {
          "internalType": "uint256",
          "name": "_tokenId",
          "type": "uint256"
        }
      ],
      "name": "dividendToUnion",
      "outputs": [],
      "stateMutability": "payable",
      "type": "function"
    },
    {
      "inputs": [
        {
          "internalType": "uint256",
          "name": "",
          "type": "uint256"
        }
      ],
      "name": "erc6551Acccounts",
      "outputs": [
        {
          "internalType": "address",
          "name": "",
          "type": "address"
        }
      ],
      "stateMutability": "view",
      "type": "function"
    },
    {
      "inputs": [
        {
          "internalType": "address",
          "name": "_accountAddr",
          "type": "address"
        },
        {
          "internalType": "address",
          "name": "_unionAddr",
          "type": "address"
        },
        {
          "internalType": "uint256",
          "name": "_tokenId",
          "type": "uint256"
        },
        {
          "internalType": "uint256",
          "name": "_expires",
          "type": "uint256"
        }
      ],
      "name": "grantToUnion",
      "outputs": [],
      "stateMutability": "nonpayable",
      "type": "function"
    },
    {
      "inputs": [
        {
          "internalType": "address",
          "name": "_accountAddr",
          "type": "address"
        },
        {
          "internalType": "uint256",
          "name": "_tokenType",
          "type": "uint256"
        }
      ],
      "name": "mint4907Token",
      "outputs": [],
      "stateMutability": "nonpayable",
      "type": "function"
    },
    {
      "inputs": [],
      "name": "owner",
      "outputs": [
        {
          "internalType": "address",
          "name": "",
          "type": "address"
        }
      ],
      "stateMutability": "view",
      "type": "function"
    },
    {
      "inputs": [
        {
          "internalType": "string",
          "name": "_newIPURI",
          "type": "string"
        },
        {
          "internalType": "address",
          "name": "_ip6551AccountAddr",
          "type": "address"
        },
        {
          "internalType": "uint256",
          "name": "_chainId",
          "type": "uint256"
        }
      ],
      "name": "recreate",
      "outputs": [
        {
          "internalType": "address",
          "name": "",
          "type": "address"
        }
      ],
      "stateMutability": "nonpayable",
      "type": "function"
    },
    {
      "inputs": [],
      "name": "renounceOwnership",
      "outputs": [],
      "stateMutability": "nonpayable",
      "type": "function"
    },
    {
      "inputs": [
        {
          "internalType": "address",
          "name": "newOwner",
          "type": "address"
        }
      ],
      "name": "transferOwnership",
      "outputs": [],
      "stateMutability": "nonpayable",
      "type": "function"
    }
  ],
  "bytecode": "0x6101006040523480156200001257600080fd5b50604051620027a7380380620027a78339818101604052810190620000389190620004e1565b33600073ffffffffffffffffffffffffffffffffffffffff168173ffffffffffffffffffffffffffffffffffffffff1603620000ae5760006040517f1e4fbdf7000000000000000000000000000000000000000000000000000000008152600401620000a591906200057a565b60405180910390fd5b620000bf81620002f760201b60201c565b50620000d0620003bb60201b60201c565b620000e06200044e60201b60201c565b600160006101000a81548173ffffffffffffffffffffffffffffffffffffffff021916908373ffffffffffffffffffffffffffffffffffffffff16021790555084600260006101000a81548173ffffffffffffffffffffffffffffffffffffffff021916908373ffffffffffffffffffffffffffffffffffffffff16021790555082600360006101000a81548173ffffffffffffffffffffffffffffffffffffffff021916908373ffffffffffffffffffffffffffffffffffffffff16021790555083600960006101000a81548173ffffffffffffffffffffffffffffffffffffffff021916908373ffffffffffffffffffffffffffffffffffffffff16021790555081600460006101000a81548173ffffffffffffffffffffffffffffffffffffffff021916908373ffffffffffffffffffffffffffffffffffffffff16021790555080600560006101000a81548173ffffffffffffffffffffffffffffffffffffffff021916908373ffffffffffffffffffffffffffffffffffffffff16021790555084600860006101000a81548173ffffffffffffffffffffffffffffffffffffffff021916908373ffffffffffffffffffffffffffffffffffffffff16021790555060326080818152505062278d006006620002c19190620005d0565b60a0818152505062278d00600c620002da9190620005d0565b60c0818152505062278d0060e0818152505050505050506200069e565b60008060009054906101000a900473ffffffffffffffffffffffffffffffffffffffff169050816000806101000a81548173ffffffffffffffffffffffffffffffffffffffff021916908373ffffffffffffffffffffffffffffffffffffffff1602179055508173ffffffffffffffffffffffffffffffffffffffff168173ffffffffffffffffffffffffffffffffffffffff167f8be0079c531659141344cd1fd0a4f28419497f9722a3daafe3b4186f6b6457e060405160405180910390a35050565b60007f8e94fed44239eb2314ab7a406345e6c5a8f0ccedf3b600de3d004e672c33abf454905060017f8e94fed44239eb2314ab7a406345e6c5a8f0ccedf3b600de3d004e672c33abf455600081146200044b576040517f08c379a000000000000000000000000000000000000000000000000000000000815260040162000442906200067c565b60405180910390fd5b50565b60008060009054906101000a900473ffffffffffffffffffffffffffffffffffffffff16905090565b600080fd5b600073ffffffffffffffffffffffffffffffffffffffff82169050919050565b6000620004a9826200047c565b9050919050565b620004bb816200049c565b8114620004c757600080fd5b50565b600081519050620004db81620004b0565b92915050565b600080600080600060a086880312156200050057620004ff62000477565b5b60006200051088828901620004ca565b95505060206200052388828901620004ca565b94505060406200053688828901620004ca565b93505060606200054988828901620004ca565b92505060806200055c88828901620004ca565b9150509295509295909350565b62000574816200049c565b82525050565b600060208201905062000591600083018462000569565b92915050565b6000819050919050565b7f4e487b7100000000000000000000000000000000000000000000000000000000600052601160045260246000fd5b6000620005dd8262000597565b9150620005ea8362000597565b9250828202620005fa8162000597565b91508282048414831517620006145762000613620005a1565b5b5092915050565b600082825260208201905092915050565b7f3142000000000000000000000000000000000000000000000000000000000000600082015250565b6000620006646002836200061b565b915062000671826200062c565b602082019050919050565b60006020820190508181036000830152620006978162000655565b9050919050565b60805160a05160c05160e0516120db620006cc600039600050506000505060005050600050506120db6000f3fe6080604052600436106100915760003560e01c8063a043021e11610059578063a043021e1461017b578063e5645edc146101b8578063ec4f92e3146101e1578063f2fde38b1461021e578063ffdad1e51461024757610091565b80631d8541f01461009657806324805510146100bf578063396dbfde146100fc578063715018a6146101395780638da5cb5b14610150575b600080fd5b3480156100a257600080fd5b506100bd60048036038101906100b891906113c2565b610263565b005b3480156100cb57600080fd5b506100e660048036038101906100e19190611402565b610477565b6040516100f39190611478565b60405180910390f35b34801561010857600080fd5b50610123600480360381019061011e91906115d9565b6106d1565b6040516101309190611478565b60405180910390f35b34801561014557600080fd5b5061014e610762565b005b34801561015c57600080fd5b50610165610776565b6040516101729190611478565b60405180910390f35b34801561018757600080fd5b506101a2600480360381019061019d9190611648565b61079f565b6040516101af9190611478565b60405180910390f35b3480156101c457600080fd5b506101df60048036038101906101da9190611402565b6107d2565b005b3480156101ed57600080fd5b50610208600480360381019061020391906115d9565b6109c5565b6040516102159190611478565b60405180910390f35b34801561022a57600080fd5b5061024560048036038101906102409190611675565b610cc5565b005b610261600480360381019061025c91906116a2565b610d4b565b005b60007f8e94fed44239eb2314ab7a406345e6c5a8f0ccedf3b600de3d004e672c33abf45490506001811461029657600080fd5b60027f8e94fed44239eb2314ab7a406345e6c5a8f0ccedf3b600de3d004e672c33abf45560006102c66007611161565b9050600460009054906101000a900473ffffffffffffffffffffffffffffffffffffffff1673ffffffffffffffffffffffffffffffffffffffff166340c10f1985836040518363ffffffff1660e01b8152600401610325929190611704565b600060405180830381600087803b15801561033f57600080fd5b505af1158015610353573d6000803e3d6000fd5b5050505060006040518060800160405280838152602001600073ffffffffffffffffffffffffffffffffffffffff16815260200142815260200185815250905080600c60008773ffffffffffffffffffffffffffffffffffffffff1673ffffffffffffffffffffffffffffffffffffffff16815260200190815260200160002060008481526020019081526020016000206000820151816000015560208201518160010160006101000a81548173ffffffffffffffffffffffffffffffffffffffff021916908373ffffffffffffffffffffffffffffffffffffffff1602179055506040820151816002015560608201518160030155905050505060017f8e94fed44239eb2314ab7a406345e6c5a8f0ccedf3b600de3d004e672c33abf455505050565b6000807f8e94fed44239eb2314ab7a406345e6c5a8f0ccedf3b600de3d004e672c33abf4549050600181146104ab57600080fd5b60027f8e94fed44239eb2314ab7a406345e6c5a8f0ccedf3b600de3d004e672c33abf455600160009054906101000a900473ffffffffffffffffffffffffffffffffffffffff1673ffffffffffffffffffffffffffffffffffffffff1663f5f84ed4336040518263ffffffff1660e01b815260040161052a9190611478565b60006040518083038186803b15801561054257600080fd5b505afa158015610556573d6000803e3d6000fd5b50505050600073ffffffffffffffffffffffffffffffffffffffff168573ffffffffffffffffffffffffffffffffffffffff16036105c9576040517f08c379a00000000000000000000000000000000000000000000000000000000081526004016105c0906117b0565b60405180910390fd5b6000600360009054906101000a900473ffffffffffffffffffffffffffffffffffffffff1673ffffffffffffffffffffffffffffffffffffffff1663da7323b3600960009054906101000a900473ffffffffffffffffffffffffffffffffffffffff16878a8861063b620186a061116f565b6040518663ffffffff1660e01b815260040161065b959493929190611807565b6020604051808303816000875af115801561067a573d6000803e3d6000fd5b505050506040513d601f19601f8201168201806040525081019061069e9190611882565b90508092505060017f8e94fed44239eb2314ab7a406345e6c5a8f0ccedf3b600de3d004e672c33abf45550949350505050565b6000807f8e94fed44239eb2314ab7a406345e6c5a8f0ccedf3b600de3d004e672c33abf45490506001811461070557600080fd5b60027f8e94fed44239eb2314ab7a406345e6c5a8f0ccedf3b600de3d004e672c33abf4556107348585856109c5565b915060017f8e94fed44239eb2314ab7a406345e6c5a8f0ccedf3b600de3d004e672c33abf455509392505050565b61076a6111b1565b6107746000611238565b565b60008060009054906101000a900473ffffffffffffffffffffffffffffffffffffffff16905090565b600b6020528060005260406000206000915054906101000a900473ffffffffffffffffffffffffffffffffffffffff1681565b60007f8e94fed44239eb2314ab7a406345e6c5a8f0ccedf3b600de3d004e672c33abf45490506001811461080557600080fd5b60027f8e94fed44239eb2314ab7a406345e6c5a8f0ccedf3b600de3d004e672c33abf455600560009054906101000a900473ffffffffffffffffffffffffffffffffffffffff1673ffffffffffffffffffffffffffffffffffffffff1663d6837cfa6040518163ffffffff1660e01b8152600401602060405180830381865afa158015610896573d6000803e3d6000fd5b505050506040513d601f19601f820116820180604052508101906108ba91906118e7565b6108f9576040517f08c379a00000000000000000000000000000000000000000000000000000000081526004016108f090611986565b60405180910390fd5b6000600c60008773ffffffffffffffffffffffffffffffffffffffff1673ffffffffffffffffffffffffffffffffffffffff16815260200190815260200160002060008581526020019081526020016000209050828160020181905550848160010160006101000a81548173ffffffffffffffffffffffffffffffffffffffff021916908373ffffffffffffffffffffffffffffffffffffffff1602179055505060017f8e94fed44239eb2314ab7a406345e6c5a8f0ccedf3b600de3d004e672c33abf4555050505050565b6000807f8e94fed44239eb2314ab7a406345e6c5a8f0ccedf3b600de3d004e672c33abf4549050600181146109f957600080fd5b60027f8e94fed44239eb2314ab7a406345e6c5a8f0ccedf3b600de3d004e672c33abf455600073ffffffffffffffffffffffffffffffffffffffff168473ffffffffffffffffffffffffffffffffffffffff1603610a8c576040517f08c379a0000000000000000000000000000000000000000000000000000000008152600401610a83906117b0565b60405180910390fd5b6000600260009054906101000a900473ffffffffffffffffffffffffffffffffffffffff1673ffffffffffffffffffffffffffffffffffffffff1663d0def52186886040518363ffffffff1660e01b8152600401610aeb929190611a14565b6020604051808303816000875af1158015610b0a573d6000803e3d6000fd5b505050506040513d601f19601f82011682018060405250810190610b2e9190611a59565b90506000600360009054906101000a900473ffffffffffffffffffffffffffffffffffffffff1673ffffffffffffffffffffffffffffffffffffffff1663da7323b3600960009054906101000a900473ffffffffffffffffffffffffffffffffffffffff1687600860009054906101000a900473ffffffffffffffffffffffffffffffffffffffff1686610bc4620186a061116f565b6040518663ffffffff1660e01b8152600401610be4959493929190611807565b6020604051808303816000875af1158015610c03573d6000803e3d6000fd5b505050506040513d601f19601f82011682018060405250810190610c279190611882565b90506000610c356006611161565b905081600b600083815260200190815260200160002060006101000a81548173ffffffffffffffffffffffffffffffffffffffff021916908373ffffffffffffffffffffffffffffffffffffffff160217905550610c9360066112fc565b81945050505060017f8e94fed44239eb2314ab7a406345e6c5a8f0ccedf3b600de3d004e672c33abf455509392505050565b610ccd6111b1565b600073ffffffffffffffffffffffffffffffffffffffff168173ffffffffffffffffffffffffffffffffffffffff1603610d3f5760006040517f1e4fbdf7000000000000000000000000000000000000000000000000000000008152600401610d369190611478565b60405180910390fd5b610d4881611238565b50565b60007f8e94fed44239eb2314ab7a406345e6c5a8f0ccedf3b600de3d004e672c33abf454905060018114610d7e57600080fd5b60027f8e94fed44239eb2314ab7a406345e6c5a8f0ccedf3b600de3d004e672c33abf4556000600c60008573ffffffffffffffffffffffffffffffffffffffff1673ffffffffffffffffffffffffffffffffffffffff168152602001908152602001600020600084815260200190815260200160002060010160009054906101000a900473ffffffffffffffffffffffffffffffffffffffff1690506000600c60008673ffffffffffffffffffffffffffffffffffffffff1673ffffffffffffffffffffffffffffffffffffffff16815260200190815260200160002060008581526020019081526020016000206002015490506000600c60008773ffffffffffffffffffffffffffffffffffffffff1673ffffffffffffffffffffffffffffffffffffffff1681526020019081526020016000206000868152602001908152602001600020600301549050600073ffffffffffffffffffffffffffffffffffffffff168373ffffffffffffffffffffffffffffffffffffffff1603610f39576040517f08c379a0000000000000000000000000000000000000000000000000000000008152600401610f3090611af8565b60405180910390fd5b42821015610f7c576040517f08c379a0000000000000000000000000000000000000000000000000000000008152600401610f7390611b8a565b60405180910390fd5b60018114610fbf576040517f08c379a0000000000000000000000000000000000000000000000000000000008152600401610fb690611c1c565b60405180910390fd5b6060806000600560009054906101000a900473ffffffffffffffffffffffffffffffffffffffff1673ffffffffffffffffffffffffffffffffffffffff166360104e116040518163ffffffff1660e01b8152600401600060405180830381865afa158015611031573d6000803e3d6000fd5b505050506040513d6000823e3d601f19601f8201168201806040525081019061105a9190611dc7565b80935081945082955050505060005b83518110156111305760008284838151811061108857611087611e52565b5b60200260200101518d61109b9190611eb0565b6110a59190611f21565b905060008583815181106110bc576110bb611e52565b5b60200260200101519050818d6110d29190611f52565b9c508073ffffffffffffffffffffffffffffffffffffffff166108fc839081150290604051600060405180830381858888f1935050505015801561111a573d6000803e3d6000fd5b505050808061112890611f86565b915050611069565b5050505050505060017f8e94fed44239eb2314ab7a406345e6c5a8f0ccedf3b600de3d004e672c33abf45550505050565b600081600001549050919050565b60008142443360405160200161118793929190612037565b6040516020818303038152906040528051906020012060001c6111aa9190612074565b9050919050565b6111b9611312565b73ffffffffffffffffffffffffffffffffffffffff166111d7610776565b73ffffffffffffffffffffffffffffffffffffffff1614611236576111fa611312565b6040517f118cdaa700000000000000000000000000000000000000000000000000000000815260040161122d9190611478565b60405180910390fd5b565b60008060009054906101000a900473ffffffffffffffffffffffffffffffffffffffff169050816000806101000a81548173ffffffffffffffffffffffffffffffffffffffff021916908373ffffffffffffffffffffffffffffffffffffffff1602179055508173ffffffffffffffffffffffffffffffffffffffff168173ffffffffffffffffffffffffffffffffffffffff167f8be0079c531659141344cd1fd0a4f28419497f9722a3daafe3b4186f6b6457e060405160405180910390a35050565b6001816000016000828254019250508190555050565b600033905090565b6000604051905090565b600080fd5b600080fd5b600073ffffffffffffffffffffffffffffffffffffffff82169050919050565b60006113598261132e565b9050919050565b6113698161134e565b811461137457600080fd5b50565b60008135905061138681611360565b92915050565b6000819050919050565b61139f8161138c565b81146113aa57600080fd5b50565b6000813590506113bc81611396565b92915050565b600080604083850312156113d9576113d8611324565b5b60006113e785828601611377565b92505060206113f8858286016113ad565b9150509250929050565b6000806000806080858703121561141c5761141b611324565b5b600061142a87828801611377565b945050602061143b87828801611377565b935050604061144c878288016113ad565b925050606061145d878288016113ad565b91505092959194509250565b6114728161134e565b82525050565b600060208201905061148d6000830184611469565b92915050565b600080fd5b600080fd5b6000601f19601f8301169050919050565b7f4e487b7100000000000000000000000000000000000000000000000000000000600052604160045260246000fd5b6114e68261149d565b810181811067ffffffffffffffff82111715611505576115046114ae565b5b80604052505050565b600061151861131a565b905061152482826114dd565b919050565b600067ffffffffffffffff821115611544576115436114ae565b5b61154d8261149d565b9050602081019050919050565b82818337600083830152505050565b600061157c61157784611529565b61150e565b90508281526020810184848401111561159857611597611498565b5b6115a384828561155a565b509392505050565b600082601f8301126115c0576115bf611493565b5b81356115d0848260208601611569565b91505092915050565b6000806000606084860312156115f2576115f1611324565b5b600084013567ffffffffffffffff8111156116105761160f611329565b5b61161c868287016115ab565b935050602061162d86828701611377565b925050604061163e868287016113ad565b9150509250925092565b60006020828403121561165e5761165d611324565b5b600061166c848285016113ad565b91505092915050565b60006020828403121561168b5761168a611324565b5b600061169984828501611377565b91505092915050565b6000806000606084860312156116bb576116ba611324565b5b60006116c9868287016113ad565b93505060206116da86828701611377565b92505060406116eb868287016113ad565b9150509250925092565b6116fe8161138c565b82525050565b60006040820190506117196000830185611469565b61172660208301846116f5565b9392505050565b600082825260208201905092915050565b7f4d696e74206572726f723a2064657374696e6174696f6e20616464726573732060008201527f63616e2774206265207a65726f2e000000000000000000000000000000000000602082015250565b600061179a602e8361172d565b91506117a58261173e565b604082019050919050565b600060208201905081810360008301526117c98161178d565b9050919050565b600082825260208201905092915050565b50565b60006117f16000836117d0565b91506117fc826117e1565b600082019050919050565b600060c08201905061181c6000830188611469565b61182960208301876116f5565b6118366040830186611469565b61184360608301856116f5565b61185060808301846116f5565b81810360a0830152611861816117e4565b90509695505050505050565b60008151905061187c81611360565b92915050565b60006020828403121561189857611897611324565b5b60006118a68482850161186d565b91505092915050565b60008115159050919050565b6118c4816118af565b81146118cf57600080fd5b50565b6000815190506118e1816118bb565b92915050565b6000602082840312156118fd576118fc611324565b5b600061190b848285016118d2565b91505092915050565b7f4772616e74204572726f723a204d656d626572206e756d206861736e2774207260008201527f6561636820746865206d696e2e00000000000000000000000000000000000000602082015250565b6000611970602d8361172d565b915061197b82611914565b604082019050919050565b6000602082019050818103600083015261199f81611963565b9050919050565b600081519050919050565b60005b838110156119cf5780820151818401526020810190506119b4565b60008484015250505050565b60006119e6826119a6565b6119f0818561172d565b9350611a008185602086016119b1565b611a098161149d565b840191505092915050565b6000604082019050611a296000830185611469565b8181036020830152611a3b81846119db565b90509392505050565b600081519050611a5381611396565b92915050565b600060208284031215611a6f57611a6e611324565b5b6000611a7d84828501611a44565b91505092915050565b7f4469766964656e64204572726f723a205468697320746f6b656e206861736e2760008201527f7420626520626f72726f776564207965742e0000000000000000000000000000602082015250565b6000611ae260328361172d565b9150611aed82611a86565b604082019050919050565b60006020820190508181036000830152611b1181611ad5565b9050919050565b7f4469766964656e64204572726f723a204974277320616c72656164792065786360008201527f65656420746865206469766964656e6420706572696f642e0000000000000000602082015250565b6000611b7460388361172d565b9150611b7f82611b18565b604082019050919050565b60006020820190508181036000830152611ba381611b67565b9050919050565b7f4469766964656e64204572726f723a20546f6b656e2074797065206572726f7260008201527f2e00000000000000000000000000000000000000000000000000000000000000602082015250565b6000611c0660218361172d565b9150611c1182611baa565b604082019050919050565b60006020820190508181036000830152611c3581611bf9565b9050919050565b600067ffffffffffffffff821115611c5757611c566114ae565b5b602082029050602081019050919050565b600080fd5b6000611c80611c7b84611c3c565b61150e565b90508083825260208201905060208402830185811115611ca357611ca2611c68565b5b835b81811015611ccc5780611cb8888261186d565b845260208401935050602081019050611ca5565b5050509392505050565b600082601f830112611ceb57611cea611493565b5b8151611cfb848260208601611c6d565b91505092915050565b600067ffffffffffffffff821115611d1f57611d1e6114ae565b5b602082029050602081019050919050565b6000611d43611d3e84611d04565b61150e565b90508083825260208201905060208402830185811115611d6657611d65611c68565b5b835b81811015611d8f5780611d7b8882611a44565b845260208401935050602081019050611d68565b5050509392505050565b600082601f830112611dae57611dad611493565b5b8151611dbe848260208601611d30565b91505092915050565b600080600060608486031215611de057611ddf611324565b5b600084015167ffffffffffffffff811115611dfe57611dfd611329565b5b611e0a86828701611cd6565b935050602084015167ffffffffffffffff811115611e2b57611e2a611329565b5b611e3786828701611d99565b9250506040611e4886828701611a44565b9150509250925092565b7f4e487b7100000000000000000000000000000000000000000000000000000000600052603260045260246000fd5b7f4e487b7100000000000000000000000000000000000000000000000000000000600052601160045260246000fd5b6000611ebb8261138c565b9150611ec68361138c565b9250828202611ed48161138c565b91508282048414831517611eeb57611eea611e81565b5b5092915050565b7f4e487b7100000000000000000000000000000000000000000000000000000000600052601260045260246000fd5b6000611f2c8261138c565b9150611f378361138c565b925082611f4757611f46611ef2565b5b828204905092915050565b6000611f5d8261138c565b9150611f688361138c565b9250828203905081811115611f8057611f7f611e81565b5b92915050565b6000611f918261138c565b91507fffffffffffffffffffffffffffffffffffffffffffffffffffffffffffffffff8203611fc357611fc2611e81565b5b600182019050919050565b6000819050919050565b611fe9611fe48261138c565b611fce565b82525050565b60008160601b9050919050565b600061200782611fef565b9050919050565b600061201982611ffc565b9050919050565b61203161202c8261134e565b61200e565b82525050565b60006120438286611fd8565b6020820191506120538285611fd8565b6020820191506120638284612020565b601482019150819050949350505050565b600061207f8261138c565b915061208a8361138c565b92508261209a57612099611ef2565b5b82820690509291505056fea2646970667358221220a65695985db489ffcd057933535ac82bdd8f0c1672b46be47ff480b201a5122564736f6c63430008140033",
  "linkReferences": {},
  "deployedLinkReferences": {}
}