{
  "_format": "hh-sol-artifact-1",
  "contractName": "Union",
  "sourceName": "contracts/Union.sol",
  "abi": [
    {
      "inputs": [],
      "stateMutability": "nonpayable",
      "type": "constructor"
    },
    {
      "inputs": [
        {
          "internalType": "address",
          "name": "owner",
          "type": "address"
        }
      ],
      "name": "OwnableInvalidOwner",
      "type": "error"
    },
    {
      "inputs": [
        {
          "internalType": "address",
          "name": "account",
          "type": "address"
        }
      ],
      "name": "OwnableUnauthorizedAccount",
      "type": "error"
    },
    {
      "anonymous": false,
      "inputs": [
        {
          "indexed": true,
          "internalType": "address",
          "name": "previousOwner",
          "type": "address"
        },
        {
          "indexed": true,
          "internalType": "address",
          "name": "newOwner",
          "type": "address"
        }
      ],
      "name": "OwnershipTransferred",
      "type": "event"
    },
    {
      "anonymous": false,
      "inputs": [
        {
          "indexed": false,
          "internalType": "uint256",
          "name": "memberId",
          "type": "uint256"
        }
      ],
      "name": "addMemberExisted",
      "type": "event"
    },
    {
      "anonymous": false,
      "inputs": [
        {
          "indexed": false,
          "internalType": "uint256",
          "name": "memberId",
          "type": "uint256"
        }
      ],
      "name": "addMemberSuccess",
      "type": "event"
    },
    {
      "anonymous": false,
      "inputs": [
        {
          "indexed": false,
          "internalType": "uint256",
          "name": "memberId",
          "type": "uint256"
        }
      ],
      "name": "deleteMemberSuccess",
      "type": "event"
    },
    {
      "inputs": [],
      "name": "_nextMemberId",
      "outputs": [
        {
          "internalType": "uint256",
          "name": "",
          "type": "uint256"
        }
      ],
      "stateMutability": "view",
      "type": "function"
    },
    {
      "inputs": [
        {
          "internalType": "address",
          "name": "_memberAddr",
          "type": "address"
        },
        {
          "internalType": "uint256",
          "name": "_weight",
          "type": "uint256"
        }
      ],
      "name": "addMember",
      "outputs": [],
      "stateMutability": "nonpayable",
      "type": "function"
    },
    {
      "inputs": [],
      "name": "checkMemberNum",
      "outputs": [
        {
          "internalType": "bool",
          "name": "",
          "type": "bool"
        }
      ],
      "stateMutability": "view",
      "type": "function"
    },
    {
      "inputs": [
        {
          "internalType": "address",
          "name": "_memberAddr",
          "type": "address"
        }
      ],
      "name": "deleteMember",
      "outputs": [],
      "stateMutability": "nonpayable",
      "type": "function"
    },
    {
      "inputs": [],
      "name": "dividendInterval",
      "outputs": [
        {
          "internalType": "uint256",
          "name": "",
          "type": "uint256"
        }
      ],
      "stateMutability": "view",
      "type": "function"
    },
    {
      "inputs": [
        {
          "internalType": "address",
          "name": "",
          "type": "address"
        }
      ],
      "name": "existed",
      "outputs": [
        {
          "internalType": "uint256",
          "name": "",
          "type": "uint256"
        }
      ],
      "stateMutability": "view",
      "type": "function"
    },
    {
      "inputs": [],
      "name": "getMemberInfo",
      "outputs": [
        {
          "internalType": "address[]",
          "name": "",
          "type": "address[]"
        },
        {
          "internalType": "uint256[]",
          "name": "",
          "type": "uint256[]"
        },
        {
          "internalType": "uint256",
          "name": "",
          "type": "uint256"
        }
      ],
      "stateMutability": "view",
      "type": "function"
    },
    {
      "inputs": [
        {
          "internalType": "uint256",
          "name": "",
          "type": "uint256"
        }
      ],
      "name": "members",
      "outputs": [
        {
          "internalType": "uint256",
          "name": "memberId",
          "type": "uint256"
        },
        {
          "internalType": "address",
          "name": "memberAddress",
          "type": "address"
        },
        {
          "internalType": "uint256",
          "name": "weight",
          "type": "uint256"
        },
        {
          "internalType": "uint256",
          "name": "joinTime",
          "type": "uint256"
        },
        {
          "internalType": "bool",
          "name": "state",
          "type": "bool"
        }
      ],
      "stateMutability": "view",
      "type": "function"
    },
    {
      "inputs": [],
      "name": "minMember",
      "outputs": [
        {
          "internalType": "uint256",
          "name": "",
          "type": "uint256"
        }
      ],
      "stateMutability": "view",
      "type": "function"
    },
    {
      "inputs": [],
      "name": "owner",
      "outputs": [
        {
          "internalType": "address",
          "name": "",
          "type": "address"
        }
      ],
      "stateMutability": "view",
      "type": "function"
    },
    {
      "inputs": [],
      "name": "renounceOwnership",
      "outputs": [],
      "stateMutability": "nonpayable",
      "type": "function"
    },
    {
      "inputs": [],
      "name": "totalMember",
      "outputs": [
        {
          "internalType": "uint256",
          "name": "",
          "type": "uint256"
        }
      ],
      "stateMutability": "view",
      "type": "function"
    },
    {
      "inputs": [],
      "name": "totalWeight",
      "outputs": [
        {
          "internalType": "uint256",
          "name": "",
          "type": "uint256"
        }
      ],
      "stateMutability": "view",
      "type": "function"
    },
    {
      "inputs": [
        {
          "internalType": "address",
          "name": "newOwner",
          "type": "address"
        }
      ],
      "name": "transferOwnership",
      "outputs": [],
      "stateMutability": "nonpayable",
      "type": "function"
    },
    {
      "inputs": [],
      "name": "updateInterval",
      "outputs": [
        {
          "internalType": "uint256",
          "name": "",
          "type": "uint256"
        }
      ],
      "stateMutability": "view",
      "type": "function"
    }
  ],
  "bytecode": "0x60806040523480156200001157600080fd5b5033600073ffffffffffffffffffffffffffffffffffffffff168173ffffffffffffffffffffffffffffffffffffffff1603620000885760006040517f1e4fbdf70000000000000000000000000000000000000000000000000000000081526004016200007f9190620001db565b60405180910390fd5b6200009981620000d260201b60201c565b5060018081905550600160028190555062278d0060038190555060035460048190555060326005819055506000600681905550620001f8565b60008060009054906101000a900473ffffffffffffffffffffffffffffffffffffffff169050816000806101000a81548173ffffffffffffffffffffffffffffffffffffffff021916908373ffffffffffffffffffffffffffffffffffffffff1602179055508173ffffffffffffffffffffffffffffffffffffffff168173ffffffffffffffffffffffffffffffffffffffff167f8be0079c531659141344cd1fd0a4f28419497f9722a3daafe3b4186f6b6457e060405160405180910390a35050565b600073ffffffffffffffffffffffffffffffffffffffff82169050919050565b6000620001c38262000196565b9050919050565b620001d581620001b6565b82525050565b6000602082019050620001f26000830184620001ca565b92915050565b61135e80620002086000396000f3fe608060405234801561001057600080fd5b50600436106100f55760003560e01c80639183563511610097578063d6837cfa11610066578063d6837cfa14610256578063d784039014610274578063f2fde38b14610292578063fd2c80ae146102ae576100f5565b806391835635146101ce57806396c82e57146101ec57806398041ea31461020a578063c225fc3814610226576100f5565b806360104e11116100d357806360104e1114610168578063715018a61461018857806377ee311c146101925780638da5cb5b146101b0576100f5565b806311ffb1d4146100fa5780632b114a7c146101165780635daf08ca14610134575b600080fd5b610114600480360381019061010f9190610d4e565b6102cc565b005b61011e610508565b60405161012b9190610d94565b60405180910390f35b61014e60048036038101906101499190610ddb565b61050e565b60405161015f959493929190610e32565b60405180910390f35b610170610571565b60405161017f93929190611001565b60405180910390f35b6101906106f9565b005b61019a61070d565b6040516101a79190610d94565b60405180910390f35b6101b8610713565b6040516101c59190611046565b60405180910390f35b6101d661073c565b6040516101e39190610d94565b60405180910390f35b6101f4610742565b6040516102019190610d94565b60405180910390f35b610224600480360381019061021f9190611061565b610748565b005b610240600480360381019061023b9190610d4e565b610adf565b60405161024d9190610d94565b60405180910390f35b61025e610af7565b60405161026b91906110a1565b60405180910390f35b61027c610b06565b6040516102899190610d94565b60405180910390f35b6102ac60048036038101906102a79190610d4e565b610b0c565b005b6102b6610b92565b6040516102c39190610d94565b60405180910390f35b6000600760008373ffffffffffffffffffffffffffffffffffffffff1673ffffffffffffffffffffffffffffffffffffffff168152602001908152602001600020540361034e576040517f08c379a00000000000000000000000000000000000000000000000000000000081526004016103459061113f565b60405180910390fd5b6001151560086000600760008573ffffffffffffffffffffffffffffffffffffffff1673ffffffffffffffffffffffffffffffffffffffff16815260200190815260200160002054815260200190815260200160002060040160009054906101000a900460ff161515146103f7576040517f08c379a00000000000000000000000000000000000000000000000000000000081526004016103ee906111d1565b60405180910390fd5b6000600760008373ffffffffffffffffffffffffffffffffffffffff1673ffffffffffffffffffffffffffffffffffffffff16815260200190815260200160002054905060006008600083815260200190815260200160002060040160006101000a81548160ff021916908315150217905550600060086000838152602001908152602001600020600201819055506008600082815260200190815260200160002060020154600560008282546104ae9190611220565b92505081905550600660008154809291906104c890611254565b91905055507f7f30101efeb9f48c5bf25a6134d53fd138e0bf50b988895f1eeb8c48ffcb3850816040516104fc9190610d94565b60405180910390a15050565b60025481565b60086020528060005260406000206000915090508060000154908060010160009054906101000a900473ffffffffffffffffffffffffffffffffffffffff16908060020154908060030154908060040160009054906101000a900460ff16905085565b6060806000606080600080600190505b6001548110156106e5576000600860008381526020019081526020016000206040518060a0016040529081600082015481526020016001820160009054906101000a900473ffffffffffffffffffffffffffffffffffffffff1673ffffffffffffffffffffffffffffffffffffffff1673ffffffffffffffffffffffffffffffffffffffff16815260200160028201548152602001600382015481526020016004820160009054906101000a900460ff16151515158152505090506001151581608001511515036106d15780602001518584815181106106645761066361127d565b5b602002602001019073ffffffffffffffffffffffffffffffffffffffff16908173ffffffffffffffffffffffffffffffffffffffff168152505080604001518484815181106106b6576106b561127d565b5b60200260200101818152505082806106cd906112ac565b9350505b5080806106dd906112ac565b915050610581565b508282600554955095509550505050909192565b610701610b98565b61070b6000610c1f565b565b60065481565b60008060009054906101000a900473ffffffffffffffffffffffffffffffffffffffff16905090565b60015481565b60055481565b6000600760008473ffffffffffffffffffffffffffffffffffffffff1673ffffffffffffffffffffffffffffffffffffffff16815260200190815260200160002054036108f95760006040518060a0016040528060015481526020018473ffffffffffffffffffffffffffffffffffffffff1681526020018381526020014281526020016001151581525090508060086000600160008154809291906107ed906112ac565b9190505581526020019081526020016000206000820151816000015560208201518160010160006101000a81548173ffffffffffffffffffffffffffffffffffffffff021916908373ffffffffffffffffffffffffffffffffffffffff160217905550604082015181600201556060820151816003015560808201518160040160006101000a81548160ff021916908315150217905550905050816005600082825461089991906112f4565b92505081905550600660008154809291906108b3906112ac565b91905055507f09e580067364e0adc299225f38be0aaa3a9c033588d7ab7c207cf21a1348e71381600001516040516108eb9190610d94565b60405180910390a150610adb565b6000151560086000600760008673ffffffffffffffffffffffffffffffffffffffff1673ffffffffffffffffffffffffffffffffffffffff16815260200190815260200160002054815260200190815260200160002060040160009054906101000a900460ff16151503610a63576000600760008473ffffffffffffffffffffffffffffffffffffffff1673ffffffffffffffffffffffffffffffffffffffff16815260200190815260200160002054905060016008600083815260200190815260200160002060040160006101000a81548160ff0219169083151502179055508160086000838152602001908152602001600020600201819055508160056000828254610a0791906112f4565b9250508190555060066000815480929190610a21906112ac565b91905055507f09e580067364e0adc299225f38be0aaa3a9c033588d7ab7c207cf21a1348e71381604051610a559190610d94565b60405180910390a150610ada565b7f0427bff834b168a7a441a499996c82bf572e949afd16478fa174a3dfeb86fbe4600760008473ffffffffffffffffffffffffffffffffffffffff1673ffffffffffffffffffffffffffffffffffffffff16815260200190815260200160002054604051610ad19190610d94565b60405180910390a15b5b5050565b60076020528060005260406000206000915090505481565b60006002546006541015905090565b60045481565b610b14610b98565b600073ffffffffffffffffffffffffffffffffffffffff168173ffffffffffffffffffffffffffffffffffffffff1603610b865760006040517f1e4fbdf7000000000000000000000000000000000000000000000000000000008152600401610b7d9190611046565b60405180910390fd5b610b8f81610c1f565b50565b60035481565b610ba0610ce3565b73ffffffffffffffffffffffffffffffffffffffff16610bbe610713565b73ffffffffffffffffffffffffffffffffffffffff1614610c1d57610be1610ce3565b6040517f118cdaa7000000000000000000000000000000000000000000000000000000008152600401610c149190611046565b60405180910390fd5b565b60008060009054906101000a900473ffffffffffffffffffffffffffffffffffffffff169050816000806101000a81548173ffffffffffffffffffffffffffffffffffffffff021916908373ffffffffffffffffffffffffffffffffffffffff1602179055508173ffffffffffffffffffffffffffffffffffffffff168173ffffffffffffffffffffffffffffffffffffffff167f8be0079c531659141344cd1fd0a4f28419497f9722a3daafe3b4186f6b6457e060405160405180910390a35050565b600033905090565b600080fd5b600073ffffffffffffffffffffffffffffffffffffffff82169050919050565b6000610d1b82610cf0565b9050919050565b610d2b81610d10565b8114610d3657600080fd5b50565b600081359050610d4881610d22565b92915050565b600060208284031215610d6457610d63610ceb565b5b6000610d7284828501610d39565b91505092915050565b6000819050919050565b610d8e81610d7b565b82525050565b6000602082019050610da96000830184610d85565b92915050565b610db881610d7b565b8114610dc357600080fd5b50565b600081359050610dd581610daf565b92915050565b600060208284031215610df157610df0610ceb565b5b6000610dff84828501610dc6565b91505092915050565b610e1181610d10565b82525050565b60008115159050919050565b610e2c81610e17565b82525050565b600060a082019050610e476000830188610d85565b610e546020830187610e08565b610e616040830186610d85565b610e6e6060830185610d85565b610e7b6080830184610e23565b9695505050505050565b600081519050919050565b600082825260208201905092915050565b6000819050602082019050919050565b610eba81610d10565b82525050565b6000610ecc8383610eb1565b60208301905092915050565b6000602082019050919050565b6000610ef082610e85565b610efa8185610e90565b9350610f0583610ea1565b8060005b83811015610f36578151610f1d8882610ec0565b9750610f2883610ed8565b925050600181019050610f09565b5085935050505092915050565b600081519050919050565b600082825260208201905092915050565b6000819050602082019050919050565b610f7881610d7b565b82525050565b6000610f8a8383610f6f565b60208301905092915050565b6000602082019050919050565b6000610fae82610f43565b610fb88185610f4e565b9350610fc383610f5f565b8060005b83811015610ff4578151610fdb8882610f7e565b9750610fe683610f96565b925050600181019050610fc7565b5085935050505092915050565b6000606082019050818103600083015261101b8186610ee5565b9050818103602083015261102f8185610fa3565b905061103e6040830184610d85565b949350505050565b600060208201905061105b6000830184610e08565b92915050565b6000806040838503121561107857611077610ceb565b5b600061108685828601610d39565b925050602061109785828601610dc6565b9150509250929050565b60006020820190506110b66000830184610e23565b92915050565b600082825260208201905092915050565b7f44656c6574654d656d626572204661696c65643a20546869732061646472657360008201527f73206973206e6f742061206d656d6265722e0000000000000000000000000000602082015250565b60006111296032836110bc565b9150611134826110cd565b604082019050919050565b600060208201905081810360008301526111588161111c565b9050919050565b7f44656c6574654d656d626572204661696c65643a20546869732061646472657360008201527f73206973206e6f74206163746976652e00000000000000000000000000000000602082015250565b60006111bb6030836110bc565b91506111c68261115f565b604082019050919050565b600060208201905081810360008301526111ea816111ae565b9050919050565b7f4e487b7100000000000000000000000000000000000000000000000000000000600052601160045260246000fd5b600061122b82610d7b565b915061123683610d7b565b925082820390508181111561124e5761124d6111f1565b5b92915050565b600061125f82610d7b565b915060008203611272576112716111f1565b5b600182039050919050565b7f4e487b7100000000000000000000000000000000000000000000000000000000600052603260045260246000fd5b60006112b782610d7b565b91507fffffffffffffffffffffffffffffffffffffffffffffffffffffffffffffffff82036112e9576112e86111f1565b5b600182019050919050565b60006112ff82610d7b565b915061130a83610d7b565b9250828201905080821115611322576113216111f1565b5b9291505056fea26469706673582212208e7de6c3637fe93fdf466119c72d7d8ab5747abd00399fc55d4c92c5f502130b64736f6c63430008140033",
  "linkReferences": {},
  "deployedLinkReferences": {}
}