{
  "_format": "hh-sol-artifact-1",
  "contractName": "Governance",
  "sourceName": "contracts/utils/Governance.sol",
  "abi": [
    {
      "inputs": [],
      "stateMutability": "nonpayable",
      "type": "constructor"
    },
    {
      "inputs": [
        {
          "internalType": "address",
          "name": "_newGovernor",
          "type": "address"
        }
      ],
      "name": "changeGovernor",
      "outputs": [],
      "stateMutability": "nonpayable",
      "type": "function"
    },
    {
      "inputs": [
        {
          "internalType": "address",
          "name": "",
          "type": "address"
        }
      ],
      "name": "networkControllers",
      "outputs": [
        {
          "internalType": "bool",
          "name": "",
          "type": "bool"
        }
      ],
      "stateMutability": "view",
      "type": "function"
    },
    {
      "inputs": [],
      "name": "networkGovernor",
      "outputs": [
        {
          "internalType": "address",
          "name": "",
          "type": "address"
        }
      ],
      "stateMutability": "view",
      "type": "function"
    },
    {
      "inputs": [
        {
          "internalType": "address",
          "name": "_address",
          "type": "address"
        }
      ],
      "name": "requireController",
      "outputs": [],
      "stateMutability": "view",
      "type": "function"
    },
    {
      "inputs": [
        {
          "internalType": "address",
          "name": "_address",
          "type": "address"
        }
      ],
      "name": "requireGovernor",
      "outputs": [],
      "stateMutability": "view",
      "type": "function"
    },
    {
      "inputs": [
        {
          "internalType": "address",
          "name": "_controller",
          "type": "address"
        },
        {
          "internalType": "bool",
          "name": "_active",
          "type": "bool"
        }
      ],
      "name": "setController",
      "outputs": [],
      "stateMutability": "nonpayable",
      "type": "function"
    },
    {
      "inputs": [
        {
          "internalType": "address",
          "name": "_newTreasury",
          "type": "address"
        }
      ],
      "name": "setTreasury",
      "outputs": [],
      "stateMutability": "nonpayable",
      "type": "function"
    },
    {
      "inputs": [],
      "name": "treasury",
      "outputs": [
        {
          "internalType": "address",
          "name": "",
          "type": "address"
        }
      ],
      "stateMutability": "view",
      "type": "function"
    }
  ],
  "bytecode": "0x608060405234801561001057600080fd5b50336000806101000a81548173ffffffffffffffffffffffffffffffffffffffff021916908373ffffffffffffffffffffffffffffffffffffffff160217905550610733806100606000396000f3fe608060405234801561001057600080fd5b50600436106100885760003560e01c8063e4c0aaf41161005b578063e4c0aaf414610113578063f0f442601461012f578063f39349ef1461014b578063f5f84ed41461016957610088565b80634bd019f71461008d57806361d027b3146100a9578063720dc638146100c7578063e0dba60f146100f7575b600080fd5b6100a760048036038101906100a2919061051b565b610185565b005b6100b1610214565b6040516100be9190610557565b60405180910390f35b6100e160048036038101906100dc919061051b565b61023a565b6040516100ee919061058d565b60405180910390f35b610111600480360381019061010c91906105d4565b61025a565b005b61012d6004803603810190610128919061051b565b610316565b005b6101496004803603810190610144919061051b565b6103b6565b005b610153610403565b6040516101609190610557565b60405180910390f35b610183600480360381019061017e919061051b565b610427565b005b600160008273ffffffffffffffffffffffffffffffffffffffff1673ffffffffffffffffffffffffffffffffffffffff16815260200190815260200160002060009054906101000a900460ff16610211576040517f08c379a000000000000000000000000000000000000000000000000000000000815260040161020890610671565b60405180910390fd5b50565b600260009054906101000a900473ffffffffffffffffffffffffffffffffffffffff1681565b60016020528060005260406000206000915054906101000a900460ff1681565b61026333610427565b801515600160008473ffffffffffffffffffffffffffffffffffffffff1673ffffffffffffffffffffffffffffffffffffffff16815260200190815260200160002060009054906101000a900460ff161515146103125780600160008473ffffffffffffffffffffffffffffffffffffffff1673ffffffffffffffffffffffffffffffffffffffff16815260200190815260200160002060006101000a81548160ff0219169083151502179055505b5050565b61031f33610427565b8073ffffffffffffffffffffffffffffffffffffffff1660008054906101000a900473ffffffffffffffffffffffffffffffffffffffff1673ffffffffffffffffffffffffffffffffffffffff16146103b357806000806101000a81548173ffffffffffffffffffffffffffffffffffffffff021916908373ffffffffffffffffffffffffffffffffffffffff1602179055505b50565b6103bf33610427565b80600260006101000a81548173ffffffffffffffffffffffffffffffffffffffff021916908373ffffffffffffffffffffffffffffffffffffffff16021790555050565b60008054906101000a900473ffffffffffffffffffffffffffffffffffffffff1681565b60008054906101000a900473ffffffffffffffffffffffffffffffffffffffff1673ffffffffffffffffffffffffffffffffffffffff168173ffffffffffffffffffffffffffffffffffffffff16146104b5576040517f08c379a00000000000000000000000000000000000000000000000000000000081526004016104ac906106dd565b60405180910390fd5b50565b600080fd5b600073ffffffffffffffffffffffffffffffffffffffff82169050919050565b60006104e8826104bd565b9050919050565b6104f8816104dd565b811461050357600080fd5b50565b600081359050610515816104ef565b92915050565b600060208284031215610531576105306104b8565b5b600061053f84828501610506565b91505092915050565b610551816104dd565b82525050565b600060208201905061056c6000830184610548565b92915050565b60008115159050919050565b61058781610572565b82525050565b60006020820190506105a2600083018461057e565b92915050565b6105b181610572565b81146105bc57600080fd5b50565b6000813590506105ce816105a8565b92915050565b600080604083850312156105eb576105ea6104b8565b5b60006105f985828601610506565b925050602061060a858286016105bf565b9150509250929050565b600082825260208201905092915050565b7f6e63000000000000000000000000000000000000000000000000000000000000600082015250565b600061065b600283610614565b915061066682610625565b602082019050919050565b6000602082019050818103600083015261068a8161064e565b9050919050565b7f6e67000000000000000000000000000000000000000000000000000000000000600082015250565b60006106c7600283610614565b91506106d282610691565b602082019050919050565b600060208201905081810360008301526106f6816106ba565b905091905056fea26469706673582212209c7a39a4f3217460cb3e1ed72975997babb4d7004d0c6595874ddbc1e3efa62c64736f6c63430008140033",
  "linkReferences": {},
  "deployedLinkReferences": {}
}