{
  "_format": "hh-sol-artifact-1",
  "contractName": "IPNFT",
  "sourceName": "contracts/IPNFT.sol",
  "abi": [
    {
      "inputs": [
        {
          "internalType": "string",
          "name": "_name",
          "type": "string"
        },
        {
          "internalType": "string",
          "name": "_symbol",
          "type": "string"
        }
      ],
      "stateMutability": "nonpayable",
      "type": "constructor"
    },
    {
      "inputs": [
        {
          "internalType": "address",
          "name": "sender",
          "type": "address"
        },
        {
          "internalType": "uint256",
          "name": "tokenId",
          "type": "uint256"
        },
        {
          "internalType": "address",
          "name": "owner",
          "type": "address"
        }
      ],
      "name": "ERC721IncorrectOwner",
      "type": "error"
    },
    {
      "inputs": [
        {
          "internalType": "address",
          "name": "operator",
          "type": "address"
        },
        {
          "internalType": "uint256",
          "name": "tokenId",
          "type": "uint256"
        }
      ],
      "name": "ERC721InsufficientApproval",
      "type": "error"
    },
    {
      "inputs": [
        {
          "internalType": "address",
          "name": "approver",
          "type": "address"
        }
      ],
      "name": "ERC721InvalidApprover",
      "type": "error"
    },
    {
      "inputs": [
        {
          "internalType": "address",
          "name": "operator",
          "type": "address"
        }
      ],
      "name": "ERC721InvalidOperator",
      "type": "error"
    },
    {
      "inputs": [
        {
          "internalType": "address",
          "name": "owner",
          "type": "address"
        }
      ],
      "name": "ERC721InvalidOwner",
      "type": "error"
    },
    {
      "inputs": [
        {
          "internalType": "address",
          "name": "receiver",
          "type": "address"
        }
      ],
      "name": "ERC721InvalidReceiver",
      "type": "error"
    },
    {
      "inputs": [
        {
          "internalType": "address",
          "name": "sender",
          "type": "address"
        }
      ],
      "name": "ERC721InvalidSender",
      "type": "error"
    },
    {
      "inputs": [
        {
          "internalType": "uint256",
          "name": "tokenId",
          "type": "uint256"
        }
      ],
      "name": "ERC721NonexistentToken",
      "type": "error"
    },
    {
      "inputs": [
        {
          "internalType": "address",
          "name": "owner",
          "type": "address"
        }
      ],
      "name": "OwnableInvalidOwner",
      "type": "error"
    },
    {
      "inputs": [
        {
          "internalType": "address",
          "name": "account",
          "type": "address"
        }
      ],
      "name": "OwnableUnauthorizedAccount",
      "type": "error"
    },
    {
      "anonymous": false,
      "inputs": [
        {
          "indexed": true,
          "internalType": "address",
          "name": "owner",
          "type": "address"
        },
        {
          "indexed": true,
          "internalType": "address",
          "name": "approved",
          "type": "address"
        },
        {
          "indexed": true,
          "internalType": "uint256",
          "name": "tokenId",
          "type": "uint256"
        }
      ],
      "name": "Approval",
      "type": "event"
    },
    {
      "anonymous": false,
      "inputs": [
        {
          "indexed": true,
          "internalType": "address",
          "name": "owner",
          "type": "address"
        },
        {
          "indexed": true,
          "internalType": "address",
          "name": "operator",
          "type": "address"
        },
        {
          "indexed": false,
          "internalType": "bool",
          "name": "approved",
          "type": "bool"
        }
      ],
      "name": "ApprovalForAll",
      "type": "event"
    },
    {
      "anonymous": false,
      "inputs": [
        {
          "indexed": false,
          "internalType": "uint256",
          "name": "_fromTokenId",
          "type": "uint256"
        },
        {
          "indexed": false,
          "internalType": "uint256",
          "name": "_toTokenId",
          "type": "uint256"
        }
      ],
      "name": "BatchMetadataUpdate",
      "type": "event"
    },
    {
      "anonymous": false,
      "inputs": [
        {
          "indexed": false,
          "internalType": "uint256",
          "name": "_tokenId",
          "type": "uint256"
        }
      ],
      "name": "MetadataUpdate",
      "type": "event"
    },
    {
      "anonymous": false,
      "inputs": [
        {
          "indexed": true,
          "internalType": "address",
          "name": "previousOwner",
          "type": "address"
        },
        {
          "indexed": true,
          "internalType": "address",
          "name": "newOwner",
          "type": "address"
        }
      ],
      "name": "OwnershipTransferred",
      "type": "event"
    },
    {
      "anonymous": false,
      "inputs": [
        {
          "indexed": true,
          "internalType": "address",
          "name": "from",
          "type": "address"
        },
        {
          "indexed": true,
          "internalType": "address",
          "name": "to",
          "type": "address"
        },
        {
          "indexed": true,
          "internalType": "uint256",
          "name": "tokenId",
          "type": "uint256"
        }
      ],
      "name": "Transfer",
      "type": "event"
    },
    {
      "inputs": [
        {
          "internalType": "address",
          "name": "to",
          "type": "address"
        },
        {
          "internalType": "uint256",
          "name": "tokenId",
          "type": "uint256"
        }
      ],
      "name": "approve",
      "outputs": [],
      "stateMutability": "nonpayable",
      "type": "function"
    },
    {
      "inputs": [
        {
          "internalType": "address",
          "name": "owner",
          "type": "address"
        }
      ],
      "name": "balanceOf",
      "outputs": [
        {
          "internalType": "uint256",
          "name": "",
          "type": "uint256"
        }
      ],
      "stateMutability": "view",
      "type": "function"
    },
    {
      "inputs": [
        {
          "internalType": "uint256",
          "name": "tokenId",
          "type": "uint256"
        }
      ],
      "name": "getApproved",
      "outputs": [
        {
          "internalType": "address",
          "name": "",
          "type": "address"
        }
      ],
      "stateMutability": "view",
      "type": "function"
    },
    {
      "inputs": [
        {
          "internalType": "uint256",
          "name": "tokenId",
          "type": "uint256"
        }
      ],
      "name": "getTokenURI",
      "outputs": [
        {
          "internalType": "string",
          "name": "",
          "type": "string"
        }
      ],
      "stateMutability": "view",
      "type": "function"
    },
    {
      "inputs": [
        {
          "internalType": "address",
          "name": "owner",
          "type": "address"
        },
        {
          "internalType": "address",
          "name": "operator",
          "type": "address"
        }
      ],
      "name": "isApprovedForAll",
      "outputs": [
        {
          "internalType": "bool",
          "name": "",
          "type": "bool"
        }
      ],
      "stateMutability": "view",
      "type": "function"
    },
    {
      "inputs": [
        {
          "internalType": "address",
          "name": "to",
          "type": "address"
        },
        {
          "internalType": "string",
          "name": "uri",
          "type": "string"
        }
      ],
      "name": "mint",
      "outputs": [
        {
          "internalType": "uint256",
          "name": "",
          "type": "uint256"
        }
      ],
      "stateMutability": "nonpayable",
      "type": "function"
    },
    {
      "inputs": [],
      "name": "name",
      "outputs": [
        {
          "internalType": "string",
          "name": "",
          "type": "string"
        }
      ],
      "stateMutability": "view",
      "type": "function"
    },
    {
      "inputs": [],
      "name": "owner",
      "outputs": [
        {
          "internalType": "address",
          "name": "",
          "type": "address"
        }
      ],
      "stateMutability": "view",
      "type": "function"
    },
    {
      "inputs": [
        {
          "internalType": "uint256",
          "name": "tokenId",
          "type": "uint256"
        }
      ],
      "name": "ownerOf",
      "outputs": [
        {
          "internalType": "address",
          "name": "",
          "type": "address"
        }
      ],
      "stateMutability": "view",
      "type": "function"
    },
    {
      "inputs": [],
      "name": "renounceOwnership",
      "outputs": [],
      "stateMutability": "nonpayable",
      "type": "function"
    },
    {
      "inputs": [
        {
          "internalType": "address",
          "name": "from",
          "type": "address"
        },
        {
          "internalType": "address",
          "name": "to",
          "type": "address"
        },
        {
          "internalType": "uint256",
          "name": "tokenId",
          "type": "uint256"
        }
      ],
      "name": "safeTransferFrom",
      "outputs": [],
      "stateMutability": "nonpayable",
      "type": "function"
    },
    {
      "inputs": [
        {
          "internalType": "address",
          "name": "from",
          "type": "address"
        },
        {
          "internalType": "address",
          "name": "to",
          "type": "address"
        },
        {
          "internalType": "uint256",
          "name": "tokenId",
          "type": "uint256"
        },
        {
          "internalType": "bytes",
          "name": "data",
          "type": "bytes"
        }
      ],
      "name": "safeTransferFrom",
      "outputs": [],
      "stateMutability": "nonpayable",
      "type": "function"
    },
    {
      "inputs": [
        {
          "internalType": "address",
          "name": "operator",
          "type": "address"
        },
        {
          "internalType": "bool",
          "name": "approved",
          "type": "bool"
        }
      ],
      "name": "setApprovalForAll",
      "outputs": [],
      "stateMutability": "nonpayable",
      "type": "function"
    },
    {
      "inputs": [
        {
          "internalType": "bytes4",
          "name": "interfaceId",
          "type": "bytes4"
        }
      ],
      "name": "supportsInterface",
      "outputs": [
        {
          "internalType": "bool",
          "name": "",
          "type": "bool"
        }
      ],
      "stateMutability": "view",
      "type": "function"
    },
    {
      "inputs": [],
      "name": "symbol",
      "outputs": [
        {
          "internalType": "string",
          "name": "",
          "type": "string"
        }
      ],
      "stateMutability": "view",
      "type": "function"
    },
    {
      "inputs": [
        {
          "internalType": "uint256",
          "name": "tokenId",
          "type": "uint256"
        }
      ],
      "name": "tokenURI",
      "outputs": [
        {
          "internalType": "string",
          "name": "",
          "type": "string"
        }
      ],
      "stateMutability": "view",
      "type": "function"
    },
    {
      "inputs": [
        {
          "internalType": "address",
          "name": "from",
          "type": "address"
        },
        {
          "internalType": "address",
          "name": "to",
          "type": "address"
        },
        {
          "internalType": "uint256",
          "name": "tokenId",
          "type": "uint256"
        }
      ],
      "name": "transferFrom",
      "outputs": [],
      "stateMutability": "nonpayable",
      "type": "function"
    },
    {
      "inputs": [
        {
          "internalType": "address",
          "name": "newOwner",
          "type": "address"
        }
      ],
      "name": "transferOwnership",
      "outputs": [],
      "stateMutability": "nonpayable",
      "type": "function"
    }
  ],
  "bytecode": "0x60806040523480156200001157600080fd5b5060405162002ef938038062002ef9833981810160405281019062000037919062000348565b30828281600090816200004b919062000618565b5080600190816200005d919062000618565b505050600073ffffffffffffffffffffffffffffffffffffffff168173ffffffffffffffffffffffffffffffffffffffff1603620000d55760006040517f1e4fbdf7000000000000000000000000000000000000000000000000000000008152600401620000cc919062000744565b60405180910390fd5b620000e681620000ef60201b60201c565b50505062000761565b6000600760009054906101000a900473ffffffffffffffffffffffffffffffffffffffff16905081600760006101000a81548173ffffffffffffffffffffffffffffffffffffffff021916908373ffffffffffffffffffffffffffffffffffffffff1602179055508173ffffffffffffffffffffffffffffffffffffffff168173ffffffffffffffffffffffffffffffffffffffff167f8be0079c531659141344cd1fd0a4f28419497f9722a3daafe3b4186f6b6457e060405160405180910390a35050565b6000604051905090565b600080fd5b600080fd5b600080fd5b600080fd5b6000601f19601f8301169050919050565b7f4e487b7100000000000000000000000000000000000000000000000000000000600052604160045260246000fd5b6200021e82620001d3565b810181811067ffffffffffffffff8211171562000240576200023f620001e4565b5b80604052505050565b600062000255620001b5565b905062000263828262000213565b919050565b600067ffffffffffffffff821115620002865762000285620001e4565b5b6200029182620001d3565b9050602081019050919050565b60005b83811015620002be578082015181840152602081019050620002a1565b60008484015250505050565b6000620002e1620002db8462000268565b62000249565b9050828152602081018484840111156200030057620002ff620001ce565b5b6200030d8482856200029e565b509392505050565b600082601f8301126200032d576200032c620001c9565b5b81516200033f848260208601620002ca565b91505092915050565b60008060408385031215620003625762000361620001bf565b5b600083015167ffffffffffffffff811115620003835762000382620001c4565b5b620003918582860162000315565b925050602083015167ffffffffffffffff811115620003b557620003b4620001c4565b5b620003c38582860162000315565b9150509250929050565b600081519050919050565b7f4e487b7100000000000000000000000000000000000000000000000000000000600052602260045260246000fd5b600060028204905060018216806200042057607f821691505b602082108103620004365762000435620003d8565b5b50919050565b60008190508160005260206000209050919050565b60006020601f8301049050919050565b600082821b905092915050565b600060088302620004a07fffffffffffffffffffffffffffffffffffffffffffffffffffffffffffffffff8262000461565b620004ac868362000461565b95508019841693508086168417925050509392505050565b6000819050919050565b6000819050919050565b6000620004f9620004f3620004ed84620004c4565b620004ce565b620004c4565b9050919050565b6000819050919050565b6200051583620004d8565b6200052d620005248262000500565b8484546200046e565b825550505050565b600090565b6200054462000535565b620005518184846200050a565b505050565b5b8181101562000579576200056d6000826200053a565b60018101905062000557565b5050565b601f821115620005c85762000592816200043c565b6200059d8462000451565b81016020851015620005ad578190505b620005c5620005bc8562000451565b83018262000556565b50505b505050565b600082821c905092915050565b6000620005ed60001984600802620005cd565b1980831691505092915050565b6000620006088383620005da565b9150826002028217905092915050565b6200062382620003cd565b67ffffffffffffffff8111156200063f576200063e620001e4565b5b6200064b825462000407565b620006588282856200057d565b600060209050601f8311600181146200069057600084156200067b578287015190505b620006878582620005fa565b865550620006f7565b601f198416620006a0866200043c565b60005b82811015620006ca57848901518255600182019150602085019450602081019050620006a3565b86831015620006ea5784890151620006e6601f891682620005da565b8355505b6001600288020188555050505b505050505050565b600073ffffffffffffffffffffffffffffffffffffffff82169050919050565b60006200072c82620006ff565b9050919050565b6200073e816200071f565b82525050565b60006020820190506200075b600083018462000733565b92915050565b61278880620007716000396000f3fe608060405234801561001057600080fd5b50600436106101165760003560e01c8063715018a6116100a2578063b88d4fde11610071578063b88d4fde146102df578063c87b56dd146102fb578063d0def5211461032b578063e985e9c51461035b578063f2fde38b1461038b57610116565b8063715018a61461027d5780638da5cb5b1461028757806395d89b41146102a5578063a22cb465146102c357610116565b806323b872dd116100e957806323b872dd146101b55780633bb3a24d146101d157806342842e0e146102015780636352211e1461021d57806370a082311461024d57610116565b806301ffc9a71461011b57806306fdde031461014b578063081812fc14610169578063095ea7b314610199575b600080fd5b61013560048036038101906101309190611bc5565b6103a7565b6040516101429190611c0d565b60405180910390f35b6101536103b9565b6040516101609190611cb8565b60405180910390f35b610183600480360381019061017e9190611d10565b61044b565b6040516101909190611d7e565b60405180910390f35b6101b360048036038101906101ae9190611dc5565b610467565b005b6101cf60048036038101906101ca9190611e05565b61047d565b005b6101eb60048036038101906101e69190611d10565b61057f565b6040516101f89190611cb8565b60405180910390f35b61021b60048036038101906102169190611e05565b610591565b005b61023760048036038101906102329190611d10565b6105b1565b6040516102449190611d7e565b60405180910390f35b61026760048036038101906102629190611e58565b6105c3565b6040516102749190611e94565b60405180910390f35b61028561067d565b005b61028f610691565b60405161029c9190611d7e565b60405180910390f35b6102ad6106bb565b6040516102ba9190611cb8565b60405180910390f35b6102dd60048036038101906102d89190611edb565b61074d565b005b6102f960048036038101906102f49190612050565b610763565b005b61031560048036038101906103109190611d10565b610780565b6040516103229190611cb8565b60405180910390f35b61034560048036038101906103409190612174565b610792565b6040516103529190611e94565b60405180910390f35b610375600480360381019061037091906121d0565b610838565b6040516103829190611c0d565b60405180910390f35b6103a560048036038101906103a09190611e58565b6108cc565b005b60006103b282610952565b9050919050565b6060600080546103c89061223f565b80601f01602080910402602001604051908101604052809291908181526020018280546103f49061223f565b80156104415780601f1061041657610100808354040283529160200191610441565b820191906000526020600020905b81548152906001019060200180831161042457829003601f168201915b5050505050905090565b6000610456826109b3565b5061046082610a3b565b9050919050565b6104798282610474610a78565b610a80565b5050565b600073ffffffffffffffffffffffffffffffffffffffff168273ffffffffffffffffffffffffffffffffffffffff16036104ef5760006040517f64a0ae920000000000000000000000000000000000000000000000000000000081526004016104e69190611d7e565b60405180910390fd5b600061050383836104fe610a78565b610a92565b90508373ffffffffffffffffffffffffffffffffffffffff168173ffffffffffffffffffffffffffffffffffffffff1614610579578382826040517f64283d7b00000000000000000000000000000000000000000000000000000000815260040161057093929190612270565b60405180910390fd5b50505050565b606061058a82610780565b9050919050565b6105ac83838360405180602001604052806000815250610763565b505050565b60006105bc826109b3565b9050919050565b60008073ffffffffffffffffffffffffffffffffffffffff168273ffffffffffffffffffffffffffffffffffffffff16036106365760006040517f89c62b6400000000000000000000000000000000000000000000000000000000815260040161062d9190611d7e565b60405180910390fd5b600360008373ffffffffffffffffffffffffffffffffffffffff1673ffffffffffffffffffffffffffffffffffffffff168152602001908152602001600020549050919050565b610685610cac565b61068f6000610d33565b565b6000600760009054906101000a900473ffffffffffffffffffffffffffffffffffffffff16905090565b6060600180546106ca9061223f565b80601f01602080910402602001604051908101604052809291908181526020018280546106f69061223f565b80156107435780601f1061071857610100808354040283529160200191610743565b820191906000526020600020905b81548152906001019060200180831161072657829003601f168201915b5050505050905090565b61075f610758610a78565b8383610df9565b5050565b61076e84848461047d565b61077a84848484610f68565b50505050565b606061078b8261111f565b9050919050565b60008073ffffffffffffffffffffffffffffffffffffffff168373ffffffffffffffffffffffffffffffffffffffff1603610802576040517f08c379a00000000000000000000000000000000000000000000000000000000081526004016107f990612319565b60405180910390fd5b600061080e6008611232565b905061081a8482611240565b610824818461125e565b61082e60086112ba565b8091505092915050565b6000600560008473ffffffffffffffffffffffffffffffffffffffff1673ffffffffffffffffffffffffffffffffffffffff16815260200190815260200160002060008373ffffffffffffffffffffffffffffffffffffffff1673ffffffffffffffffffffffffffffffffffffffff16815260200190815260200160002060009054906101000a900460ff16905092915050565b6108d4610cac565b600073ffffffffffffffffffffffffffffffffffffffff168173ffffffffffffffffffffffffffffffffffffffff16036109465760006040517f1e4fbdf700000000000000000000000000000000000000000000000000000000815260040161093d9190611d7e565b60405180910390fd5b61094f81610d33565b50565b6000634906490660e01b7bffffffffffffffffffffffffffffffffffffffffffffffffffffffff1916827bffffffffffffffffffffffffffffffffffffffffffffffffffffffff191614806109ac57506109ab826112d0565b5b9050919050565b6000806109bf836113b2565b9050600073ffffffffffffffffffffffffffffffffffffffff168173ffffffffffffffffffffffffffffffffffffffff1603610a3257826040517f7e273289000000000000000000000000000000000000000000000000000000008152600401610a299190611e94565b60405180910390fd5b80915050919050565b60006004600083815260200190815260200160002060009054906101000a900473ffffffffffffffffffffffffffffffffffffffff169050919050565b600033905090565b610a8d83838360016113ef565b505050565b600080610a9e846113b2565b9050600073ffffffffffffffffffffffffffffffffffffffff168373ffffffffffffffffffffffffffffffffffffffff1614610ae057610adf8184866115b4565b5b600073ffffffffffffffffffffffffffffffffffffffff168173ffffffffffffffffffffffffffffffffffffffff1614610b7157610b226000856000806113ef565b6001600360008373ffffffffffffffffffffffffffffffffffffffff1673ffffffffffffffffffffffffffffffffffffffff168152602001908152602001600020600082825403925050819055505b600073ffffffffffffffffffffffffffffffffffffffff168573ffffffffffffffffffffffffffffffffffffffff1614610bf4576001600360008773ffffffffffffffffffffffffffffffffffffffff1673ffffffffffffffffffffffffffffffffffffffff168152602001908152602001600020600082825401925050819055505b846002600086815260200190815260200160002060006101000a81548173ffffffffffffffffffffffffffffffffffffffff021916908373ffffffffffffffffffffffffffffffffffffffff160217905550838573ffffffffffffffffffffffffffffffffffffffff168273ffffffffffffffffffffffffffffffffffffffff167fddf252ad1be2c89b69c2b068fc378daa952ba7f163c4a11628f55a4df523b3ef60405160405180910390a4809150509392505050565b610cb4610a78565b73ffffffffffffffffffffffffffffffffffffffff16610cd2610691565b73ffffffffffffffffffffffffffffffffffffffff1614610d3157610cf5610a78565b6040517f118cdaa7000000000000000000000000000000000000000000000000000000008152600401610d289190611d7e565b60405180910390fd5b565b6000600760009054906101000a900473ffffffffffffffffffffffffffffffffffffffff16905081600760006101000a81548173ffffffffffffffffffffffffffffffffffffffff021916908373ffffffffffffffffffffffffffffffffffffffff1602179055508173ffffffffffffffffffffffffffffffffffffffff168173ffffffffffffffffffffffffffffffffffffffff167f8be0079c531659141344cd1fd0a4f28419497f9722a3daafe3b4186f6b6457e060405160405180910390a35050565b600073ffffffffffffffffffffffffffffffffffffffff168273ffffffffffffffffffffffffffffffffffffffff1603610e6a57816040517f5b08ba18000000000000000000000000000000000000000000000000000000008152600401610e619190611d7e565b60405180910390fd5b80600560008573ffffffffffffffffffffffffffffffffffffffff1673ffffffffffffffffffffffffffffffffffffffff16815260200190815260200160002060008473ffffffffffffffffffffffffffffffffffffffff1673ffffffffffffffffffffffffffffffffffffffff16815260200190815260200160002060006101000a81548160ff0219169083151502179055508173ffffffffffffffffffffffffffffffffffffffff168373ffffffffffffffffffffffffffffffffffffffff167f17307eab39ab6107e8899845ad3d59bd9653f200f220920489ca2b5937696c3183604051610f5b9190611c0d565b60405180910390a3505050565b60008373ffffffffffffffffffffffffffffffffffffffff163b1115611119578273ffffffffffffffffffffffffffffffffffffffff1663150b7a02610fac610a78565b8685856040518563ffffffff1660e01b8152600401610fce949392919061238e565b6020604051808303816000875af192505050801561100a57506040513d601f19601f8201168201806040525081019061100791906123ef565b60015b61108e573d806000811461103a576040519150601f19603f3d011682016040523d82523d6000602084013e61103f565b606091505b50600081510361108657836040517f64a0ae9200000000000000000000000000000000000000000000000000000000815260040161107d9190611d7e565b60405180910390fd5b805181602001fd5b63150b7a0260e01b7bffffffffffffffffffffffffffffffffffffffffffffffffffffffff1916817bffffffffffffffffffffffffffffffffffffffffffffffffffffffff19161461111757836040517f64a0ae9200000000000000000000000000000000000000000000000000000000815260040161110e9190611d7e565b60405180910390fd5b505b50505050565b606061112a826109b3565b50600060066000848152602001908152602001600020805461114b9061223f565b80601f01602080910402602001604051908101604052809291908181526020018280546111779061223f565b80156111c45780601f10611199576101008083540402835291602001916111c4565b820191906000526020600020905b8154815290600101906020018083116111a757829003601f168201915b5050505050905060006111d5611678565b905060008151036111ea57819250505061122d565b60008251111561121f578082604051602001611207929190612458565b6040516020818303038152906040529250505061122d565b6112288461168f565b925050505b919050565b600081600001549050919050565b61125a8282604051806020016040528060008152506116f8565b5050565b8060066000848152602001908152602001600020908161127e9190612628565b507ff8e1a15aba9398e019f0b49df1a4fde98ee17ae345cb5f6b5e2c27f5033e8ce7826040516112ae9190611e94565b60405180910390a15050565b6001816000016000828254019250508190555050565b60007f80ac58cd000000000000000000000000000000000000000000000000000000007bffffffffffffffffffffffffffffffffffffffffffffffffffffffff1916827bffffffffffffffffffffffffffffffffffffffffffffffffffffffff1916148061139b57507f5b5e139f000000000000000000000000000000000000000000000000000000007bffffffffffffffffffffffffffffffffffffffffffffffffffffffff1916827bffffffffffffffffffffffffffffffffffffffffffffffffffffffff1916145b806113ab57506113aa82611714565b5b9050919050565b60006002600083815260200190815260200160002060009054906101000a900473ffffffffffffffffffffffffffffffffffffffff169050919050565b80806114285750600073ffffffffffffffffffffffffffffffffffffffff168273ffffffffffffffffffffffffffffffffffffffff1614155b1561155c576000611438846109b3565b9050600073ffffffffffffffffffffffffffffffffffffffff168373ffffffffffffffffffffffffffffffffffffffff16141580156114a357508273ffffffffffffffffffffffffffffffffffffffff168173ffffffffffffffffffffffffffffffffffffffff1614155b80156114b657506114b48184610838565b155b156114f857826040517fa9fbf51f0000000000000000000000000000000000000000000000000000000081526004016114ef9190611d7e565b60405180910390fd5b811561155a57838573ffffffffffffffffffffffffffffffffffffffff168273ffffffffffffffffffffffffffffffffffffffff167f8c5be1e5ebec7d5bd14f71427d1e84f3dd0314c0f7b2291e5b200ac8c7c3b92560405160405180910390a45b505b836004600085815260200190815260200160002060006101000a81548173ffffffffffffffffffffffffffffffffffffffff021916908373ffffffffffffffffffffffffffffffffffffffff16021790555050505050565b6115bf83838361177e565b61167357600073ffffffffffffffffffffffffffffffffffffffff168373ffffffffffffffffffffffffffffffffffffffff160361163457806040517f7e27328900000000000000000000000000000000000000000000000000000000815260040161162b9190611e94565b60405180910390fd5b81816040517f177e802f00000000000000000000000000000000000000000000000000000000815260040161166a9291906126fa565b60405180910390fd5b505050565b606060405180602001604052806000815250905090565b606061169a826109b3565b5060006116a5611678565b905060008151116116c557604051806020016040528060008152506116f0565b806116cf8461183f565b6040516020016116e0929190612458565b6040516020818303038152906040525b915050919050565b611702838361190d565b61170f6000848484610f68565b505050565b60007f01ffc9a7000000000000000000000000000000000000000000000000000000007bffffffffffffffffffffffffffffffffffffffffffffffffffffffff1916827bffffffffffffffffffffffffffffffffffffffffffffffffffffffff1916149050919050565b60008073ffffffffffffffffffffffffffffffffffffffff168373ffffffffffffffffffffffffffffffffffffffff161415801561183657508273ffffffffffffffffffffffffffffffffffffffff168473ffffffffffffffffffffffffffffffffffffffff1614806117f757506117f68484610838565b5b8061183557508273ffffffffffffffffffffffffffffffffffffffff1661181d83610a3b565b73ffffffffffffffffffffffffffffffffffffffff16145b5b90509392505050565b60606000600161184e84611a06565b01905060008167ffffffffffffffff81111561186d5761186c611f25565b5b6040519080825280601f01601f19166020018201604052801561189f5781602001600182028036833780820191505090505b509050600082602001820190505b600115611902578080600190039150507f3031323334353637383961626364656600000000000000000000000000000000600a86061a8153600a85816118f6576118f5612723565b5b049450600085036118ad575b819350505050919050565b600073ffffffffffffffffffffffffffffffffffffffff168273ffffffffffffffffffffffffffffffffffffffff160361197f5760006040517f64a0ae920000000000000000000000000000000000000000000000000000000081526004016119769190611d7e565b60405180910390fd5b600061198d83836000610a92565b9050600073ffffffffffffffffffffffffffffffffffffffff168173ffffffffffffffffffffffffffffffffffffffff1614611a015760006040517f73c6ac6e0000000000000000000000000000000000000000000000000000000081526004016119f89190611d7e565b60405180910390fd5b505050565b600080600090507a184f03e93ff9f4daa797ed6e38ed64bf6a1f0100000000000000008310611a64577a184f03e93ff9f4daa797ed6e38ed64bf6a1f0100000000000000008381611a5a57611a59612723565b5b0492506040810190505b6d04ee2d6d415b85acef81000000008310611aa1576d04ee2d6d415b85acef81000000008381611a9757611a96612723565b5b0492506020810190505b662386f26fc100008310611ad057662386f26fc100008381611ac657611ac5612723565b5b0492506010810190505b6305f5e1008310611af9576305f5e1008381611aef57611aee612723565b5b0492506008810190505b6127108310611b1e576127108381611b1457611b13612723565b5b0492506004810190505b60648310611b415760648381611b3757611b36612723565b5b0492506002810190505b600a8310611b50576001810190505b80915050919050565b6000604051905090565b600080fd5b600080fd5b60007fffffffff0000000000000000000000000000000000000000000000000000000082169050919050565b611ba281611b6d565b8114611bad57600080fd5b50565b600081359050611bbf81611b99565b92915050565b600060208284031215611bdb57611bda611b63565b5b6000611be984828501611bb0565b91505092915050565b60008115159050919050565b611c0781611bf2565b82525050565b6000602082019050611c226000830184611bfe565b92915050565b600081519050919050565b600082825260208201905092915050565b60005b83811015611c62578082015181840152602081019050611c47565b60008484015250505050565b6000601f19601f8301169050919050565b6000611c8a82611c28565b611c948185611c33565b9350611ca4818560208601611c44565b611cad81611c6e565b840191505092915050565b60006020820190508181036000830152611cd28184611c7f565b905092915050565b6000819050919050565b611ced81611cda565b8114611cf857600080fd5b50565b600081359050611d0a81611ce4565b92915050565b600060208284031215611d2657611d25611b63565b5b6000611d3484828501611cfb565b91505092915050565b600073ffffffffffffffffffffffffffffffffffffffff82169050919050565b6000611d6882611d3d565b9050919050565b611d7881611d5d565b82525050565b6000602082019050611d936000830184611d6f565b92915050565b611da281611d5d565b8114611dad57600080fd5b50565b600081359050611dbf81611d99565b92915050565b60008060408385031215611ddc57611ddb611b63565b5b6000611dea85828601611db0565b9250506020611dfb85828601611cfb565b9150509250929050565b600080600060608486031215611e1e57611e1d611b63565b5b6000611e2c86828701611db0565b9350506020611e3d86828701611db0565b9250506040611e4e86828701611cfb565b9150509250925092565b600060208284031215611e6e57611e6d611b63565b5b6000611e7c84828501611db0565b91505092915050565b611e8e81611cda565b82525050565b6000602082019050611ea96000830184611e85565b92915050565b611eb881611bf2565b8114611ec357600080fd5b50565b600081359050611ed581611eaf565b92915050565b60008060408385031215611ef257611ef1611b63565b5b6000611f0085828601611db0565b9250506020611f1185828601611ec6565b9150509250929050565b600080fd5b600080fd5b7f4e487b7100000000000000000000000000000000000000000000000000000000600052604160045260246000fd5b611f5d82611c6e565b810181811067ffffffffffffffff82111715611f7c57611f7b611f25565b5b80604052505050565b6000611f8f611b59565b9050611f9b8282611f54565b919050565b600067ffffffffffffffff821115611fbb57611fba611f25565b5b611fc482611c6e565b9050602081019050919050565b82818337600083830152505050565b6000611ff3611fee84611fa0565b611f85565b90508281526020810184848401111561200f5761200e611f20565b5b61201a848285611fd1565b509392505050565b600082601f83011261203757612036611f1b565b5b8135612047848260208601611fe0565b91505092915050565b6000806000806080858703121561206a57612069611b63565b5b600061207887828801611db0565b945050602061208987828801611db0565b935050604061209a87828801611cfb565b925050606085013567ffffffffffffffff8111156120bb576120ba611b68565b5b6120c787828801612022565b91505092959194509250565b600067ffffffffffffffff8211156120ee576120ed611f25565b5b6120f782611c6e565b9050602081019050919050565b6000612117612112846120d3565b611f85565b90508281526020810184848401111561213357612132611f20565b5b61213e848285611fd1565b509392505050565b600082601f83011261215b5761215a611f1b565b5b813561216b848260208601612104565b91505092915050565b6000806040838503121561218b5761218a611b63565b5b600061219985828601611db0565b925050602083013567ffffffffffffffff8111156121ba576121b9611b68565b5b6121c685828601612146565b9150509250929050565b600080604083850312156121e7576121e6611b63565b5b60006121f585828601611db0565b925050602061220685828601611db0565b9150509250929050565b7f4e487b7100000000000000000000000000000000000000000000000000000000600052602260045260246000fd5b6000600282049050600182168061225757607f821691505b60208210810361226a57612269612210565b5b50919050565b60006060820190506122856000830186611d6f565b6122926020830185611e85565b61229f6040830184611d6f565b949350505050565b7f4d696e74206572726f723a2064657374696e6174696f6e20616464726573732060008201527f63616e2774206265207a65726f2e000000000000000000000000000000000000602082015250565b6000612303602e83611c33565b915061230e826122a7565b604082019050919050565b60006020820190508181036000830152612332816122f6565b9050919050565b600081519050919050565b600082825260208201905092915050565b600061236082612339565b61236a8185612344565b935061237a818560208601611c44565b61238381611c6e565b840191505092915050565b60006080820190506123a36000830187611d6f565b6123b06020830186611d6f565b6123bd6040830185611e85565b81810360608301526123cf8184612355565b905095945050505050565b6000815190506123e981611b99565b92915050565b60006020828403121561240557612404611b63565b5b6000612413848285016123da565b91505092915050565b600081905092915050565b600061243282611c28565b61243c818561241c565b935061244c818560208601611c44565b80840191505092915050565b60006124648285612427565b91506124708284612427565b91508190509392505050565b60008190508160005260206000209050919050565b60006020601f8301049050919050565b600082821b905092915050565b6000600883026124de7fffffffffffffffffffffffffffffffffffffffffffffffffffffffffffffffff826124a1565b6124e886836124a1565b95508019841693508086168417925050509392505050565b6000819050919050565b600061252561252061251b84611cda565b612500565b611cda565b9050919050565b6000819050919050565b61253f8361250a565b61255361254b8261252c565b8484546124ae565b825550505050565b600090565b61256861255b565b612573818484612536565b505050565b5b818110156125975761258c600082612560565b600181019050612579565b5050565b601f8211156125dc576125ad8161247c565b6125b684612491565b810160208510156125c5578190505b6125d96125d185612491565b830182612578565b50505b505050565b600082821c905092915050565b60006125ff600019846008026125e1565b1980831691505092915050565b600061261883836125ee565b9150826002028217905092915050565b61263182611c28565b67ffffffffffffffff81111561264a57612649611f25565b5b612654825461223f565b61265f82828561259b565b600060209050601f8311600181146126925760008415612680578287015190505b61268a858261260c565b8655506126f2565b601f1984166126a08661247c565b60005b828110156126c8578489015182556001820191506020850194506020810190506126a3565b868310156126e557848901516126e1601f8916826125ee565b8355505b6001600288020188555050505b505050505050565b600060408201905061270f6000830185611d6f565b61271c6020830184611e85565b9392505050565b7f4e487b7100000000000000000000000000000000000000000000000000000000600052601260045260246000fdfea264697066735822122021668c91791691f2d4315fd2dddeadb4e241c0fb56e5e938d13ba7d6e034184364736f6c63430008140033",
  "linkReferences": {},
  "deployedLinkReferences": {}
}