{
  "_format": "hh-sol-artifact-1",
  "contractName": "IPNFT",
  "sourceName": "contracts/IPNFT.sol",
  "abi": [
    {
      "inputs": [
        {
          "internalType": "string",
          "name": "_name",
          "type": "string"
        },
        {
          "internalType": "string",
          "name": "_symbol",
          "type": "string"
        }
      ],
      "stateMutability": "nonpayable",
      "type": "constructor"
    },
    {
      "inputs": [
        {
          "internalType": "address",
          "name": "sender",
          "type": "address"
        },
        {
          "internalType": "uint256",
          "name": "tokenId",
          "type": "uint256"
        },
        {
          "internalType": "address",
          "name": "owner",
          "type": "address"
        }
      ],
      "name": "ERC721IncorrectOwner",
      "type": "error"
    },
    {
      "inputs": [
        {
          "internalType": "address",
          "name": "operator",
          "type": "address"
        },
        {
          "internalType": "uint256",
          "name": "tokenId",
          "type": "uint256"
        }
      ],
      "name": "ERC721InsufficientApproval",
      "type": "error"
    },
    {
      "inputs": [
        {
          "internalType": "address",
          "name": "approver",
          "type": "address"
        }
      ],
      "name": "ERC721InvalidApprover",
      "type": "error"
    },
    {
      "inputs": [
        {
          "internalType": "address",
          "name": "operator",
          "type": "address"
        }
      ],
      "name": "ERC721InvalidOperator",
      "type": "error"
    },
    {
      "inputs": [
        {
          "internalType": "address",
          "name": "owner",
          "type": "address"
        }
      ],
      "name": "ERC721InvalidOwner",
      "type": "error"
    },
    {
      "inputs": [
        {
          "internalType": "address",
          "name": "receiver",
          "type": "address"
        }
      ],
      "name": "ERC721InvalidReceiver",
      "type": "error"
    },
    {
      "inputs": [
        {
          "internalType": "address",
          "name": "sender",
          "type": "address"
        }
      ],
      "name": "ERC721InvalidSender",
      "type": "error"
    },
    {
      "inputs": [
        {
          "internalType": "uint256",
          "name": "tokenId",
          "type": "uint256"
        }
      ],
      "name": "ERC721NonexistentToken",
      "type": "error"
    },
    {
      "inputs": [
        {
          "internalType": "address",
          "name": "owner",
          "type": "address"
        }
      ],
      "name": "OwnableInvalidOwner",
      "type": "error"
    },
    {
      "inputs": [
        {
          "internalType": "address",
          "name": "account",
          "type": "address"
        }
      ],
      "name": "OwnableUnauthorizedAccount",
      "type": "error"
    },
    {
      "anonymous": false,
      "inputs": [
        {
          "indexed": true,
          "internalType": "address",
          "name": "owner",
          "type": "address"
        },
        {
          "indexed": true,
          "internalType": "address",
          "name": "approved",
          "type": "address"
        },
        {
          "indexed": true,
          "internalType": "uint256",
          "name": "tokenId",
          "type": "uint256"
        }
      ],
      "name": "Approval",
      "type": "event"
    },
    {
      "anonymous": false,
      "inputs": [
        {
          "indexed": true,
          "internalType": "address",
          "name": "owner",
          "type": "address"
        },
        {
          "indexed": true,
          "internalType": "address",
          "name": "operator",
          "type": "address"
        },
        {
          "indexed": false,
          "internalType": "bool",
          "name": "approved",
          "type": "bool"
        }
      ],
      "name": "ApprovalForAll",
      "type": "event"
    },
    {
      "anonymous": false,
      "inputs": [
        {
          "indexed": false,
          "internalType": "uint256",
          "name": "_fromTokenId",
          "type": "uint256"
        },
        {
          "indexed": false,
          "internalType": "uint256",
          "name": "_toTokenId",
          "type": "uint256"
        }
      ],
      "name": "BatchMetadataUpdate",
      "type": "event"
    },
    {
      "anonymous": false,
      "inputs": [
        {
          "indexed": false,
          "internalType": "uint256",
          "name": "_tokenId",
          "type": "uint256"
        }
      ],
      "name": "MetadataUpdate",
      "type": "event"
    },
    {
      "anonymous": false,
      "inputs": [
        {
          "indexed": true,
          "internalType": "address",
          "name": "previousOwner",
          "type": "address"
        },
        {
          "indexed": true,
          "internalType": "address",
          "name": "newOwner",
          "type": "address"
        }
      ],
      "name": "OwnershipTransferred",
      "type": "event"
    },
    {
      "anonymous": false,
      "inputs": [
        {
          "indexed": true,
          "internalType": "address",
          "name": "from",
          "type": "address"
        },
        {
          "indexed": true,
          "internalType": "address",
          "name": "to",
          "type": "address"
        },
        {
          "indexed": true,
          "internalType": "uint256",
          "name": "tokenId",
          "type": "uint256"
        }
      ],
      "name": "Transfer",
      "type": "event"
    },
    {
      "inputs": [
        {
          "internalType": "address",
          "name": "to",
          "type": "address"
        },
        {
          "internalType": "uint256",
          "name": "tokenId",
          "type": "uint256"
        }
      ],
      "name": "approve",
      "outputs": [],
      "stateMutability": "nonpayable",
      "type": "function"
    },
    {
      "inputs": [
        {
          "internalType": "address",
          "name": "owner",
          "type": "address"
        }
      ],
      "name": "balanceOf",
      "outputs": [
        {
          "internalType": "uint256",
          "name": "",
          "type": "uint256"
        }
      ],
      "stateMutability": "view",
      "type": "function"
    },
    {
      "inputs": [
        {
          "internalType": "uint256",
          "name": "tokenId",
          "type": "uint256"
        }
      ],
      "name": "getApproved",
      "outputs": [
        {
          "internalType": "address",
          "name": "",
          "type": "address"
        }
      ],
      "stateMutability": "view",
      "type": "function"
    },
    {
      "inputs": [
        {
          "internalType": "uint256",
          "name": "tokenId",
          "type": "uint256"
        }
      ],
      "name": "getOwner",
      "outputs": [
        {
          "internalType": "uint256",
          "name": "",
          "type": "uint256"
        },
        {
          "internalType": "address",
          "name": "",
          "type": "address"
        }
      ],
      "stateMutability": "view",
      "type": "function"
    },
    {
      "inputs": [
        {
          "internalType": "address",
          "name": "owner",
          "type": "address"
        },
        {
          "internalType": "address",
          "name": "operator",
          "type": "address"
        }
      ],
      "name": "isApprovedForAll",
      "outputs": [
        {
          "internalType": "bool",
          "name": "",
          "type": "bool"
        }
      ],
      "stateMutability": "view",
      "type": "function"
    },
    {
      "inputs": [
        {
          "internalType": "address",
          "name": "to",
          "type": "address"
        },
        {
          "internalType": "string",
          "name": "uri",
          "type": "string"
        }
      ],
      "name": "mint",
      "outputs": [
        {
          "internalType": "uint256",
          "name": "",
          "type": "uint256"
        }
      ],
      "stateMutability": "nonpayable",
      "type": "function"
    },
    {
      "inputs": [],
      "name": "name",
      "outputs": [
        {
          "internalType": "string",
          "name": "",
          "type": "string"
        }
      ],
      "stateMutability": "view",
      "type": "function"
    },
    {
      "inputs": [],
      "name": "owner",
      "outputs": [
        {
          "internalType": "address",
          "name": "",
          "type": "address"
        }
      ],
      "stateMutability": "view",
      "type": "function"
    },
    {
      "inputs": [
        {
          "internalType": "uint256",
          "name": "tokenId",
          "type": "uint256"
        }
      ],
      "name": "ownerOf",
      "outputs": [
        {
          "internalType": "address",
          "name": "",
          "type": "address"
        }
      ],
      "stateMutability": "view",
      "type": "function"
    },
    {
      "inputs": [],
      "name": "renounceOwnership",
      "outputs": [],
      "stateMutability": "nonpayable",
      "type": "function"
    },
    {
      "inputs": [
        {
          "internalType": "address",
          "name": "from",
          "type": "address"
        },
        {
          "internalType": "address",
          "name": "to",
          "type": "address"
        },
        {
          "internalType": "uint256",
          "name": "tokenId",
          "type": "uint256"
        }
      ],
      "name": "safeTransferFrom",
      "outputs": [],
      "stateMutability": "nonpayable",
      "type": "function"
    },
    {
      "inputs": [
        {
          "internalType": "address",
          "name": "from",
          "type": "address"
        },
        {
          "internalType": "address",
          "name": "to",
          "type": "address"
        },
        {
          "internalType": "uint256",
          "name": "tokenId",
          "type": "uint256"
        },
        {
          "internalType": "bytes",
          "name": "data",
          "type": "bytes"
        }
      ],
      "name": "safeTransferFrom",
      "outputs": [],
      "stateMutability": "nonpayable",
      "type": "function"
    },
    {
      "inputs": [
        {
          "internalType": "address",
          "name": "operator",
          "type": "address"
        },
        {
          "internalType": "bool",
          "name": "approved",
          "type": "bool"
        }
      ],
      "name": "setApprovalForAll",
      "outputs": [],
      "stateMutability": "nonpayable",
      "type": "function"
    },
    {
      "inputs": [
        {
          "internalType": "bytes4",
          "name": "interfaceId",
          "type": "bytes4"
        }
      ],
      "name": "supportsInterface",
      "outputs": [
        {
          "internalType": "bool",
          "name": "",
          "type": "bool"
        }
      ],
      "stateMutability": "view",
      "type": "function"
    },
    {
      "inputs": [],
      "name": "symbol",
      "outputs": [
        {
          "internalType": "string",
          "name": "",
          "type": "string"
        }
      ],
      "stateMutability": "view",
      "type": "function"
    },
    {
      "inputs": [
        {
          "internalType": "uint256",
          "name": "tokenId",
          "type": "uint256"
        }
      ],
      "name": "tokenURI",
      "outputs": [
        {
          "internalType": "string",
          "name": "",
          "type": "string"
        }
      ],
      "stateMutability": "view",
      "type": "function"
    },
    {
      "inputs": [
        {
          "internalType": "address",
          "name": "from",
          "type": "address"
        },
        {
          "internalType": "address",
          "name": "to",
          "type": "address"
        },
        {
          "internalType": "uint256",
          "name": "tokenId",
          "type": "uint256"
        }
      ],
      "name": "transferFrom",
      "outputs": [],
      "stateMutability": "nonpayable",
      "type": "function"
    },
    {
      "inputs": [
        {
          "internalType": "address",
          "name": "newOwner",
          "type": "address"
        }
      ],
      "name": "transferOwnership",
      "outputs": [],
      "stateMutability": "nonpayable",
      "type": "function"
    }
  ],
  "bytecode": "0x60806040523480156200001157600080fd5b5060405162002f2d38038062002f2d833981810160405281019062000037919062000348565b30828281600090816200004b919062000618565b5080600190816200005d919062000618565b505050600073ffffffffffffffffffffffffffffffffffffffff168173ffffffffffffffffffffffffffffffffffffffff1603620000d55760006040517f1e4fbdf7000000000000000000000000000000000000000000000000000000008152600401620000cc919062000744565b60405180910390fd5b620000e681620000ef60201b60201c565b50505062000761565b6000600760009054906101000a900473ffffffffffffffffffffffffffffffffffffffff16905081600760006101000a81548173ffffffffffffffffffffffffffffffffffffffff021916908373ffffffffffffffffffffffffffffffffffffffff1602179055508173ffffffffffffffffffffffffffffffffffffffff168173ffffffffffffffffffffffffffffffffffffffff167f8be0079c531659141344cd1fd0a4f28419497f9722a3daafe3b4186f6b6457e060405160405180910390a35050565b6000604051905090565b600080fd5b600080fd5b600080fd5b600080fd5b6000601f19601f8301169050919050565b7f4e487b7100000000000000000000000000000000000000000000000000000000600052604160045260246000fd5b6200021e82620001d3565b810181811067ffffffffffffffff8211171562000240576200023f620001e4565b5b80604052505050565b600062000255620001b5565b905062000263828262000213565b919050565b600067ffffffffffffffff821115620002865762000285620001e4565b5b6200029182620001d3565b9050602081019050919050565b60005b83811015620002be578082015181840152602081019050620002a1565b60008484015250505050565b6000620002e1620002db8462000268565b62000249565b9050828152602081018484840111156200030057620002ff620001ce565b5b6200030d8482856200029e565b509392505050565b600082601f8301126200032d576200032c620001c9565b5b81516200033f848260208601620002ca565b91505092915050565b60008060408385031215620003625762000361620001bf565b5b600083015167ffffffffffffffff811115620003835762000382620001c4565b5b620003918582860162000315565b925050602083015167ffffffffffffffff811115620003b557620003b4620001c4565b5b620003c38582860162000315565b9150509250929050565b600081519050919050565b7f4e487b7100000000000000000000000000000000000000000000000000000000600052602260045260246000fd5b600060028204905060018216806200042057607f821691505b602082108103620004365762000435620003d8565b5b50919050565b60008190508160005260206000209050919050565b60006020601f8301049050919050565b600082821b905092915050565b600060088302620004a07fffffffffffffffffffffffffffffffffffffffffffffffffffffffffffffffff8262000461565b620004ac868362000461565b95508019841693508086168417925050509392505050565b6000819050919050565b6000819050919050565b6000620004f9620004f3620004ed84620004c4565b620004ce565b620004c4565b9050919050565b6000819050919050565b6200051583620004d8565b6200052d620005248262000500565b8484546200046e565b825550505050565b600090565b6200054462000535565b620005518184846200050a565b505050565b5b8181101562000579576200056d6000826200053a565b60018101905062000557565b5050565b601f821115620005c85762000592816200043c565b6200059d8462000451565b81016020851015620005ad578190505b620005c5620005bc8562000451565b83018262000556565b50505b505050565b600082821c905092915050565b6000620005ed60001984600802620005cd565b1980831691505092915050565b6000620006088383620005da565b9150826002028217905092915050565b6200062382620003cd565b67ffffffffffffffff8111156200063f576200063e620001e4565b5b6200064b825462000407565b620006588282856200057d565b600060209050601f8311600181146200069057600084156200067b578287015190505b620006878582620005fa565b865550620006f7565b601f198416620006a0866200043c565b60005b82811015620006ca57848901518255600182019150602085019450602081019050620006a3565b86831015620006ea5784890151620006e6601f891682620005da565b8355505b6001600288020188555050505b505050505050565b600073ffffffffffffffffffffffffffffffffffffffff82169050919050565b60006200072c82620006ff565b9050919050565b6200073e816200071f565b82525050565b60006020820190506200075b600083018462000733565b92915050565b6127bc80620007716000396000f3fe608060405234801561001057600080fd5b50600436106101165760003560e01c80638da5cb5b116100a2578063c41a360a11610071578063c41a360a146102cb578063c87b56dd146102fc578063d0def5211461032c578063e985e9c51461035c578063f2fde38b1461038c57610116565b80638da5cb5b1461025757806395d89b4114610275578063a22cb46514610293578063b88d4fde146102af57610116565b806323b872dd116100e957806323b872dd146101b557806342842e0e146101d15780636352211e146101ed57806370a082311461021d578063715018a61461024d57610116565b806301ffc9a71461011b57806306fdde031461014b578063081812fc14610169578063095ea7b314610199575b600080fd5b61013560048036038101906101309190611bd0565b6103a8565b6040516101429190611c18565b60405180910390f35b6101536103ba565b6040516101609190611cc3565b60405180910390f35b610183600480360381019061017e9190611d1b565b61044c565b6040516101909190611d89565b60405180910390f35b6101b360048036038101906101ae9190611dd0565b610468565b005b6101cf60048036038101906101ca9190611e10565b61047e565b005b6101eb60048036038101906101e69190611e10565b610580565b005b61020760048036038101906102029190611d1b565b6105a0565b6040516102149190611d89565b60405180910390f35b61023760048036038101906102329190611e63565b6105b2565b6040516102449190611e9f565b60405180910390f35b61025561066c565b005b61025f610680565b60405161026c9190611d89565b60405180910390f35b61027d6106aa565b60405161028a9190611cc3565b60405180910390f35b6102ad60048036038101906102a89190611ee6565b61073c565b005b6102c960048036038101906102c4919061205b565b610752565b005b6102e560048036038101906102e09190611d1b565b61076f565b6040516102f39291906120de565b60405180910390f35b61031660048036038101906103119190611d1b565b61078b565b6040516103239190611cc3565b60405180910390f35b610346600480360381019061034191906121a8565b61079d565b6040516103539190611e9f565b60405180910390f35b61037660048036038101906103719190612204565b610843565b6040516103839190611c18565b60405180910390f35b6103a660048036038101906103a19190611e63565b6108d7565b005b60006103b38261095d565b9050919050565b6060600080546103c990612273565b80601f01602080910402602001604051908101604052809291908181526020018280546103f590612273565b80156104425780601f1061041757610100808354040283529160200191610442565b820191906000526020600020905b81548152906001019060200180831161042557829003601f168201915b5050505050905090565b6000610457826109be565b5061046182610a46565b9050919050565b61047a8282610475610a83565b610a8b565b5050565b600073ffffffffffffffffffffffffffffffffffffffff168273ffffffffffffffffffffffffffffffffffffffff16036104f05760006040517f64a0ae920000000000000000000000000000000000000000000000000000000081526004016104e79190611d89565b60405180910390fd5b600061050483836104ff610a83565b610a9d565b90508373ffffffffffffffffffffffffffffffffffffffff168173ffffffffffffffffffffffffffffffffffffffff161461057a578382826040517f64283d7b000000000000000000000000000000000000000000000000000000008152600401610571939291906122a4565b60405180910390fd5b50505050565b61059b83838360405180602001604052806000815250610752565b505050565b60006105ab826109be565b9050919050565b60008073ffffffffffffffffffffffffffffffffffffffff168273ffffffffffffffffffffffffffffffffffffffff16036106255760006040517f89c62b6400000000000000000000000000000000000000000000000000000000815260040161061c9190611d89565b60405180910390fd5b600360008373ffffffffffffffffffffffffffffffffffffffff1673ffffffffffffffffffffffffffffffffffffffff168152602001908152602001600020549050919050565b610674610cb7565b61067e6000610d3e565b565b6000600760009054906101000a900473ffffffffffffffffffffffffffffffffffffffff16905090565b6060600180546106b990612273565b80601f01602080910402602001604051908101604052809291908181526020018280546106e590612273565b80156107325780601f1061070757610100808354040283529160200191610732565b820191906000526020600020905b81548152906001019060200180831161071557829003601f168201915b5050505050905090565b61074e610747610a83565b8383610e04565b5050565b61075d84848461047e565b61076984848484610f73565b50505050565b600080600061077d846105a0565b905083819250925050915091565b60606107968261112a565b9050919050565b60008073ffffffffffffffffffffffffffffffffffffffff168373ffffffffffffffffffffffffffffffffffffffff160361080d576040517f08c379a00000000000000000000000000000000000000000000000000000000081526004016108049061234d565b60405180910390fd5b6000610819600861123d565b9050610825848261124b565b61082f8184611269565b61083960086112c5565b8091505092915050565b6000600560008473ffffffffffffffffffffffffffffffffffffffff1673ffffffffffffffffffffffffffffffffffffffff16815260200190815260200160002060008373ffffffffffffffffffffffffffffffffffffffff1673ffffffffffffffffffffffffffffffffffffffff16815260200190815260200160002060009054906101000a900460ff16905092915050565b6108df610cb7565b600073ffffffffffffffffffffffffffffffffffffffff168173ffffffffffffffffffffffffffffffffffffffff16036109515760006040517f1e4fbdf70000000000000000000000000000000000000000000000000000000081526004016109489190611d89565b60405180910390fd5b61095a81610d3e565b50565b6000634906490660e01b7bffffffffffffffffffffffffffffffffffffffffffffffffffffffff1916827bffffffffffffffffffffffffffffffffffffffffffffffffffffffff191614806109b757506109b6826112db565b5b9050919050565b6000806109ca836113bd565b9050600073ffffffffffffffffffffffffffffffffffffffff168173ffffffffffffffffffffffffffffffffffffffff1603610a3d57826040517f7e273289000000000000000000000000000000000000000000000000000000008152600401610a349190611e9f565b60405180910390fd5b80915050919050565b60006004600083815260200190815260200160002060009054906101000a900473ffffffffffffffffffffffffffffffffffffffff169050919050565b600033905090565b610a9883838360016113fa565b505050565b600080610aa9846113bd565b9050600073ffffffffffffffffffffffffffffffffffffffff168373ffffffffffffffffffffffffffffffffffffffff1614610aeb57610aea8184866115bf565b5b600073ffffffffffffffffffffffffffffffffffffffff168173ffffffffffffffffffffffffffffffffffffffff1614610b7c57610b2d6000856000806113fa565b6001600360008373ffffffffffffffffffffffffffffffffffffffff1673ffffffffffffffffffffffffffffffffffffffff168152602001908152602001600020600082825403925050819055505b600073ffffffffffffffffffffffffffffffffffffffff168573ffffffffffffffffffffffffffffffffffffffff1614610bff576001600360008773ffffffffffffffffffffffffffffffffffffffff1673ffffffffffffffffffffffffffffffffffffffff168152602001908152602001600020600082825401925050819055505b846002600086815260200190815260200160002060006101000a81548173ffffffffffffffffffffffffffffffffffffffff021916908373ffffffffffffffffffffffffffffffffffffffff160217905550838573ffffffffffffffffffffffffffffffffffffffff168273ffffffffffffffffffffffffffffffffffffffff167fddf252ad1be2c89b69c2b068fc378daa952ba7f163c4a11628f55a4df523b3ef60405160405180910390a4809150509392505050565b610cbf610a83565b73ffffffffffffffffffffffffffffffffffffffff16610cdd610680565b73ffffffffffffffffffffffffffffffffffffffff1614610d3c57610d00610a83565b6040517f118cdaa7000000000000000000000000000000000000000000000000000000008152600401610d339190611d89565b60405180910390fd5b565b6000600760009054906101000a900473ffffffffffffffffffffffffffffffffffffffff16905081600760006101000a81548173ffffffffffffffffffffffffffffffffffffffff021916908373ffffffffffffffffffffffffffffffffffffffff1602179055508173ffffffffffffffffffffffffffffffffffffffff168173ffffffffffffffffffffffffffffffffffffffff167f8be0079c531659141344cd1fd0a4f28419497f9722a3daafe3b4186f6b6457e060405160405180910390a35050565b600073ffffffffffffffffffffffffffffffffffffffff168273ffffffffffffffffffffffffffffffffffffffff1603610e7557816040517f5b08ba18000000000000000000000000000000000000000000000000000000008152600401610e6c9190611d89565b60405180910390fd5b80600560008573ffffffffffffffffffffffffffffffffffffffff1673ffffffffffffffffffffffffffffffffffffffff16815260200190815260200160002060008473ffffffffffffffffffffffffffffffffffffffff1673ffffffffffffffffffffffffffffffffffffffff16815260200190815260200160002060006101000a81548160ff0219169083151502179055508173ffffffffffffffffffffffffffffffffffffffff168373ffffffffffffffffffffffffffffffffffffffff167f17307eab39ab6107e8899845ad3d59bd9653f200f220920489ca2b5937696c3183604051610f669190611c18565b60405180910390a3505050565b60008373ffffffffffffffffffffffffffffffffffffffff163b1115611124578273ffffffffffffffffffffffffffffffffffffffff1663150b7a02610fb7610a83565b8685856040518563ffffffff1660e01b8152600401610fd994939291906123c2565b6020604051808303816000875af192505050801561101557506040513d601f19601f820116820180604052508101906110129190612423565b60015b611099573d8060008114611045576040519150601f19603f3d011682016040523d82523d6000602084013e61104a565b606091505b50600081510361109157836040517f64a0ae920000000000000000000000000000000000000000000000000000000081526004016110889190611d89565b60405180910390fd5b805181602001fd5b63150b7a0260e01b7bffffffffffffffffffffffffffffffffffffffffffffffffffffffff1916817bffffffffffffffffffffffffffffffffffffffffffffffffffffffff19161461112257836040517f64a0ae920000000000000000000000000000000000000000000000000000000081526004016111199190611d89565b60405180910390fd5b505b50505050565b6060611135826109be565b50600060066000848152602001908152602001600020805461115690612273565b80601f016020809104026020016040519081016040528092919081815260200182805461118290612273565b80156111cf5780601f106111a4576101008083540402835291602001916111cf565b820191906000526020600020905b8154815290600101906020018083116111b257829003601f168201915b5050505050905060006111e0611683565b905060008151036111f5578192505050611238565b60008251111561122a57808260405160200161121292919061248c565b60405160208183030381529060405292505050611238565b6112338461169a565b925050505b919050565b600081600001549050919050565b611265828260405180602001604052806000815250611703565b5050565b80600660008481526020019081526020016000209081611289919061265c565b507ff8e1a15aba9398e019f0b49df1a4fde98ee17ae345cb5f6b5e2c27f5033e8ce7826040516112b99190611e9f565b60405180910390a15050565b6001816000016000828254019250508190555050565b60007f80ac58cd000000000000000000000000000000000000000000000000000000007bffffffffffffffffffffffffffffffffffffffffffffffffffffffff1916827bffffffffffffffffffffffffffffffffffffffffffffffffffffffff191614806113a657507f5b5e139f000000000000000000000000000000000000000000000000000000007bffffffffffffffffffffffffffffffffffffffffffffffffffffffff1916827bffffffffffffffffffffffffffffffffffffffffffffffffffffffff1916145b806113b657506113b58261171f565b5b9050919050565b60006002600083815260200190815260200160002060009054906101000a900473ffffffffffffffffffffffffffffffffffffffff169050919050565b80806114335750600073ffffffffffffffffffffffffffffffffffffffff168273ffffffffffffffffffffffffffffffffffffffff1614155b15611567576000611443846109be565b9050600073ffffffffffffffffffffffffffffffffffffffff168373ffffffffffffffffffffffffffffffffffffffff16141580156114ae57508273ffffffffffffffffffffffffffffffffffffffff168173ffffffffffffffffffffffffffffffffffffffff1614155b80156114c157506114bf8184610843565b155b1561150357826040517fa9fbf51f0000000000000000000000000000000000000000000000000000000081526004016114fa9190611d89565b60405180910390fd5b811561156557838573ffffffffffffffffffffffffffffffffffffffff168273ffffffffffffffffffffffffffffffffffffffff167f8c5be1e5ebec7d5bd14f71427d1e84f3dd0314c0f7b2291e5b200ac8c7c3b92560405160405180910390a45b505b836004600085815260200190815260200160002060006101000a81548173ffffffffffffffffffffffffffffffffffffffff021916908373ffffffffffffffffffffffffffffffffffffffff16021790555050505050565b6115ca838383611789565b61167e57600073ffffffffffffffffffffffffffffffffffffffff168373ffffffffffffffffffffffffffffffffffffffff160361163f57806040517f7e2732890000000000000000000000000000000000000000000000000000000081526004016116369190611e9f565b60405180910390fd5b81816040517f177e802f00000000000000000000000000000000000000000000000000000000815260040161167592919061272e565b60405180910390fd5b505050565b606060405180602001604052806000815250905090565b60606116a5826109be565b5060006116b0611683565b905060008151116116d057604051806020016040528060008152506116fb565b806116da8461184a565b6040516020016116eb92919061248c565b6040516020818303038152906040525b915050919050565b61170d8383611918565b61171a6000848484610f73565b505050565b60007f01ffc9a7000000000000000000000000000000000000000000000000000000007bffffffffffffffffffffffffffffffffffffffffffffffffffffffff1916827bffffffffffffffffffffffffffffffffffffffffffffffffffffffff1916149050919050565b60008073ffffffffffffffffffffffffffffffffffffffff168373ffffffffffffffffffffffffffffffffffffffff161415801561184157508273ffffffffffffffffffffffffffffffffffffffff168473ffffffffffffffffffffffffffffffffffffffff16148061180257506118018484610843565b5b8061184057508273ffffffffffffffffffffffffffffffffffffffff1661182883610a46565b73ffffffffffffffffffffffffffffffffffffffff16145b5b90509392505050565b60606000600161185984611a11565b01905060008167ffffffffffffffff81111561187857611877611f30565b5b6040519080825280601f01601f1916602001820160405280156118aa5781602001600182028036833780820191505090505b509050600082602001820190505b60011561190d578080600190039150507f3031323334353637383961626364656600000000000000000000000000000000600a86061a8153600a858161190157611900612757565b5b049450600085036118b8575b819350505050919050565b600073ffffffffffffffffffffffffffffffffffffffff168273ffffffffffffffffffffffffffffffffffffffff160361198a5760006040517f64a0ae920000000000000000000000000000000000000000000000000000000081526004016119819190611d89565b60405180910390fd5b600061199883836000610a9d565b9050600073ffffffffffffffffffffffffffffffffffffffff168173ffffffffffffffffffffffffffffffffffffffff1614611a0c5760006040517f73c6ac6e000000000000000000000000000000000000000000000000000000008152600401611a039190611d89565b60405180910390fd5b505050565b600080600090507a184f03e93ff9f4daa797ed6e38ed64bf6a1f0100000000000000008310611a6f577a184f03e93ff9f4daa797ed6e38ed64bf6a1f0100000000000000008381611a6557611a64612757565b5b0492506040810190505b6d04ee2d6d415b85acef81000000008310611aac576d04ee2d6d415b85acef81000000008381611aa257611aa1612757565b5b0492506020810190505b662386f26fc100008310611adb57662386f26fc100008381611ad157611ad0612757565b5b0492506010810190505b6305f5e1008310611b04576305f5e1008381611afa57611af9612757565b5b0492506008810190505b6127108310611b29576127108381611b1f57611b1e612757565b5b0492506004810190505b60648310611b4c5760648381611b4257611b41612757565b5b0492506002810190505b600a8310611b5b576001810190505b80915050919050565b6000604051905090565b600080fd5b600080fd5b60007fffffffff0000000000000000000000000000000000000000000000000000000082169050919050565b611bad81611b78565b8114611bb857600080fd5b50565b600081359050611bca81611ba4565b92915050565b600060208284031215611be657611be5611b6e565b5b6000611bf484828501611bbb565b91505092915050565b60008115159050919050565b611c1281611bfd565b82525050565b6000602082019050611c2d6000830184611c09565b92915050565b600081519050919050565b600082825260208201905092915050565b60005b83811015611c6d578082015181840152602081019050611c52565b60008484015250505050565b6000601f19601f8301169050919050565b6000611c9582611c33565b611c9f8185611c3e565b9350611caf818560208601611c4f565b611cb881611c79565b840191505092915050565b60006020820190508181036000830152611cdd8184611c8a565b905092915050565b6000819050919050565b611cf881611ce5565b8114611d0357600080fd5b50565b600081359050611d1581611cef565b92915050565b600060208284031215611d3157611d30611b6e565b5b6000611d3f84828501611d06565b91505092915050565b600073ffffffffffffffffffffffffffffffffffffffff82169050919050565b6000611d7382611d48565b9050919050565b611d8381611d68565b82525050565b6000602082019050611d9e6000830184611d7a565b92915050565b611dad81611d68565b8114611db857600080fd5b50565b600081359050611dca81611da4565b92915050565b60008060408385031215611de757611de6611b6e565b5b6000611df585828601611dbb565b9250506020611e0685828601611d06565b9150509250929050565b600080600060608486031215611e2957611e28611b6e565b5b6000611e3786828701611dbb565b9350506020611e4886828701611dbb565b9250506040611e5986828701611d06565b9150509250925092565b600060208284031215611e7957611e78611b6e565b5b6000611e8784828501611dbb565b91505092915050565b611e9981611ce5565b82525050565b6000602082019050611eb46000830184611e90565b92915050565b611ec381611bfd565b8114611ece57600080fd5b50565b600081359050611ee081611eba565b92915050565b60008060408385031215611efd57611efc611b6e565b5b6000611f0b85828601611dbb565b9250506020611f1c85828601611ed1565b9150509250929050565b600080fd5b600080fd5b7f4e487b7100000000000000000000000000000000000000000000000000000000600052604160045260246000fd5b611f6882611c79565b810181811067ffffffffffffffff82111715611f8757611f86611f30565b5b80604052505050565b6000611f9a611b64565b9050611fa68282611f5f565b919050565b600067ffffffffffffffff821115611fc657611fc5611f30565b5b611fcf82611c79565b9050602081019050919050565b82818337600083830152505050565b6000611ffe611ff984611fab565b611f90565b90508281526020810184848401111561201a57612019611f2b565b5b612025848285611fdc565b509392505050565b600082601f83011261204257612041611f26565b5b8135612052848260208601611feb565b91505092915050565b6000806000806080858703121561207557612074611b6e565b5b600061208387828801611dbb565b945050602061209487828801611dbb565b93505060406120a587828801611d06565b925050606085013567ffffffffffffffff8111156120c6576120c5611b73565b5b6120d28782880161202d565b91505092959194509250565b60006040820190506120f36000830185611e90565b6121006020830184611d7a565b9392505050565b600067ffffffffffffffff82111561212257612121611f30565b5b61212b82611c79565b9050602081019050919050565b600061214b61214684612107565b611f90565b90508281526020810184848401111561216757612166611f2b565b5b612172848285611fdc565b509392505050565b600082601f83011261218f5761218e611f26565b5b813561219f848260208601612138565b91505092915050565b600080604083850312156121bf576121be611b6e565b5b60006121cd85828601611dbb565b925050602083013567ffffffffffffffff8111156121ee576121ed611b73565b5b6121fa8582860161217a565b9150509250929050565b6000806040838503121561221b5761221a611b6e565b5b600061222985828601611dbb565b925050602061223a85828601611dbb565b9150509250929050565b7f4e487b7100000000000000000000000000000000000000000000000000000000600052602260045260246000fd5b6000600282049050600182168061228b57607f821691505b60208210810361229e5761229d612244565b5b50919050565b60006060820190506122b96000830186611d7a565b6122c66020830185611e90565b6122d36040830184611d7a565b949350505050565b7f4d696e74206572726f723a2064657374696e6174696f6e20616464726573732060008201527f63616e2774206265207a65726f2e000000000000000000000000000000000000602082015250565b6000612337602e83611c3e565b9150612342826122db565b604082019050919050565b600060208201905081810360008301526123668161232a565b9050919050565b600081519050919050565b600082825260208201905092915050565b60006123948261236d565b61239e8185612378565b93506123ae818560208601611c4f565b6123b781611c79565b840191505092915050565b60006080820190506123d76000830187611d7a565b6123e46020830186611d7a565b6123f16040830185611e90565b81810360608301526124038184612389565b905095945050505050565b60008151905061241d81611ba4565b92915050565b60006020828403121561243957612438611b6e565b5b60006124478482850161240e565b91505092915050565b600081905092915050565b600061246682611c33565b6124708185612450565b9350612480818560208601611c4f565b80840191505092915050565b6000612498828561245b565b91506124a4828461245b565b91508190509392505050565b60008190508160005260206000209050919050565b60006020601f8301049050919050565b600082821b905092915050565b6000600883026125127fffffffffffffffffffffffffffffffffffffffffffffffffffffffffffffffff826124d5565b61251c86836124d5565b95508019841693508086168417925050509392505050565b6000819050919050565b600061255961255461254f84611ce5565b612534565b611ce5565b9050919050565b6000819050919050565b6125738361253e565b61258761257f82612560565b8484546124e2565b825550505050565b600090565b61259c61258f565b6125a781848461256a565b505050565b5b818110156125cb576125c0600082612594565b6001810190506125ad565b5050565b601f821115612610576125e1816124b0565b6125ea846124c5565b810160208510156125f9578190505b61260d612605856124c5565b8301826125ac565b50505b505050565b600082821c905092915050565b600061263360001984600802612615565b1980831691505092915050565b600061264c8383612622565b9150826002028217905092915050565b61266582611c33565b67ffffffffffffffff81111561267e5761267d611f30565b5b6126888254612273565b6126938282856125cf565b600060209050601f8311600181146126c657600084156126b4578287015190505b6126be8582612640565b865550612726565b601f1984166126d4866124b0565b60005b828110156126fc578489015182556001820191506020850194506020810190506126d7565b868310156127195784890151612715601f891682612622565b8355505b6001600288020188555050505b505050505050565b60006040820190506127436000830185611d7a565b6127506020830184611e90565b9392505050565b7f4e487b7100000000000000000000000000000000000000000000000000000000600052601260045260246000fdfea264697066735822122058d36a3f2375881e98dcc31e751bc3448d4fc552efcec266891fa368be81310464736f6c63430008140033",
  "linkReferences": {},
  "deployedLinkReferences": {}
}