{
  "_format": "hh-sol-artifact-1",
  "contractName": "ERC6551Registry",
  "sourceName": "contracts/thirdparty/ERC6551Registry.sol",
  "abi": [
    {
      "inputs": [],
      "name": "AccountCreationFailed",
      "type": "error"
    },
    {
      "anonymous": false,
      "inputs": [
        {
          "indexed": false,
          "internalType": "address",
          "name": "account",
          "type": "address"
        },
        {
          "indexed": true,
          "internalType": "address",
          "name": "implementation",
          "type": "address"
        },
        {
          "indexed": false,
          "internalType": "uint256",
          "name": "chainId",
          "type": "uint256"
        },
        {
          "indexed": true,
          "internalType": "address",
          "name": "tokenContract",
          "type": "address"
        },
        {
          "indexed": true,
          "internalType": "uint256",
          "name": "tokenId",
          "type": "uint256"
        },
        {
          "indexed": false,
          "internalType": "uint256",
          "name": "salt",
          "type": "uint256"
        }
      ],
      "name": "AccountCreated",
      "type": "event"
    },
    {
      "inputs": [
        {
          "internalType": "address",
          "name": "implementation",
          "type": "address"
        },
        {
          "internalType": "uint256",
          "name": "chainId",
          "type": "uint256"
        },
        {
          "internalType": "address",
          "name": "tokenContract",
          "type": "address"
        },
        {
          "internalType": "uint256",
          "name": "tokenId",
          "type": "uint256"
        },
        {
          "internalType": "uint256",
          "name": "salt",
          "type": "uint256"
        }
      ],
      "name": "account",
      "outputs": [
        {
          "internalType": "address",
          "name": "",
          "type": "address"
        }
      ],
      "stateMutability": "view",
      "type": "function"
    },
    {
      "inputs": [
        {
          "internalType": "address",
          "name": "implementation",
          "type": "address"
        },
        {
          "internalType": "uint256",
          "name": "chainId",
          "type": "uint256"
        },
        {
          "internalType": "address",
          "name": "tokenContract",
          "type": "address"
        },
        {
          "internalType": "uint256",
          "name": "tokenId",
          "type": "uint256"
        },
        {
          "internalType": "uint256",
          "name": "salt",
          "type": "uint256"
        },
        {
          "internalType": "bytes",
          "name": "initData",
          "type": "bytes"
        }
      ],
      "name": "createAccount",
      "outputs": [
        {
          "internalType": "address",
          "name": "",
          "type": "address"
        }
      ],
      "stateMutability": "nonpayable",
      "type": "function"
    }
  ],
  "bytecode": "0x608060405234801561001057600080fd5b506108d6806100206000396000f3fe608060405234801561001057600080fd5b50600436106100365760003560e01c80635e9bc5361461003b578063da7323b31461006b575b600080fd5b610055600480360381019061005091906103d0565b61009b565b604051610062919061045a565b60405180910390f35b610085600480360381019061008091906105bb565b6100cd565b604051610092919061045a565b60405180910390f35b6000806100ab8787878787610294565b8051906020012090506100c18360001b826102e8565b91505095945050505050565b6000806100dd8888888888610294565b905060006100f58560001b83805190602001206102e8565b905060008173ffffffffffffffffffffffffffffffffffffffff163b1461012057809250505061028a565b858773ffffffffffffffffffffffffffffffffffffffff168a73ffffffffffffffffffffffffffffffffffffffff167f07fba7bba1191da7ee1155dcfa0030701c9c9a9cc34a93b991fc6fd0c9268d8f848c8a60405161018293929190610673565b60405180910390a4848251602084016000f59050600073ffffffffffffffffffffffffffffffffffffffff168173ffffffffffffffffffffffffffffffffffffffff16036101fc576040517f20188a5900000000000000000000000000000000000000000000000000000000815260040160405180910390fd5b6000845114610284576000808273ffffffffffffffffffffffffffffffffffffffff168660405161022d919061071b565b6000604051808303816000865af19150503d806000811461026a576040519150601f19603f3d011682016040523d82523d6000602084013e61026f565b606091505b50915091508161028157805160208201fd5b50505b80925050505b9695505050505050565b606085828686866040516020016102ae9493929190610732565b6040516020818303038152906040526040516020016102ce929190610862565b604051602081830303815290604052905095945050505050565b60006102f58383306102fd565b905092915050565b6000604051836040820152846020820152828152600b810160ff815360558120925050509392505050565b6000604051905090565b600080fd5b600080fd5b600073ffffffffffffffffffffffffffffffffffffffff82169050919050565b60006103678261033c565b9050919050565b6103778161035c565b811461038257600080fd5b50565b6000813590506103948161036e565b92915050565b6000819050919050565b6103ad8161039a565b81146103b857600080fd5b50565b6000813590506103ca816103a4565b92915050565b600080600080600060a086880312156103ec576103eb610332565b5b60006103fa88828901610385565b955050602061040b888289016103bb565b945050604061041c88828901610385565b935050606061042d888289016103bb565b925050608061043e888289016103bb565b9150509295509295909350565b6104548161035c565b82525050565b600060208201905061046f600083018461044b565b92915050565b600080fd5b600080fd5b6000601f19601f8301169050919050565b7f4e487b7100000000000000000000000000000000000000000000000000000000600052604160045260246000fd5b6104c88261047f565b810181811067ffffffffffffffff821117156104e7576104e6610490565b5b80604052505050565b60006104fa610328565b905061050682826104bf565b919050565b600067ffffffffffffffff82111561052657610525610490565b5b61052f8261047f565b9050602081019050919050565b82818337600083830152505050565b600061055e6105598461050b565b6104f0565b90508281526020810184848401111561057a5761057961047a565b5b61058584828561053c565b509392505050565b600082601f8301126105a2576105a1610475565b5b81356105b284826020860161054b565b91505092915050565b60008060008060008060c087890312156105d8576105d7610332565b5b60006105e689828a01610385565b96505060206105f789828a016103bb565b955050604061060889828a01610385565b945050606061061989828a016103bb565b935050608061062a89828a016103bb565b92505060a087013567ffffffffffffffff81111561064b5761064a610337565b5b61065789828a0161058d565b9150509295509295509295565b61066d8161039a565b82525050565b6000606082019050610688600083018661044b565b6106956020830185610664565b6106a26040830184610664565b949350505050565b600081519050919050565b600081905092915050565b60005b838110156106de5780820151818401526020810190506106c3565b60008484015250505050565b60006106f5826106aa565b6106ff81856106b5565b935061070f8185602086016106c0565b80840191505092915050565b600061072782846106ea565b915081905092915050565b60006080820190506107476000830187610664565b6107546020830186610664565b610761604083018561044b565b61076e6060830184610664565b95945050505050565b600081905092915050565b7f3d60ad80600a3d3981f3363d3d373d3d3d363d73000000000000000000000000600082015250565b60006107b8601483610777565b91506107c382610782565b601482019050919050565b60008160601b9050919050565b60006107e6826107ce565b9050919050565b60006107f8826107db565b9050919050565b61081061080b8261035c565b6107ed565b82525050565b7f5af43d82803e903d91602b57fd5bf30000000000000000000000000000000000600082015250565b600061084c600f83610777565b915061085782610816565b600f82019050919050565b600061086d826107ab565b915061087982856107ff565b6014820191506108888261083f565b915061089482846106ea565b9150819050939250505056fea2646970667358221220c42149ea0e5f02433ef6b2d098b14ec861397ed0e160fd374ea3ee23808eed9e64736f6c63430008140033",
  "linkReferences": {},
  "deployedLinkReferences": {}
}