{
  "_format": "hh-sol-artifact-1",
  "contractName": "ERC4907",
  "sourceName": "contracts/thirdparty/ERC4907.sol",
  "abi": [
    {
      "inputs": [
        {
          "internalType": "string",
          "name": "name_",
          "type": "string"
        },
        {
          "internalType": "string",
          "name": "symbol_",
          "type": "string"
        }
      ],
      "stateMutability": "nonpayable",
      "type": "constructor"
    },
    {
      "inputs": [
        {
          "internalType": "address",
          "name": "sender",
          "type": "address"
        },
        {
          "internalType": "uint256",
          "name": "tokenId",
          "type": "uint256"
        },
        {
          "internalType": "address",
          "name": "owner",
          "type": "address"
        }
      ],
      "name": "ERC721IncorrectOwner",
      "type": "error"
    },
    {
      "inputs": [
        {
          "internalType": "address",
          "name": "operator",
          "type": "address"
        },
        {
          "internalType": "uint256",
          "name": "tokenId",
          "type": "uint256"
        }
      ],
      "name": "ERC721InsufficientApproval",
      "type": "error"
    },
    {
      "inputs": [
        {
          "internalType": "address",
          "name": "approver",
          "type": "address"
        }
      ],
      "name": "ERC721InvalidApprover",
      "type": "error"
    },
    {
      "inputs": [
        {
          "internalType": "address",
          "name": "operator",
          "type": "address"
        }
      ],
      "name": "ERC721InvalidOperator",
      "type": "error"
    },
    {
      "inputs": [
        {
          "internalType": "address",
          "name": "owner",
          "type": "address"
        }
      ],
      "name": "ERC721InvalidOwner",
      "type": "error"
    },
    {
      "inputs": [
        {
          "internalType": "address",
          "name": "receiver",
          "type": "address"
        }
      ],
      "name": "ERC721InvalidReceiver",
      "type": "error"
    },
    {
      "inputs": [
        {
          "internalType": "address",
          "name": "sender",
          "type": "address"
        }
      ],
      "name": "ERC721InvalidSender",
      "type": "error"
    },
    {
      "inputs": [
        {
          "internalType": "uint256",
          "name": "tokenId",
          "type": "uint256"
        }
      ],
      "name": "ERC721NonexistentToken",
      "type": "error"
    },
    {
      "anonymous": false,
      "inputs": [
        {
          "indexed": true,
          "internalType": "address",
          "name": "owner",
          "type": "address"
        },
        {
          "indexed": true,
          "internalType": "address",
          "name": "approved",
          "type": "address"
        },
        {
          "indexed": true,
          "internalType": "uint256",
          "name": "tokenId",
          "type": "uint256"
        }
      ],
      "name": "Approval",
      "type": "event"
    },
    {
      "anonymous": false,
      "inputs": [
        {
          "indexed": true,
          "internalType": "address",
          "name": "owner",
          "type": "address"
        },
        {
          "indexed": true,
          "internalType": "address",
          "name": "operator",
          "type": "address"
        },
        {
          "indexed": false,
          "internalType": "bool",
          "name": "approved",
          "type": "bool"
        }
      ],
      "name": "ApprovalForAll",
      "type": "event"
    },
    {
      "anonymous": false,
      "inputs": [
        {
          "indexed": true,
          "internalType": "address",
          "name": "from",
          "type": "address"
        },
        {
          "indexed": true,
          "internalType": "address",
          "name": "to",
          "type": "address"
        },
        {
          "indexed": true,
          "internalType": "uint256",
          "name": "tokenId",
          "type": "uint256"
        }
      ],
      "name": "Transfer",
      "type": "event"
    },
    {
      "anonymous": false,
      "inputs": [
        {
          "indexed": true,
          "internalType": "uint256",
          "name": "tokenId",
          "type": "uint256"
        },
        {
          "indexed": true,
          "internalType": "address",
          "name": "user",
          "type": "address"
        },
        {
          "indexed": false,
          "internalType": "uint64",
          "name": "expires",
          "type": "uint64"
        }
      ],
      "name": "UpdateUser",
      "type": "event"
    },
    {
      "inputs": [
        {
          "internalType": "address",
          "name": "to",
          "type": "address"
        },
        {
          "internalType": "uint256",
          "name": "tokenId",
          "type": "uint256"
        }
      ],
      "name": "approve",
      "outputs": [],
      "stateMutability": "nonpayable",
      "type": "function"
    },
    {
      "inputs": [
        {
          "internalType": "address",
          "name": "owner",
          "type": "address"
        }
      ],
      "name": "balanceOf",
      "outputs": [
        {
          "internalType": "uint256",
          "name": "",
          "type": "uint256"
        }
      ],
      "stateMutability": "view",
      "type": "function"
    },
    {
      "inputs": [
        {
          "internalType": "uint256",
          "name": "tokenId",
          "type": "uint256"
        }
      ],
      "name": "getApproved",
      "outputs": [
        {
          "internalType": "address",
          "name": "",
          "type": "address"
        }
      ],
      "stateMutability": "view",
      "type": "function"
    },
    {
      "inputs": [
        {
          "internalType": "address",
          "name": "owner",
          "type": "address"
        },
        {
          "internalType": "address",
          "name": "operator",
          "type": "address"
        }
      ],
      "name": "isApprovedForAll",
      "outputs": [
        {
          "internalType": "bool",
          "name": "",
          "type": "bool"
        }
      ],
      "stateMutability": "view",
      "type": "function"
    },
    {
      "inputs": [
        {
          "internalType": "address",
          "name": "to",
          "type": "address"
        },
        {
          "internalType": "uint256",
          "name": "tokenId",
          "type": "uint256"
        }
      ],
      "name": "mint",
      "outputs": [],
      "stateMutability": "nonpayable",
      "type": "function"
    },
    {
      "inputs": [],
      "name": "name",
      "outputs": [
        {
          "internalType": "string",
          "name": "",
          "type": "string"
        }
      ],
      "stateMutability": "view",
      "type": "function"
    },
    {
      "inputs": [
        {
          "internalType": "uint256",
          "name": "tokenId",
          "type": "uint256"
        }
      ],
      "name": "ownerOf",
      "outputs": [
        {
          "internalType": "address",
          "name": "",
          "type": "address"
        }
      ],
      "stateMutability": "view",
      "type": "function"
    },
    {
      "inputs": [
        {
          "internalType": "address",
          "name": "from",
          "type": "address"
        },
        {
          "internalType": "address",
          "name": "to",
          "type": "address"
        },
        {
          "internalType": "uint256",
          "name": "tokenId",
          "type": "uint256"
        }
      ],
      "name": "safeTransferFrom",
      "outputs": [],
      "stateMutability": "nonpayable",
      "type": "function"
    },
    {
      "inputs": [
        {
          "internalType": "address",
          "name": "from",
          "type": "address"
        },
        {
          "internalType": "address",
          "name": "to",
          "type": "address"
        },
        {
          "internalType": "uint256",
          "name": "tokenId",
          "type": "uint256"
        },
        {
          "internalType": "bytes",
          "name": "data",
          "type": "bytes"
        }
      ],
      "name": "safeTransferFrom",
      "outputs": [],
      "stateMutability": "nonpayable",
      "type": "function"
    },
    {
      "inputs": [
        {
          "internalType": "address",
          "name": "operator",
          "type": "address"
        },
        {
          "internalType": "bool",
          "name": "approved",
          "type": "bool"
        }
      ],
      "name": "setApprovalForAll",
      "outputs": [],
      "stateMutability": "nonpayable",
      "type": "function"
    },
    {
      "inputs": [
        {
          "internalType": "uint256",
          "name": "tokenId",
          "type": "uint256"
        },
        {
          "internalType": "address",
          "name": "user",
          "type": "address"
        },
        {
          "internalType": "uint64",
          "name": "expires",
          "type": "uint64"
        }
      ],
      "name": "setUser",
      "outputs": [],
      "stateMutability": "nonpayable",
      "type": "function"
    },
    {
      "inputs": [
        {
          "internalType": "bytes4",
          "name": "interfaceId",
          "type": "bytes4"
        }
      ],
      "name": "supportsInterface",
      "outputs": [
        {
          "internalType": "bool",
          "name": "",
          "type": "bool"
        }
      ],
      "stateMutability": "view",
      "type": "function"
    },
    {
      "inputs": [],
      "name": "symbol",
      "outputs": [
        {
          "internalType": "string",
          "name": "",
          "type": "string"
        }
      ],
      "stateMutability": "view",
      "type": "function"
    },
    {
      "inputs": [
        {
          "internalType": "uint256",
          "name": "tokenId",
          "type": "uint256"
        }
      ],
      "name": "tokenURI",
      "outputs": [
        {
          "internalType": "string",
          "name": "",
          "type": "string"
        }
      ],
      "stateMutability": "view",
      "type": "function"
    },
    {
      "inputs": [
        {
          "internalType": "address",
          "name": "from",
          "type": "address"
        },
        {
          "internalType": "address",
          "name": "to",
          "type": "address"
        },
        {
          "internalType": "uint256",
          "name": "tokenId",
          "type": "uint256"
        }
      ],
      "name": "transferFrom",
      "outputs": [],
      "stateMutability": "nonpayable",
      "type": "function"
    },
    {
      "inputs": [
        {
          "internalType": "uint256",
          "name": "tokenId",
          "type": "uint256"
        }
      ],
      "name": "userExpires",
      "outputs": [
        {
          "internalType": "uint256",
          "name": "",
          "type": "uint256"
        }
      ],
      "stateMutability": "view",
      "type": "function"
    },
    {
      "inputs": [
        {
          "internalType": "uint256",
          "name": "tokenId",
          "type": "uint256"
        }
      ],
      "name": "userOf",
      "outputs": [
        {
          "internalType": "address",
          "name": "",
          "type": "address"
        }
      ],
      "stateMutability": "view",
      "type": "function"
    }
  ],
  "bytecode": "0x60806040523480156200001157600080fd5b50604051620026ec380380620026ec8339818101604052810190620000379190620001fa565b818181600090816200004a9190620004ca565b5080600190816200005c9190620004ca565b5050505050620005b1565b6000604051905090565b600080fd5b600080fd5b600080fd5b600080fd5b6000601f19601f8301169050919050565b7f4e487b7100000000000000000000000000000000000000000000000000000000600052604160045260246000fd5b620000d08262000085565b810181811067ffffffffffffffff82111715620000f257620000f162000096565b5b80604052505050565b60006200010762000067565b9050620001158282620000c5565b919050565b600067ffffffffffffffff82111562000138576200013762000096565b5b620001438262000085565b9050602081019050919050565b60005b838110156200017057808201518184015260208101905062000153565b60008484015250505050565b6000620001936200018d846200011a565b620000fb565b905082815260208101848484011115620001b257620001b162000080565b5b620001bf84828562000150565b509392505050565b600082601f830112620001df57620001de6200007b565b5b8151620001f18482602086016200017c565b91505092915050565b6000806040838503121562000214576200021362000071565b5b600083015167ffffffffffffffff81111562000235576200023462000076565b5b6200024385828601620001c7565b925050602083015167ffffffffffffffff81111562000267576200026662000076565b5b6200027585828601620001c7565b9150509250929050565b600081519050919050565b7f4e487b7100000000000000000000000000000000000000000000000000000000600052602260045260246000fd5b60006002820490506001821680620002d257607f821691505b602082108103620002e857620002e76200028a565b5b50919050565b60008190508160005260206000209050919050565b60006020601f8301049050919050565b600082821b905092915050565b600060088302620003527fffffffffffffffffffffffffffffffffffffffffffffffffffffffffffffffff8262000313565b6200035e868362000313565b95508019841693508086168417925050509392505050565b6000819050919050565b6000819050919050565b6000620003ab620003a56200039f8462000376565b62000380565b62000376565b9050919050565b6000819050919050565b620003c7836200038a565b620003df620003d682620003b2565b84845462000320565b825550505050565b600090565b620003f6620003e7565b62000403818484620003bc565b505050565b5b818110156200042b576200041f600082620003ec565b60018101905062000409565b5050565b601f8211156200047a576200044481620002ee565b6200044f8462000303565b810160208510156200045f578190505b620004776200046e8562000303565b83018262000408565b50505b505050565b600082821c905092915050565b60006200049f600019846008026200047f565b1980831691505092915050565b6000620004ba83836200048c565b9150826002028217905092915050565b620004d5826200027f565b67ffffffffffffffff811115620004f157620004f062000096565b5b620004fd8254620002b9565b6200050a8282856200042f565b600060209050601f8311600181146200054257600084156200052d578287015190505b620005398582620004ac565b865550620005a9565b601f1984166200055286620002ee565b60005b828110156200057c5784890151825560018201915060208501945060208101905062000555565b868310156200059c578489015162000598601f8916826200048c565b8355505b6001600288020188555050505b505050505050565b61212b80620005c16000396000f3fe608060405234801561001057600080fd5b506004361061010b5760003560e01c806370a08231116100a2578063b88d4fde11610071578063b88d4fde146102c8578063c2f1f14a146102e4578063c87b56dd14610314578063e030565e14610344578063e985e9c5146103605761010b565b806370a082311461022e5780638fc88c481461025e57806395d89b411461028e578063a22cb465146102ac5761010b565b806323b872dd116100de57806323b872dd146101aa57806340c10f19146101c657806342842e0e146101e25780636352211e146101fe5761010b565b806301ffc9a71461011057806306fdde0314610140578063081812fc1461015e578063095ea7b31461018e575b600080fd5b61012a600480360381019061012591906118b8565b610390565b6040516101379190611900565b60405180910390f35b61014861040a565b60405161015591906119ab565b60405180910390f35b61017860048036038101906101739190611a03565b61049c565b6040516101859190611a71565b60405180910390f35b6101a860048036038101906101a39190611ab8565b6104b8565b005b6101c460048036038101906101bf9190611af8565b6104ce565b005b6101e060048036038101906101db9190611ab8565b6105d0565b005b6101fc60048036038101906101f79190611af8565b6105de565b005b61021860048036038101906102139190611a03565b6105fe565b6040516102259190611a71565b60405180910390f35b61024860048036038101906102439190611b4b565b610610565b6040516102559190611b87565b60405180910390f35b61027860048036038101906102739190611a03565b6106ca565b6040516102859190611b87565b60405180910390f35b610296610708565b6040516102a391906119ab565b60405180910390f35b6102c660048036038101906102c19190611bce565b61079a565b005b6102e260048036038101906102dd9190611d43565b6107b0565b005b6102fe60048036038101906102f99190611a03565b6107cd565b60405161030b9190611a71565b60405180910390f35b61032e60048036038101906103299190611a03565b610852565b60405161033b91906119ab565b60405180910390f35b61035e60048036038101906103599190611e06565b6108bb565b005b61037a60048036038101906103759190611e59565b610995565b6040516103879190611900565b60405180910390f35b60007fad092b5c000000000000000000000000000000000000000000000000000000007bffffffffffffffffffffffffffffffffffffffffffffffffffffffff1916827bffffffffffffffffffffffffffffffffffffffffffffffffffffffff19161480610403575061040282610a29565b5b9050919050565b60606000805461041990611ec8565b80601f016020809104026020016040519081016040528092919081815260200182805461044590611ec8565b80156104925780601f1061046757610100808354040283529160200191610492565b820191906000526020600020905b81548152906001019060200180831161047557829003601f168201915b5050505050905090565b60006104a782610b0b565b506104b182610b93565b9050919050565b6104ca82826104c5610bd0565b610bd8565b5050565b600073ffffffffffffffffffffffffffffffffffffffff168273ffffffffffffffffffffffffffffffffffffffff16036105405760006040517f64a0ae920000000000000000000000000000000000000000000000000000000081526004016105379190611a71565b60405180910390fd5b6000610554838361054f610bd0565b610bea565b90508373ffffffffffffffffffffffffffffffffffffffff168173ffffffffffffffffffffffffffffffffffffffff16146105ca578382826040517f64283d7b0000000000000000000000000000000000000000000000000000000081526004016105c193929190611ef9565b60405180910390fd5b50505050565b6105da8282610e04565b5050565b6105f9838383604051806020016040528060008152506107b0565b505050565b600061060982610b0b565b9050919050565b60008073ffffffffffffffffffffffffffffffffffffffff168273ffffffffffffffffffffffffffffffffffffffff16036106835760006040517f89c62b6400000000000000000000000000000000000000000000000000000000815260040161067a9190611a71565b60405180910390fd5b600360008373ffffffffffffffffffffffffffffffffffffffff1673ffffffffffffffffffffffffffffffffffffffff168152602001908152602001600020549050919050565b60006006600083815260200190815260200160002060000160149054906101000a900467ffffffffffffffff1667ffffffffffffffff169050919050565b60606001805461071790611ec8565b80601f016020809104026020016040519081016040528092919081815260200182805461074390611ec8565b80156107905780601f1061076557610100808354040283529160200191610790565b820191906000526020600020905b81548152906001019060200180831161077357829003601f168201915b5050505050905090565b6107ac6107a5610bd0565b8383610efd565b5050565b6107bb8484846104ce565b6107c78484848461106c565b50505050565b6000426006600084815260200190815260200160002060000160149054906101000a900467ffffffffffffffff1667ffffffffffffffff1610610848576006600083815260200190815260200160002060000160009054906101000a900473ffffffffffffffffffffffffffffffffffffffff16905061084d565b600090505b919050565b606061085d82610b0b565b506000610868611223565b9050600081511161088857604051806020016040528060008152506108b3565b806108928461123a565b6040516020016108a3929190611f6c565b6040516020818303038152906040525b915050919050565b6000600660008581526020019081526020016000209050828160000160006101000a81548173ffffffffffffffffffffffffffffffffffffffff021916908373ffffffffffffffffffffffffffffffffffffffff160217905550818160000160146101000a81548167ffffffffffffffff021916908367ffffffffffffffff1602179055508273ffffffffffffffffffffffffffffffffffffffff16847f4e06b4e7000e659094299b3533b47b6aa8ad048e95e872d23d1f4ee55af89cfe846040516109879190611f9f565b60405180910390a350505050565b6000600560008473ffffffffffffffffffffffffffffffffffffffff1673ffffffffffffffffffffffffffffffffffffffff16815260200190815260200160002060008373ffffffffffffffffffffffffffffffffffffffff1673ffffffffffffffffffffffffffffffffffffffff16815260200190815260200160002060009054906101000a900460ff16905092915050565b60007f80ac58cd000000000000000000000000000000000000000000000000000000007bffffffffffffffffffffffffffffffffffffffffffffffffffffffff1916827bffffffffffffffffffffffffffffffffffffffffffffffffffffffff19161480610af457507f5b5e139f000000000000000000000000000000000000000000000000000000007bffffffffffffffffffffffffffffffffffffffffffffffffffffffff1916827bffffffffffffffffffffffffffffffffffffffffffffffffffffffff1916145b80610b045750610b0382611308565b5b9050919050565b600080610b1783611372565b9050600073ffffffffffffffffffffffffffffffffffffffff168173ffffffffffffffffffffffffffffffffffffffff1603610b8a57826040517f7e273289000000000000000000000000000000000000000000000000000000008152600401610b819190611b87565b60405180910390fd5b80915050919050565b60006004600083815260200190815260200160002060009054906101000a900473ffffffffffffffffffffffffffffffffffffffff169050919050565b600033905090565b610be583838360016113af565b505050565b600080610bf684611372565b9050600073ffffffffffffffffffffffffffffffffffffffff168373ffffffffffffffffffffffffffffffffffffffff1614610c3857610c37818486611574565b5b600073ffffffffffffffffffffffffffffffffffffffff168173ffffffffffffffffffffffffffffffffffffffff1614610cc957610c7a6000856000806113af565b6001600360008373ffffffffffffffffffffffffffffffffffffffff1673ffffffffffffffffffffffffffffffffffffffff168152602001908152602001600020600082825403925050819055505b600073ffffffffffffffffffffffffffffffffffffffff168573ffffffffffffffffffffffffffffffffffffffff1614610d4c576001600360008773ffffffffffffffffffffffffffffffffffffffff1673ffffffffffffffffffffffffffffffffffffffff168152602001908152602001600020600082825401925050819055505b846002600086815260200190815260200160002060006101000a81548173ffffffffffffffffffffffffffffffffffffffff021916908373ffffffffffffffffffffffffffffffffffffffff160217905550838573ffffffffffffffffffffffffffffffffffffffff168273ffffffffffffffffffffffffffffffffffffffff167fddf252ad1be2c89b69c2b068fc378daa952ba7f163c4a11628f55a4df523b3ef60405160405180910390a4809150509392505050565b600073ffffffffffffffffffffffffffffffffffffffff168273ffffffffffffffffffffffffffffffffffffffff1603610e765760006040517f64a0ae92000000000000000000000000000000000000000000000000000000008152600401610e6d9190611a71565b60405180910390fd5b6000610e8483836000610bea565b9050600073ffffffffffffffffffffffffffffffffffffffff168173ffffffffffffffffffffffffffffffffffffffff1614610ef85760006040517f73c6ac6e000000000000000000000000000000000000000000000000000000008152600401610eef9190611a71565b60405180910390fd5b505050565b600073ffffffffffffffffffffffffffffffffffffffff168273ffffffffffffffffffffffffffffffffffffffff1603610f6e57816040517f5b08ba18000000000000000000000000000000000000000000000000000000008152600401610f659190611a71565b60405180910390fd5b80600560008573ffffffffffffffffffffffffffffffffffffffff1673ffffffffffffffffffffffffffffffffffffffff16815260200190815260200160002060008473ffffffffffffffffffffffffffffffffffffffff1673ffffffffffffffffffffffffffffffffffffffff16815260200190815260200160002060006101000a81548160ff0219169083151502179055508173ffffffffffffffffffffffffffffffffffffffff168373ffffffffffffffffffffffffffffffffffffffff167f17307eab39ab6107e8899845ad3d59bd9653f200f220920489ca2b5937696c318360405161105f9190611900565b60405180910390a3505050565b60008373ffffffffffffffffffffffffffffffffffffffff163b111561121d578273ffffffffffffffffffffffffffffffffffffffff1663150b7a026110b0610bd0565b8685856040518563ffffffff1660e01b81526004016110d2949392919061200f565b6020604051808303816000875af192505050801561110e57506040513d601f19601f8201168201806040525081019061110b9190612070565b60015b611192573d806000811461113e576040519150601f19603f3d011682016040523d82523d6000602084013e611143565b606091505b50600081510361118a57836040517f64a0ae920000000000000000000000000000000000000000000000000000000081526004016111819190611a71565b60405180910390fd5b805181602001fd5b63150b7a0260e01b7bffffffffffffffffffffffffffffffffffffffffffffffffffffffff1916817bffffffffffffffffffffffffffffffffffffffffffffffffffffffff19161461121b57836040517f64a0ae920000000000000000000000000000000000000000000000000000000081526004016112129190611a71565b60405180910390fd5b505b50505050565b606060405180602001604052806000815250905090565b60606000600161124984611638565b01905060008167ffffffffffffffff81111561126857611267611c18565b5b6040519080825280601f01601f19166020018201604052801561129a5781602001600182028036833780820191505090505b509050600082602001820190505b6001156112fd578080600190039150507f3031323334353637383961626364656600000000000000000000000000000000600a86061a8153600a85816112f1576112f061209d565b5b049450600085036112a8575b819350505050919050565b60007f01ffc9a7000000000000000000000000000000000000000000000000000000007bffffffffffffffffffffffffffffffffffffffffffffffffffffffff1916827bffffffffffffffffffffffffffffffffffffffffffffffffffffffff1916149050919050565b60006002600083815260200190815260200160002060009054906101000a900473ffffffffffffffffffffffffffffffffffffffff169050919050565b80806113e85750600073ffffffffffffffffffffffffffffffffffffffff168273ffffffffffffffffffffffffffffffffffffffff1614155b1561151c5760006113f884610b0b565b9050600073ffffffffffffffffffffffffffffffffffffffff168373ffffffffffffffffffffffffffffffffffffffff161415801561146357508273ffffffffffffffffffffffffffffffffffffffff168173ffffffffffffffffffffffffffffffffffffffff1614155b801561147657506114748184610995565b155b156114b857826040517fa9fbf51f0000000000000000000000000000000000000000000000000000000081526004016114af9190611a71565b60405180910390fd5b811561151a57838573ffffffffffffffffffffffffffffffffffffffff168273ffffffffffffffffffffffffffffffffffffffff167f8c5be1e5ebec7d5bd14f71427d1e84f3dd0314c0f7b2291e5b200ac8c7c3b92560405160405180910390a45b505b836004600085815260200190815260200160002060006101000a81548173ffffffffffffffffffffffffffffffffffffffff021916908373ffffffffffffffffffffffffffffffffffffffff16021790555050505050565b61157f83838361178b565b61163357600073ffffffffffffffffffffffffffffffffffffffff168373ffffffffffffffffffffffffffffffffffffffff16036115f457806040517f7e2732890000000000000000000000000000000000000000000000000000000081526004016115eb9190611b87565b60405180910390fd5b81816040517f177e802f00000000000000000000000000000000000000000000000000000000815260040161162a9291906120cc565b60405180910390fd5b505050565b600080600090507a184f03e93ff9f4daa797ed6e38ed64bf6a1f0100000000000000008310611696577a184f03e93ff9f4daa797ed6e38ed64bf6a1f010000000000000000838161168c5761168b61209d565b5b0492506040810190505b6d04ee2d6d415b85acef810000000083106116d3576d04ee2d6d415b85acef810000000083816116c9576116c861209d565b5b0492506020810190505b662386f26fc10000831061170257662386f26fc1000083816116f8576116f761209d565b5b0492506010810190505b6305f5e100831061172b576305f5e10083816117215761172061209d565b5b0492506008810190505b61271083106117505761271083816117465761174561209d565b5b0492506004810190505b6064831061177357606483816117695761176861209d565b5b0492506002810190505b600a8310611782576001810190505b80915050919050565b60008073ffffffffffffffffffffffffffffffffffffffff168373ffffffffffffffffffffffffffffffffffffffff161415801561184357508273ffffffffffffffffffffffffffffffffffffffff168473ffffffffffffffffffffffffffffffffffffffff16148061180457506118038484610995565b5b8061184257508273ffffffffffffffffffffffffffffffffffffffff1661182a83610b93565b73ffffffffffffffffffffffffffffffffffffffff16145b5b90509392505050565b6000604051905090565b600080fd5b600080fd5b60007fffffffff0000000000000000000000000000000000000000000000000000000082169050919050565b61189581611860565b81146118a057600080fd5b50565b6000813590506118b28161188c565b92915050565b6000602082840312156118ce576118cd611856565b5b60006118dc848285016118a3565b91505092915050565b60008115159050919050565b6118fa816118e5565b82525050565b600060208201905061191560008301846118f1565b92915050565b600081519050919050565b600082825260208201905092915050565b60005b8381101561195557808201518184015260208101905061193a565b60008484015250505050565b6000601f19601f8301169050919050565b600061197d8261191b565b6119878185611926565b9350611997818560208601611937565b6119a081611961565b840191505092915050565b600060208201905081810360008301526119c58184611972565b905092915050565b6000819050919050565b6119e0816119cd565b81146119eb57600080fd5b50565b6000813590506119fd816119d7565b92915050565b600060208284031215611a1957611a18611856565b5b6000611a27848285016119ee565b91505092915050565b600073ffffffffffffffffffffffffffffffffffffffff82169050919050565b6000611a5b82611a30565b9050919050565b611a6b81611a50565b82525050565b6000602082019050611a866000830184611a62565b92915050565b611a9581611a50565b8114611aa057600080fd5b50565b600081359050611ab281611a8c565b92915050565b60008060408385031215611acf57611ace611856565b5b6000611add85828601611aa3565b9250506020611aee858286016119ee565b9150509250929050565b600080600060608486031215611b1157611b10611856565b5b6000611b1f86828701611aa3565b9350506020611b3086828701611aa3565b9250506040611b41868287016119ee565b9150509250925092565b600060208284031215611b6157611b60611856565b5b6000611b6f84828501611aa3565b91505092915050565b611b81816119cd565b82525050565b6000602082019050611b9c6000830184611b78565b92915050565b611bab816118e5565b8114611bb657600080fd5b50565b600081359050611bc881611ba2565b92915050565b60008060408385031215611be557611be4611856565b5b6000611bf385828601611aa3565b9250506020611c0485828601611bb9565b9150509250929050565b600080fd5b600080fd5b7f4e487b7100000000000000000000000000000000000000000000000000000000600052604160045260246000fd5b611c5082611961565b810181811067ffffffffffffffff82111715611c6f57611c6e611c18565b5b80604052505050565b6000611c8261184c565b9050611c8e8282611c47565b919050565b600067ffffffffffffffff821115611cae57611cad611c18565b5b611cb782611961565b9050602081019050919050565b82818337600083830152505050565b6000611ce6611ce184611c93565b611c78565b905082815260208101848484011115611d0257611d01611c13565b5b611d0d848285611cc4565b509392505050565b600082601f830112611d2a57611d29611c0e565b5b8135611d3a848260208601611cd3565b91505092915050565b60008060008060808587031215611d5d57611d5c611856565b5b6000611d6b87828801611aa3565b9450506020611d7c87828801611aa3565b9350506040611d8d878288016119ee565b925050606085013567ffffffffffffffff811115611dae57611dad61185b565b5b611dba87828801611d15565b91505092959194509250565b600067ffffffffffffffff82169050919050565b611de381611dc6565b8114611dee57600080fd5b50565b600081359050611e0081611dda565b92915050565b600080600060608486031215611e1f57611e1e611856565b5b6000611e2d868287016119ee565b9350506020611e3e86828701611aa3565b9250506040611e4f86828701611df1565b9150509250925092565b60008060408385031215611e7057611e6f611856565b5b6000611e7e85828601611aa3565b9250506020611e8f85828601611aa3565b9150509250929050565b7f4e487b7100000000000000000000000000000000000000000000000000000000600052602260045260246000fd5b60006002820490506001821680611ee057607f821691505b602082108103611ef357611ef2611e99565b5b50919050565b6000606082019050611f0e6000830186611a62565b611f1b6020830185611b78565b611f286040830184611a62565b949350505050565b600081905092915050565b6000611f468261191b565b611f508185611f30565b9350611f60818560208601611937565b80840191505092915050565b6000611f788285611f3b565b9150611f848284611f3b565b91508190509392505050565b611f9981611dc6565b82525050565b6000602082019050611fb46000830184611f90565b92915050565b600081519050919050565b600082825260208201905092915050565b6000611fe182611fba565b611feb8185611fc5565b9350611ffb818560208601611937565b61200481611961565b840191505092915050565b60006080820190506120246000830187611a62565b6120316020830186611a62565b61203e6040830185611b78565b81810360608301526120508184611fd6565b905095945050505050565b60008151905061206a8161188c565b92915050565b60006020828403121561208657612085611856565b5b60006120948482850161205b565b91505092915050565b7f4e487b7100000000000000000000000000000000000000000000000000000000600052601260045260246000fd5b60006040820190506120e16000830185611a62565b6120ee6020830184611b78565b939250505056fea2646970667358221220ae89b2dc36d3487e8f06d24e4771e87cab4a7d9d9996295670150f11a08eb67064736f6c63430008140033",
  "linkReferences": {},
  "deployedLinkReferences": {}
}