{
  "_format": "hh-sol-artifact-1",
  "contractName": "Marketplace",
  "sourceName": "contracts/Marketplace.sol",
  "abi": [
    {
      "inputs": [
        {
          "internalType": "address",
          "name": "_authorizationImpAddr",
          "type": "address"
        }
      ],
      "stateMutability": "nonpayable",
      "type": "constructor"
    },
    {
      "inputs": [
        {
          "internalType": "uint256",
          "name": "tokenId",
          "type": "uint256"
        }
      ],
      "name": "AlreadyListed",
      "type": "error"
    },
    {
      "inputs": [],
      "name": "NoProceeds",
      "type": "error"
    },
    {
      "inputs": [],
      "name": "NotApprovedForMarketplace",
      "type": "error"
    },
    {
      "inputs": [
        {
          "internalType": "uint256",
          "name": "tokenId",
          "type": "uint256"
        }
      ],
      "name": "NotListed",
      "type": "error"
    },
    {
      "inputs": [],
      "name": "NotOwner",
      "type": "error"
    },
    {
      "inputs": [
        {
          "internalType": "address",
          "name": "owner",
          "type": "address"
        }
      ],
      "name": "OwnableInvalidOwner",
      "type": "error"
    },
    {
      "inputs": [
        {
          "internalType": "address",
          "name": "account",
          "type": "address"
        }
      ],
      "name": "OwnableUnauthorizedAccount",
      "type": "error"
    },
    {
      "inputs": [],
      "name": "PriceMustBeAboveZero",
      "type": "error"
    },
    {
      "inputs": [
        {
          "internalType": "uint256",
          "name": "tokenId",
          "type": "uint256"
        },
        {
          "internalType": "uint256",
          "name": "price",
          "type": "uint256"
        }
      ],
      "name": "PriceNotMet",
      "type": "error"
    },
    {
      "anonymous": false,
      "inputs": [
        {
          "indexed": true,
          "internalType": "address",
          "name": "buyer",
          "type": "address"
        },
        {
          "indexed": true,
          "internalType": "uint256",
          "name": "tokenId",
          "type": "uint256"
        },
        {
          "indexed": false,
          "internalType": "uint256",
          "name": "amount",
          "type": "uint256"
        },
        {
          "indexed": false,
          "internalType": "uint256",
          "name": "price",
          "type": "uint256"
        }
      ],
      "name": "ItemBought",
      "type": "event"
    },
    {
      "anonymous": false,
      "inputs": [
        {
          "indexed": true,
          "internalType": "address",
          "name": "seller",
          "type": "address"
        },
        {
          "indexed": true,
          "internalType": "uint256",
          "name": "tokenId",
          "type": "uint256"
        }
      ],
      "name": "ItemCanceled",
      "type": "event"
    },
    {
      "anonymous": false,
      "inputs": [
        {
          "indexed": true,
          "internalType": "address",
          "name": "seller",
          "type": "address"
        },
        {
          "indexed": true,
          "internalType": "uint256",
          "name": "tokenId",
          "type": "uint256"
        },
        {
          "indexed": false,
          "internalType": "uint256",
          "name": "amount",
          "type": "uint256"
        },
        {
          "indexed": false,
          "internalType": "uint256",
          "name": "basePrice",
          "type": "uint256"
        }
      ],
      "name": "ItemListed",
      "type": "event"
    },
    {
      "anonymous": false,
      "inputs": [
        {
          "indexed": true,
          "internalType": "address",
          "name": "previousOwner",
          "type": "address"
        },
        {
          "indexed": true,
          "internalType": "address",
          "name": "newOwner",
          "type": "address"
        }
      ],
      "name": "OwnershipTransferred",
      "type": "event"
    },
    {
      "inputs": [
        {
          "internalType": "uint256",
          "name": "_tokenId",
          "type": "uint256"
        },
        {
          "internalType": "uint256",
          "name": "_amount",
          "type": "uint256"
        }
      ],
      "name": "buyItem",
      "outputs": [],
      "stateMutability": "payable",
      "type": "function"
    },
    {
      "inputs": [
        {
          "internalType": "uint256",
          "name": "_tokenId",
          "type": "uint256"
        }
      ],
      "name": "cancelListing",
      "outputs": [],
      "stateMutability": "nonpayable",
      "type": "function"
    },
    {
      "inputs": [
        {
          "internalType": "uint256",
          "name": "_tokenId",
          "type": "uint256"
        }
      ],
      "name": "getListing",
      "outputs": [
        {
          "components": [
            {
              "internalType": "uint256",
              "name": "amount",
              "type": "uint256"
            },
            {
              "internalType": "uint256",
              "name": "basePrice",
              "type": "uint256"
            },
            {
              "internalType": "address",
              "name": "seller",
              "type": "address"
            }
          ],
          "internalType": "struct Marketplace.Listing",
          "name": "",
          "type": "tuple"
        }
      ],
      "stateMutability": "view",
      "type": "function"
    },
    {
      "inputs": [
        {
          "internalType": "address",
          "name": "_seller",
          "type": "address"
        }
      ],
      "name": "getProceeds",
      "outputs": [
        {
          "internalType": "uint256",
          "name": "",
          "type": "uint256"
        }
      ],
      "stateMutability": "view",
      "type": "function"
    },
    {
      "inputs": [
        {
          "internalType": "uint256",
          "name": "_tokenId",
          "type": "uint256"
        },
        {
          "internalType": "uint256",
          "name": "_basePrice",
          "type": "uint256"
        },
        {
          "internalType": "uint256",
          "name": "_amount",
          "type": "uint256"
        }
      ],
      "name": "listItem",
      "outputs": [],
      "stateMutability": "nonpayable",
      "type": "function"
    },
    {
      "inputs": [],
      "name": "owner",
      "outputs": [
        {
          "internalType": "address",
          "name": "",
          "type": "address"
        }
      ],
      "stateMutability": "view",
      "type": "function"
    },
    {
      "inputs": [],
      "name": "renounceOwnership",
      "outputs": [],
      "stateMutability": "nonpayable",
      "type": "function"
    },
    {
      "inputs": [
        {
          "internalType": "address",
          "name": "newOwner",
          "type": "address"
        }
      ],
      "name": "transferOwnership",
      "outputs": [],
      "stateMutability": "nonpayable",
      "type": "function"
    },
    {
      "inputs": [
        {
          "internalType": "uint256",
          "name": "_tokenId",
          "type": "uint256"
        },
        {
          "internalType": "uint256",
          "name": "_newPrice",
          "type": "uint256"
        }
      ],
      "name": "updateListing",
      "outputs": [],
      "stateMutability": "nonpayable",
      "type": "function"
    },
    {
      "inputs": [],
      "name": "withdrawProceeds",
      "outputs": [],
      "stateMutability": "nonpayable",
      "type": "function"
    }
  ],
  "bytecode": "0x60806040523480156200001157600080fd5b5060405162001d8138038062001d818339818101604052810190620000379190620002d8565b33600073ffffffffffffffffffffffffffffffffffffffff168173ffffffffffffffffffffffffffffffffffffffff1603620000ad5760006040517f1e4fbdf7000000000000000000000000000000000000000000000000000000008152600401620000a491906200031b565b60405180910390fd5b620000be816200011760201b60201c565b50620000cf620001db60201b60201c565b80600360006101000a81548173ffffffffffffffffffffffffffffffffffffffff021916908373ffffffffffffffffffffffffffffffffffffffff16021790555050620003bb565b60008060009054906101000a900473ffffffffffffffffffffffffffffffffffffffff169050816000806101000a81548173ffffffffffffffffffffffffffffffffffffffff021916908373ffffffffffffffffffffffffffffffffffffffff1602179055508173ffffffffffffffffffffffffffffffffffffffff168173ffffffffffffffffffffffffffffffffffffffff167f8be0079c531659141344cd1fd0a4f28419497f9722a3daafe3b4186f6b6457e060405160405180910390a35050565b60007f8e94fed44239eb2314ab7a406345e6c5a8f0ccedf3b600de3d004e672c33abf454905060017f8e94fed44239eb2314ab7a406345e6c5a8f0ccedf3b600de3d004e672c33abf455600081146200026b576040517f08c379a0000000000000000000000000000000000000000000000000000000008152600401620002629062000399565b60405180910390fd5b50565b600080fd5b600073ffffffffffffffffffffffffffffffffffffffff82169050919050565b6000620002a08262000273565b9050919050565b620002b28162000293565b8114620002be57600080fd5b50565b600081519050620002d281620002a7565b92915050565b600060208284031215620002f157620002f06200026e565b5b60006200030184828501620002c1565b91505092915050565b620003158162000293565b82525050565b60006020820190506200033260008301846200030a565b92915050565b600082825260208201905092915050565b7f3142000000000000000000000000000000000000000000000000000000000000600082015250565b60006200038160028362000338565b91506200038e8262000349565b602082019050919050565b60006020820190508181036000830152620003b48162000372565b9050919050565b6119b680620003cb6000396000f3fe6080604052600436106100915760003560e01c80638da5cb5b116100595780638da5cb5b146101795780639038e693146101a45780639979c009146101bb578063ec16b94a146101d7578063f2fde38b1461020057610091565b80630179ea8814610096578063107a274a146100bf578063305a67a8146100fc57806330cfeda914610125578063715018a614610162575b600080fd5b3480156100a257600080fd5b506100bd60048036038101906100b89190611450565b610229565b005b3480156100cb57600080fd5b506100e660048036038101906100e19190611490565b61051d565b6040516100f3919061154f565b60405180910390f35b34801561010857600080fd5b50610123600480360381019061011e9190611490565b6105b4565b005b34801561013157600080fd5b5061014c60048036038101906101479190611596565b610800565b60405161015991906115d2565b60405180910390f35b34801561016e57600080fd5b50610177610849565b005b34801561018557600080fd5b5061018e61085d565b60405161019b91906115fc565b60405180910390f35b3480156101b057600080fd5b506101b9610886565b005b6101d560048036038101906101d09190611450565b610a75565b005b3480156101e357600080fd5b506101fe60048036038101906101f99190611617565b610e45565b005b34801561020c57600080fd5b5061022760048036038101906102229190611596565b611205565b005b8160006004600083815260200190815260200160002060405180606001604052908160008201548152602001600182015481526020016002820160009054906101000a900473ffffffffffffffffffffffffffffffffffffffff1673ffffffffffffffffffffffffffffffffffffffff1673ffffffffffffffffffffffffffffffffffffffff1681525050905060008160200151116102ff57816040517fd176cea00000000000000000000000000000000000000000000000000000000081526004016102f691906115d2565b60405180910390fd5b83336000600360009054906101000a900473ffffffffffffffffffffffffffffffffffffffff1673ffffffffffffffffffffffffffffffffffffffff1662fdd58e83856040518363ffffffff1660e01b815260040161035f92919061166a565b602060405180830381865afa15801561037c573d6000803e3d6000fd5b505050506040513d601f19601f820116820180604052508101906103a091906116a8565b9050600081116103dc576040517f30cd747100000000000000000000000000000000000000000000000000000000815260040160405180910390fd5b60007f8e94fed44239eb2314ab7a406345e6c5a8f0ccedf3b600de3d004e672c33abf45490506001811461040f57600080fd5b60027f8e94fed44239eb2314ab7a406345e6c5a8f0ccedf3b600de3d004e672c33abf4556000871161046d576040517fe1abbfc500000000000000000000000000000000000000000000000000000000815260040160405180910390fd5b86600460008a815260200190815260200160002060010181905550873373ffffffffffffffffffffffffffffffffffffffff167f58daee15640543ce9c441aaf5417a2860fd1fd6b7e8a9648d1bb4d2b0c17b62a600460008c8152602001908152602001600020600001548a6040516104e79291906116d5565b60405180910390a360017f8e94fed44239eb2314ab7a406345e6c5a8f0ccedf3b600de3d004e672c33abf4555050505050505050565b6105256113de565b6004600083815260200190815260200160002060405180606001604052908160008201548152602001600182015481526020016002820160009054906101000a900473ffffffffffffffffffffffffffffffffffffffff1673ffffffffffffffffffffffffffffffffffffffff1673ffffffffffffffffffffffffffffffffffffffff16815250509050919050565b80336000600360009054906101000a900473ffffffffffffffffffffffffffffffffffffffff1673ffffffffffffffffffffffffffffffffffffffff1662fdd58e83856040518363ffffffff1660e01b815260040161061492919061166a565b602060405180830381865afa158015610631573d6000803e3d6000fd5b505050506040513d601f19601f8201168201806040525081019061065591906116a8565b905060008111610691576040517f30cd747100000000000000000000000000000000000000000000000000000000815260040160405180910390fd5b8360006004600083815260200190815260200160002060405180606001604052908160008201548152602001600182015481526020016002820160009054906101000a900473ffffffffffffffffffffffffffffffffffffffff1673ffffffffffffffffffffffffffffffffffffffff1673ffffffffffffffffffffffffffffffffffffffff16815250509050600081602001511161076757816040517fd176cea000000000000000000000000000000000000000000000000000000000815260040161075e91906115d2565b60405180910390fd5b6004600087815260200190815260200160002060008082016000905560018201600090556002820160006101000a81549073ffffffffffffffffffffffffffffffffffffffff02191690555050853373ffffffffffffffffffffffffffffffffffffffff167ff86e54241e209ee4b38db8e64af9614b083d18f23c32f3293c8a87c6b8bf894360405160405180910390a3505050505050565b6000600560008373ffffffffffffffffffffffffffffffffffffffff1673ffffffffffffffffffffffffffffffffffffffff168152602001908152602001600020549050919050565b61085161128b565b61085b6000611312565b565b60008060009054906101000a900473ffffffffffffffffffffffffffffffffffffffff16905090565b60007f8e94fed44239eb2314ab7a406345e6c5a8f0ccedf3b600de3d004e672c33abf4549050600181146108b957600080fd5b60027f8e94fed44239eb2314ab7a406345e6c5a8f0ccedf3b600de3d004e672c33abf4556000600560003373ffffffffffffffffffffffffffffffffffffffff1673ffffffffffffffffffffffffffffffffffffffff1681526020019081526020016000205490506000811161095b576040517fc4d8fa8700000000000000000000000000000000000000000000000000000000815260040160405180910390fd5b6000600560003373ffffffffffffffffffffffffffffffffffffffff1673ffffffffffffffffffffffffffffffffffffffff1681526020019081526020016000208190555060003373ffffffffffffffffffffffffffffffffffffffff16826040516109c69061172f565b60006040518083038185875af1925050503d8060008114610a03576040519150601f19603f3d011682016040523d82523d6000602084013e610a08565b606091505b5050905080610a4c576040517f08c379a0000000000000000000000000000000000000000000000000000000008152600401610a43906117a1565b60405180910390fd5b505060017f8e94fed44239eb2314ab7a406345e6c5a8f0ccedf3b600de3d004e672c33abf45550565b8160006004600083815260200190815260200160002060405180606001604052908160008201548152602001600182015481526020016002820160009054906101000a900473ffffffffffffffffffffffffffffffffffffffff1673ffffffffffffffffffffffffffffffffffffffff1673ffffffffffffffffffffffffffffffffffffffff168152505090506000816020015111610b4b57816040517fd176cea0000000000000000000000000000000000000000000000000000000008152600401610b4291906115d2565b60405180910390fd5b60007f8e94fed44239eb2314ab7a406345e6c5a8f0ccedf3b600de3d004e672c33abf454905060018114610b7e57600080fd5b60027f8e94fed44239eb2314ab7a406345e6c5a8f0ccedf3b600de3d004e672c33abf45560006004600087815260200190815260200160002060405180606001604052908160008201548152602001600182015481526020016002820160009054906101000a900473ffffffffffffffffffffffffffffffffffffffff1673ffffffffffffffffffffffffffffffffffffffff1673ffffffffffffffffffffffffffffffffffffffff168152505090506000858260200151610c4091906117f0565b905080341015610c895786816040517fbc03bccd000000000000000000000000000000000000000000000000000000008152600401610c809291906116d5565b60405180910390fd5b3460056000846040015173ffffffffffffffffffffffffffffffffffffffff1673ffffffffffffffffffffffffffffffffffffffff1681526020019081526020016000206000828254610cdc9190611832565b925050819055506004600088815260200190815260200160002060008082016000905560018201600090556002820160006101000a81549073ffffffffffffffffffffffffffffffffffffffff02191690555050600360009054906101000a900473ffffffffffffffffffffffffffffffffffffffff1673ffffffffffffffffffffffffffffffffffffffff1663f242432a8360400151338a8a6040518563ffffffff1660e01b8152600401610d95949392919061189a565b600060405180830381600087803b158015610daf57600080fd5b505af1158015610dc3573d6000803e3d6000fd5b50505050863373ffffffffffffffffffffffffffffffffffffffff167fe75ef3a0d768e0e8037e4b80e42d2f8a3c797998ec29cacf84fa87766ff8de5e8884604051610e109291906116d5565b60405180910390a3505060017f8e94fed44239eb2314ab7a406345e6c5a8f0ccedf3b600de3d004e672c33abf4555050505050565b8260006004600083815260200190815260200160002060405180606001604052908160008201548152602001600182015481526020016002820160009054906101000a900473ffffffffffffffffffffffffffffffffffffffff1673ffffffffffffffffffffffffffffffffffffffff1673ffffffffffffffffffffffffffffffffffffffff16815250509050600081602001511115610f1c57816040517f7fbcdff9000000000000000000000000000000000000000000000000000000008152600401610f1391906115d2565b60405180910390fd5b84336000600360009054906101000a900473ffffffffffffffffffffffffffffffffffffffff1673ffffffffffffffffffffffffffffffffffffffff1662fdd58e83856040518363ffffffff1660e01b8152600401610f7c92919061166a565b602060405180830381865afa158015610f99573d6000803e3d6000fd5b505050506040513d601f19601f82011682018060405250810190610fbd91906116a8565b905060008111610ff9576040517f30cd747100000000000000000000000000000000000000000000000000000000815260040160405180910390fd5b60008711611033576040517fe1abbfc500000000000000000000000000000000000000000000000000000000815260040160405180910390fd5b600360009054906101000a900473ffffffffffffffffffffffffffffffffffffffff1673ffffffffffffffffffffffffffffffffffffffff1663e985e9c530336040518363ffffffff1660e01b81526004016110909291906118f2565b602060405180830381865afa1580156110ad573d6000803e3d6000fd5b505050506040513d601f19601f820116820180604052508101906110d19190611953565b15611108576040517f4be3a2c500000000000000000000000000000000000000000000000000000000815260040160405180910390fd5b60405180606001604052808781526020018881526020013373ffffffffffffffffffffffffffffffffffffffff16815250600460008a8152602001908152602001600020600082015181600001556020820151816001015560408201518160020160006101000a81548173ffffffffffffffffffffffffffffffffffffffff021916908373ffffffffffffffffffffffffffffffffffffffff160217905550905050873373ffffffffffffffffffffffffffffffffffffffff167f58daee15640543ce9c441aaf5417a2860fd1fd6b7e8a9648d1bb4d2b0c17b62a888a6040516111f39291906116d5565b60405180910390a35050505050505050565b61120d61128b565b600073ffffffffffffffffffffffffffffffffffffffff168173ffffffffffffffffffffffffffffffffffffffff160361127f5760006040517f1e4fbdf700000000000000000000000000000000000000000000000000000000815260040161127691906115fc565b60405180910390fd5b61128881611312565b50565b6112936113d6565b73ffffffffffffffffffffffffffffffffffffffff166112b161085d565b73ffffffffffffffffffffffffffffffffffffffff1614611310576112d46113d6565b6040517f118cdaa700000000000000000000000000000000000000000000000000000000815260040161130791906115fc565b60405180910390fd5b565b60008060009054906101000a900473ffffffffffffffffffffffffffffffffffffffff169050816000806101000a81548173ffffffffffffffffffffffffffffffffffffffff021916908373ffffffffffffffffffffffffffffffffffffffff1602179055508173ffffffffffffffffffffffffffffffffffffffff168173ffffffffffffffffffffffffffffffffffffffff167f8be0079c531659141344cd1fd0a4f28419497f9722a3daafe3b4186f6b6457e060405160405180910390a35050565b600033905090565b60405180606001604052806000815260200160008152602001600073ffffffffffffffffffffffffffffffffffffffff1681525090565b600080fd5b6000819050919050565b61142d8161141a565b811461143857600080fd5b50565b60008135905061144a81611424565b92915050565b6000806040838503121561146757611466611415565b5b60006114758582860161143b565b92505060206114868582860161143b565b9150509250929050565b6000602082840312156114a6576114a5611415565b5b60006114b48482850161143b565b91505092915050565b6114c68161141a565b82525050565b600073ffffffffffffffffffffffffffffffffffffffff82169050919050565b60006114f7826114cc565b9050919050565b611507816114ec565b82525050565b60608201600082015161152360008501826114bd565b50602082015161153660208501826114bd565b50604082015161154960408501826114fe565b50505050565b6000606082019050611564600083018461150d565b92915050565b611573816114ec565b811461157e57600080fd5b50565b6000813590506115908161156a565b92915050565b6000602082840312156115ac576115ab611415565b5b60006115ba84828501611581565b91505092915050565b6115cc8161141a565b82525050565b60006020820190506115e760008301846115c3565b92915050565b6115f6816114ec565b82525050565b600060208201905061161160008301846115ed565b92915050565b6000806000606084860312156116305761162f611415565b5b600061163e8682870161143b565b935050602061164f8682870161143b565b92505060406116608682870161143b565b9150509250925092565b600060408201905061167f60008301856115ed565b61168c60208301846115c3565b9392505050565b6000815190506116a281611424565b92915050565b6000602082840312156116be576116bd611415565b5b60006116cc84828501611693565b91505092915050565b60006040820190506116ea60008301856115c3565b6116f760208301846115c3565b9392505050565b600081905092915050565b50565b60006117196000836116fe565b915061172482611709565b600082019050919050565b600061173a8261170c565b9150819050919050565b600082825260208201905092915050565b7f5472616e73666572206661696c65640000000000000000000000000000000000600082015250565b600061178b600f83611744565b915061179682611755565b602082019050919050565b600060208201905081810360008301526117ba8161177e565b9050919050565b7f4e487b7100000000000000000000000000000000000000000000000000000000600052601160045260246000fd5b60006117fb8261141a565b91506118068361141a565b92508282026118148161141a565b9150828204841483151761182b5761182a6117c1565b5b5092915050565b600061183d8261141a565b91506118488361141a565b92508282019050808211156118605761185f6117c1565b5b92915050565b600082825260208201905092915050565b6000611884600083611866565b915061188f82611709565b600082019050919050565b600060a0820190506118af60008301876115ed565b6118bc60208301866115ed565b6118c960408301856115c3565b6118d660608301846115c3565b81810360808301526118e781611877565b905095945050505050565b600060408201905061190760008301856115ed565b61191460208301846115ed565b9392505050565b60008115159050919050565b6119308161191b565b811461193b57600080fd5b50565b60008151905061194d81611927565b92915050565b60006020828403121561196957611968611415565b5b60006119778482850161193e565b9150509291505056fea2646970667358221220f6996cc9df1cfbffa9557dda879e2a3e12ad13fac8e2e432ed99c888f2d9dda164736f6c63430008140033",
  "linkReferences": {},
  "deployedLinkReferences": {}
}